{
  "transactions": [
    {
      "hash": "0x24e8b52a00c804cd0fe0063834f68b6bbef1733153d12da99cafd65df92e0c96",
      "transactionType": "CREATE",
      "contractName": "Bridge",
      "contractAddress": "0x1F6A9bdc4aA1340896c177F1c46FD990de6949B0",
      "function": null,
      "arguments": [
        "[0xa909FB9E10A54ABdBA7D8a808E9eDDc6431da5f2, 0x427426A550f0292b1B6D8d506ec62b8E48a6e5F2, 0x74b8693a87d0d739692325A685CD806271487D7D]",
        "[1, 1900, 31000]",
        "0xCC737a94FecaeC165AbCf12dED095BB13F037685"
      ],
      "rpc": "https://polygon-mumbai.g.alchemy.com/v2/fJeVFG02xfcdxGUbOFwXYKPDVGuigwl_",
      "transaction": {
        "type": "0x00",
        "from": "0x7d6703218ab83d5255e4532101deb294ea1b9d27",
        "gas": "0x9c01a",
        "value": "0x0",
        "data": "0x60a060405234801561001057600080fd5b506040516108ae3803806108ae83398101604081905261002f91610105565b828260005b600381101561009c5761008a838260038110610052576100526101ca565b6020020151838360038110610069576100696101ca565b60200201516001600160a01b03909116600090815260208190526040902055565b80610094816101e0565b915050610034565b5050506001600160a01b0316608052506102079050565b604051606081016001600160401b03811182821017156100e357634e487b7160e01b600052604160045260246000fd5b60405290565b80516001600160a01b038116811461010057600080fd5b919050565b600080600060e0848603121561011a57600080fd5b84601f85011261012957600080fd5b6101316100b3565b80606086018781111561014357600080fd5b865b8181101561016457610156816100e9565b845260209384019301610145565b5081955087607f88011261017757600080fd5b61017f6100b3565b925082915060c087018881111561019557600080fd5b5b808210156101b1578151845260209384019390910190610196565b8295506101bd816100e9565b9450505050509250925092565b634e487b7160e01b600052603260045260246000fd5b60006001820161020057634e487b7160e01b600052601160045260246000fd5b5060010190565b608051610687610227600039600081816080015260de01526106876000f3fe608060405234801561001057600080fd5b50600436106100365760003560e01c806356d5d4751461003b578063c10e565d14610050575b600080fd5b61004e6100493660046103f6565b610075565b005b61006361005e366004610495565b6100d9565b60405190815260200160405180910390f35b336001600160a01b037f000000000000000000000000000000000000000000000000000000000000000016146100aa57600080fd5b60008080806100bb8587018761050c565b93509350935093506100cf848484846101d3565b5050505050505050565b6000807f00000000000000000000000000000000000000000000000000000000000000006001600160a01b031663fa31de018661011c876001600160a01b031690565b604080516001600160a01b03808f166020830152808e1692820192909252606081018c9052908816608082015260a0016040516020818303038152906040526040518463ffffffff1660e01b81526004016101799392919061055f565b6020604051808303816000875af1158015610198573d6000803e3d6000fd5b505050506040513d601f19601f820116820180604052508101906101bc91906105c2565b90506101c8888761035e565b979650505050505050565b6001600160a01b03841660009081526020819052604090205461023d5760405162461bcd60e51b815260206004820152601960248201527f496e70757420746f6b656e207072696365206e6f74207365740000000000000060448201526064015b60405180910390fd5b6001600160a01b0383166000908152602081905260409020546102a25760405162461bcd60e51b815260206004820152601a60248201527f4f757470757420746f6b656e207072696365206e6f74207365740000000000006044820152606401610234565b6001600160a01b0380851660009081526020819052604080822054928616825281205490816102d184876105db565b6102db9190610606565b60405163a9059cbb60e01b81526001600160a01b03868116600483015260248201839052919250879182169063a9059cbb906044016020604051808303816000875af115801561032f573d6000803e3d6000fd5b505050506040513d601f19601f820116820180604052508101906103539190610628565b505050505050505050565b6040516323b872dd60e01b81523360048201523060248201526044810182905282906001600160a01b038216906323b872dd906064016020604051808303816000875af11580156103b3573d6000803e3d6000fd5b505050506040513d601f19601f820116820180604052508101906103d79190610628565b50505050565b803563ffffffff811681146103f157600080fd5b919050565b6000806000806060858703121561040c57600080fd5b610415856103dd565b935060208501359250604085013567ffffffffffffffff8082111561043957600080fd5b818701915087601f83011261044d57600080fd5b81358181111561045c57600080fd5b88602082850101111561046e57600080fd5b95989497505060200194505050565b6001600160a01b038116811461049257600080fd5b50565b60008060008060008060c087890312156104ae57600080fd5b86356104b98161047d565b955060208701356104c98161047d565b9450604087013593506104de606088016103dd565b925060808701356104ee8161047d565b915060a08701356104fe8161047d565b809150509295509295509295565b6000806000806080858703121561052257600080fd5b843561052d8161047d565b9350602085013561053d8161047d565b92506040850135915060608501356105548161047d565b939692955090935050565b63ffffffff8416815260006020848184015260606040840152835180606085015260005b8181101561059f57858101830151858201608001528201610583565b506000608082860101526080601f19601f83011685010192505050949350505050565b6000602082840312156105d457600080fd5b5051919050565b808202811582820484141761060057634e487b7160e01b600052601160045260246000fd5b92915050565b60008261062357634e487b7160e01b600052601260045260246000fd5b500490565b60006020828403121561063a57600080fd5b8151801515811461064a57600080fd5b939250505056fea264697066735822122016bc86a597e52850d75eb7655d777340eb37c2035af82bf1cab709a1d41a3c1064736f6c63430008120033000000000000000000000000a909fb9e10a54abdba7d8a808e9eddc6431da5f2000000000000000000000000427426a550f0292b1b6d8d506ec62b8e48a6e5f200000000000000000000000074b8693a87d0d739692325a685cd806271487d7d0000000000000000000000000000000000000000000000000000000000000001000000000000000000000000000000000000000000000000000000000000076c0000000000000000000000000000000000000000000000000000000000007918000000000000000000000000cc737a94fecaec165abcf12ded095bb13f037685",
        "nonce": "0x12"
      },
      "additionalContracts": []
    },
    {
      "hash": "0xda1f13a68dd9100da3b5dea93bc6e628497190ba46941a8542ba8927a679497d",
      "transactionType": "CALL",
      "contractName": "MyToken",
      "contractAddress": "0xa909FB9E10A54ABdBA7D8a808E9eDDc6431da5f2",
      "function": "approve(address,uint256):(bool)",
      "arguments": [
        "0x1F6A9bdc4aA1340896c177F1c46FD990de6949B0",
        "100000000000000"
      ],
      "rpc": "https://polygon-mumbai.g.alchemy.com/v2/fJeVFG02xfcdxGUbOFwXYKPDVGuigwl_",
      "transaction": {
        "type": "0x00",
        "from": "0x7d6703218ab83d5255e4532101deb294ea1b9d27",
        "to": "0xa909fb9e10a54abdba7d8a808e9eddc6431da5f2",
        "gas": "0xf987",
        "value": "0x0",
        "data": "0x095ea7b30000000000000000000000001f6a9bdc4aa1340896c177f1c46fd990de6949b000000000000000000000000000000000000000000000000000005af3107a4000",
        "nonce": "0x13"
      },
      "additionalContracts": []
    },
    {
      "hash": "0x43ce91fb628032fdb7404fc059d4e2c63c555a9a09bab41433194e900544771b",
      "transactionType": "CALL",
      "contractName": "MyToken",
      "contractAddress": "0x427426A550f0292b1B6D8d506ec62b8E48a6e5F2",
      "function": "approve(address,uint256):(bool)",
      "arguments": [
        "0x1F6A9bdc4aA1340896c177F1c46FD990de6949B0",
        "100000000000000"
      ],
      "rpc": "https://polygon-mumbai.g.alchemy.com/v2/fJeVFG02xfcdxGUbOFwXYKPDVGuigwl_",
      "transaction": {
        "type": "0x00",
        "from": "0x7d6703218ab83d5255e4532101deb294ea1b9d27",
        "to": "0x427426a550f0292b1b6d8d506ec62b8e48a6e5f2",
        "gas": "0xf987",
        "value": "0x0",
        "data": "0x095ea7b30000000000000000000000001f6a9bdc4aa1340896c177f1c46fd990de6949b000000000000000000000000000000000000000000000000000005af3107a4000",
        "nonce": "0x14"
      },
      "additionalContracts": []
    },
    {
      "hash": "0x7fa755de4a480ab72315942e8103c612a95ea308438a63c4c2f74cc363ce22e1",
      "transactionType": "CALL",
      "contractName": "MyToken",
      "contractAddress": "0x74b8693a87d0d739692325A685CD806271487D7D",
      "function": "approve(address,uint256):(bool)",
      "arguments": [
        "0x1F6A9bdc4aA1340896c177F1c46FD990de6949B0",
        "100000000000000"
      ],
      "rpc": "https://polygon-mumbai.g.alchemy.com/v2/fJeVFG02xfcdxGUbOFwXYKPDVGuigwl_",
      "transaction": {
        "type": "0x00",
        "from": "0x7d6703218ab83d5255e4532101deb294ea1b9d27",
        "to": "0x74b8693a87d0d739692325a685cd806271487d7d",
        "gas": "0xf987",
        "value": "0x0",
        "data": "0x095ea7b30000000000000000000000001f6a9bdc4aa1340896c177f1c46fd990de6949b000000000000000000000000000000000000000000000000000005af3107a4000",
        "nonce": "0x15"
      },
      "additionalContracts": []
    },
    {
      "hash": "0x7206f4d550441caa0014898173806cdd2e6d64cd60e1b67440bd302071a183d1",
      "transactionType": "CALL",
      "contractName": "MyToken",
      "contractAddress": "0xa909FB9E10A54ABdBA7D8a808E9eDDc6431da5f2",
      "function": "mint(address,uint256)",
      "arguments": [
        "0x1F6A9bdc4aA1340896c177F1c46FD990de6949B0",
        "100000000000000"
      ],
      "rpc": "https://polygon-mumbai.g.alchemy.com/v2/fJeVFG02xfcdxGUbOFwXYKPDVGuigwl_",
      "transaction": {
        "type": "0x00",
        "from": "0x7d6703218ab83d5255e4532101deb294ea1b9d27",
        "to": "0xa909fb9e10a54abdba7d8a808e9eddc6431da5f2",
        "gas": "0x1266c",
        "value": "0x0",
        "data": "0x40c10f190000000000000000000000001f6a9bdc4aa1340896c177f1c46fd990de6949b000000000000000000000000000000000000000000000000000005af3107a4000",
        "nonce": "0x16"
      },
      "additionalContracts": []
    },
    {
      "hash": "0xe19b2915359862aec0c8d1e038189d3960681fc9a6d9f11328e19608dea1d686",
      "transactionType": "CALL",
      "contractName": "MyToken",
      "contractAddress": "0x427426A550f0292b1B6D8d506ec62b8E48a6e5F2",
      "function": "mint(address,uint256)",
      "arguments": [
        "0x1F6A9bdc4aA1340896c177F1c46FD990de6949B0",
        "100000000000000"
      ],
      "rpc": "https://polygon-mumbai.g.alchemy.com/v2/fJeVFG02xfcdxGUbOFwXYKPDVGuigwl_",
      "transaction": {
        "type": "0x00",
        "from": "0x7d6703218ab83d5255e4532101deb294ea1b9d27",
        "to": "0x427426a550f0292b1b6d8d506ec62b8e48a6e5f2",
        "gas": "0x1266c",
        "value": "0x0",
        "data": "0x40c10f190000000000000000000000001f6a9bdc4aa1340896c177f1c46fd990de6949b000000000000000000000000000000000000000000000000000005af3107a4000",
        "nonce": "0x17"
      },
      "additionalContracts": []
    },
    {
      "hash": "0xe564d987c811ae3ae8e12f350d0b72c29f5ae155af4e524630bb2b0f36a89947",
      "transactionType": "CALL",
      "contractName": "MyToken",
      "contractAddress": "0x74b8693a87d0d739692325A685CD806271487D7D",
      "function": "mint(address,uint256)",
      "arguments": [
        "0x1F6A9bdc4aA1340896c177F1c46FD990de6949B0",
        "100000000000000"
      ],
      "rpc": "https://polygon-mumbai.g.alchemy.com/v2/fJeVFG02xfcdxGUbOFwXYKPDVGuigwl_",
      "transaction": {
        "type": "0x00",
        "from": "0x7d6703218ab83d5255e4532101deb294ea1b9d27",
        "to": "0x74b8693a87d0d739692325a685cd806271487d7d",
        "gas": "0x1266c",
        "value": "0x0",
        "data": "0x40c10f190000000000000000000000001f6a9bdc4aa1340896c177f1c46fd990de6949b000000000000000000000000000000000000000000000000000005af3107a4000",
        "nonce": "0x18"
      },
      "additionalContracts": []
    }
  ],
  "receipts": [
    {
      "transactionHash": "0x24e8b52a00c804cd0fe0063834f68b6bbef1733153d12da99cafd65df92e0c96",
      "transactionIndex": "0x4",
      "blockHash": "0x959924a10ef9c52c7c1208efa0c424b2cf46100bce5299e56cef6f5bff34508a",
      "blockNumber": "0x2382719",
      "from": "0x7d6703218ab83D5255e4532101deB294eA1b9d27",
      "to": null,
      "cumulativeGasUsed": "0x1158a1",
      "gasUsed": "0x78014",
      "contractAddress": "0x1F6A9bdc4aA1340896c177F1c46FD990de6949B0",
      "logs": [
        {
          "address": "0x0000000000000000000000000000000000001010",
          "topics": [
            "0x4dfe1bbbcf077ddc3e01291eea2d5c70c2b422b415d95645b9adcfd678cb1d63",
            "0x0000000000000000000000000000000000000000000000000000000000001010",
            "0x0000000000000000000000007d6703218ab83d5255e4532101deb294ea1b9d27",
            "0x000000000000000000000000be188d6641e8b680743a4815dfa0f6208038960f"
          ],
          "data": "0x0000000000000000000000000000000000000000000000000003bc55f8e4076000000000000000000000000000000000000000000000000006c9d7bc03b2812300000000000000000000000000000000000000000000329d245ec9c7c9f76c1f00000000000000000000000000000000000000000000000006c61b660ace79c300000000000000000000000000000000000000000000329d2462861dc2db737f",
          "blockHash": "0x959924a10ef9c52c7c1208efa0c424b2cf46100bce5299e56cef6f5bff34508a",
          "blockNumber": "0x2382719",
          "transactionHash": "0x24e8b52a00c804cd0fe0063834f68b6bbef1733153d12da99cafd65df92e0c96",
          "transactionIndex": "0x4",
          "logIndex": "0x10",
          "removed": false
        }
      ],
      "status": "0x1",
      "logsBloom": "0x00000000000000000000000000000000000000000000000000000000000000000000000000000000000000000000000000008000000000000000000000000000000080000000000000000000000000800000000004000000000100000000004000000000000000000000000000000000000000000000000080000000000020000000000000000000000000000000000000000000000080000000000000000000200000000000000000000000000000000000000000000000000000000000004000000000000000000001000000000000000000000000000000100040000000000000000000000000000000000000000000000000000000000000000000100000",
      "type": "0x0",
      "effectiveGasPrice": "0x7f819a08"
    },
    {
      "transactionHash": "0xda1f13a68dd9100da3b5dea93bc6e628497190ba46941a8542ba8927a679497d",
      "transactionIndex": "0x5",
      "blockHash": "0x959924a10ef9c52c7c1208efa0c424b2cf46100bce5299e56cef6f5bff34508a",
      "blockNumber": "0x2382719",
      "from": "0x7d6703218ab83D5255e4532101deB294eA1b9d27",
      "to": "0xa909FB9E10A54ABdBA7D8a808E9eDDc6431da5f2",
      "cumulativeGasUsed": "0x120d49",
      "gasUsed": "0xb4a8",
      "contractAddress": null,
      "logs": [
        {
          "address": "0xa909FB9E10A54ABdBA7D8a808E9eDDc6431da5f2",
          "topics": [
            "0x8c5be1e5ebec7d5bd14f71427d1e84f3dd0314c0f7b2291e5b200ac8c7c3b925",
            "0x0000000000000000000000007d6703218ab83d5255e4532101deb294ea1b9d27",
            "0x0000000000000000000000001f6a9bdc4aa1340896c177f1c46fd990de6949b0"
          ],
          "data": "0x00000000000000000000000000000000000000000000000000005af3107a4000",
          "blockHash": "0x959924a10ef9c52c7c1208efa0c424b2cf46100bce5299e56cef6f5bff34508a",
          "blockNumber": "0x2382719",
          "transactionHash": "0xda1f13a68dd9100da3b5dea93bc6e628497190ba46941a8542ba8927a679497d",
          "transactionIndex": "0x5",
          "logIndex": "0x11",
          "removed": false
        },
        {
          "address": "0x0000000000000000000000000000000000001010",
          "topics": [
            "0x4dfe1bbbcf077ddc3e01291eea2d5c70c2b422b415d95645b9adcfd678cb1d63",
            "0x0000000000000000000000000000000000000000000000000000000000001010",
            "0x0000000000000000000000007d6703218ab83d5255e4532101deb294ea1b9d27",
            "0x000000000000000000000000be188d6641e8b680743a4815dfa0f6208038960f"
          ],
          "data": "0x000000000000000000000000000000000000000000000000000059facd4f6ac000000000000000000000000000000000000000000000000006c61b660a56788300000000000000000000000000000000000000000000329d2462861dc2db737f00000000000000000000000000000000000000000000000006c5c16b3d070dc300000000000000000000000000000000000000000000329d2462e018902ade3f",
          "blockHash": "0x959924a10ef9c52c7c1208efa0c424b2cf46100bce5299e56cef6f5bff34508a",
          "blockNumber": "0x2382719",
          "transactionHash": "0xda1f13a68dd9100da3b5dea93bc6e628497190ba46941a8542ba8927a679497d",
          "transactionIndex": "0x5",
          "logIndex": "0x12",
          "removed": false
        }
      ],
      "status": "0x1",
      "logsBloom": "0x00000000000000000000000000000000000000000000000000000100000000000000000000000000000000000000000000008000000000000000000000200000000080040000000000000000000000800000000004000000000100000000004000000000000000000000000000000000000000000000000080000000000020000000200000000000000000000000000000000000000080040000000000000000220000000000000000000000000000000000000000000000000000000000004000000000000000000001000000000000000000000000000000100040000000000010000000000800000000000000000000000000000000000000000000100004",
      "type": "0x0",
      "effectiveGasPrice": "0x7f819a08"
    },
    {
      "transactionHash": "0x43ce91fb628032fdb7404fc059d4e2c63c555a9a09bab41433194e900544771b",
      "transactionIndex": "0x6",
      "blockHash": "0x959924a10ef9c52c7c1208efa0c424b2cf46100bce5299e56cef6f5bff34508a",
      "blockNumber": "0x2382719",
      "from": "0x7d6703218ab83D5255e4532101deB294eA1b9d27",
      "to": "0x427426A550f0292b1B6D8d506ec62b8E48a6e5F2",
      "cumulativeGasUsed": "0x12c1f1",
      "gasUsed": "0xb4a8",
      "contractAddress": null,
      "logs": [
        {
          "address": "0x427426A550f0292b1B6D8d506ec62b8E48a6e5F2",
          "topics": [
            "0x8c5be1e5ebec7d5bd14f71427d1e84f3dd0314c0f7b2291e5b200ac8c7c3b925",
            "0x0000000000000000000000007d6703218ab83d5255e4532101deb294ea1b9d27",
            "0x0000000000000000000000001f6a9bdc4aa1340896c177f1c46fd990de6949b0"
          ],
          "data": "0x00000000000000000000000000000000000000000000000000005af3107a4000",
          "blockHash": "0x959924a10ef9c52c7c1208efa0c424b2cf46100bce5299e56cef6f5bff34508a",
          "blockNumber": "0x2382719",
          "transactionHash": "0x43ce91fb628032fdb7404fc059d4e2c63c555a9a09bab41433194e900544771b",
          "transactionIndex": "0x6",
          "logIndex": "0x13",
          "removed": false
        },
        {
          "address": "0x0000000000000000000000000000000000001010",
          "topics": [
            "0x4dfe1bbbcf077ddc3e01291eea2d5c70c2b422b415d95645b9adcfd678cb1d63",
            "0x0000000000000000000000000000000000000000000000000000000000001010",
            "0x0000000000000000000000007d6703218ab83d5255e4532101deb294ea1b9d27",
            "0x000000000000000000000000be188d6641e8b680743a4815dfa0f6208038960f"
          ],
          "data": "0x000000000000000000000000000000000000000000000000000059facd4f6ac000000000000000000000000000000000000000000000000006c5c16b3cfbc34300000000000000000000000000000000000000000000329d2462e018902ade3f00000000000000000000000000000000000000000000000006c567706fac588300000000000000000000000000000000000000000000329d24633a135d7a48ff",
          "blockHash": "0x959924a10ef9c52c7c1208efa0c424b2cf46100bce5299e56cef6f5bff34508a",
          "blockNumber": "0x2382719",
          "transactionHash": "0x43ce91fb628032fdb7404fc059d4e2c63c555a9a09bab41433194e900544771b",
          "transactionIndex": "0x6",
          "logIndex": "0x14",
          "removed": false
        }
      ],
      "status": "0x1",
      "logsBloom": "0x00000000000000000100000000000000000000000000000080000000000000000000000000000000000000000000000000008000000000000000000000200000000080000000000000000000000000800000000004000000000100000000004000000000000000000000000000000000000000000000000080000000000020000000200000000000000000000000000000000000000080000000000000000000220000000000000000000000000000000000000000000000000000000000004000000000000000000001000000000000000000000000000000100040000000000010000000000800080000000000000000000000000000000000000000100004",
      "type": "0x0",
      "effectiveGasPrice": "0x7f819a08"
    },
    {
      "transactionHash": "0x7fa755de4a480ab72315942e8103c612a95ea308438a63c4c2f74cc363ce22e1",
      "transactionIndex": "0x7",
      "blockHash": "0x959924a10ef9c52c7c1208efa0c424b2cf46100bce5299e56cef6f5bff34508a",
      "blockNumber": "0x2382719",
      "from": "0x7d6703218ab83D5255e4532101deB294eA1b9d27",
      "to": "0x74b8693a87d0d739692325A685CD806271487D7D",
      "cumulativeGasUsed": "0x137699",
      "gasUsed": "0xb4a8",
      "contractAddress": null,
      "logs": [
        {
          "address": "0x74b8693a87d0d739692325A685CD806271487D7D",
          "topics": [
            "0x8c5be1e5ebec7d5bd14f71427d1e84f3dd0314c0f7b2291e5b200ac8c7c3b925",
            "0x0000000000000000000000007d6703218ab83d5255e4532101deb294ea1b9d27",
            "0x0000000000000000000000001f6a9bdc4aa1340896c177f1c46fd990de6949b0"
          ],
          "data": "0x00000000000000000000000000000000000000000000000000005af3107a4000",
          "blockHash": "0x959924a10ef9c52c7c1208efa0c424b2cf46100bce5299e56cef6f5bff34508a",
          "blockNumber": "0x2382719",
          "transactionHash": "0x7fa755de4a480ab72315942e8103c612a95ea308438a63c4c2f74cc363ce22e1",
          "transactionIndex": "0x7",
          "logIndex": "0x15",
          "removed": false
        },
        {
          "address": "0x0000000000000000000000000000000000001010",
          "topics": [
            "0x4dfe1bbbcf077ddc3e01291eea2d5c70c2b422b415d95645b9adcfd678cb1d63",
            "0x0000000000000000000000000000000000000000000000000000000000001010",
            "0x0000000000000000000000007d6703218ab83d5255e4532101deb294ea1b9d27",
            "0x000000000000000000000000be188d6641e8b680743a4815dfa0f6208038960f"
          ],
          "data": "0x000000000000000000000000000000000000000000000000000059facd4f6ac000000000000000000000000000000000000000000000000006c567706fa10e0300000000000000000000000000000000000000000000329d24633a135d7a48ff00000000000000000000000000000000000000000000000006c50d75a251a34300000000000000000000000000000000000000000000329d2463940e2ac9b3bf",
          "blockHash": "0x959924a10ef9c52c7c1208efa0c424b2cf46100bce5299e56cef6f5bff34508a",
          "blockNumber": "0x2382719",
          "transactionHash": "0x7fa755de4a480ab72315942e8103c612a95ea308438a63c4c2f74cc363ce22e1",
          "transactionIndex": "0x7",
          "logIndex": "0x16",
          "removed": false
        }
      ],
      "status": "0x1",
      "logsBloom": "0x00000000000000000000000000000000004000000000000000000000000000000000000000000000000000000000000000008000000000000000000000200000000080000000000000000000000000800000000004000000000100000000004000000000000000000000000000000000000000000000000080000000000020000000200000000000000000000000000000000000000080008000000000000000220000000000000000000000000000000000000000000000000000000000004000000000000000000001000000000000000000000000000000100040000100000010000000000800000000000000000000000000000000000000000000100004",
      "type": "0x0",
      "effectiveGasPrice": "0x7f819a08"
    },
    {
      "transactionHash": "0x7206f4d550441caa0014898173806cdd2e6d64cd60e1b67440bd302071a183d1",
      "transactionIndex": "0x8",
      "blockHash": "0x959924a10ef9c52c7c1208efa0c424b2cf46100bce5299e56cef6f5bff34508a",
      "blockNumber": "0x2382719",
      "from": "0x7d6703218ab83D5255e4532101deB294eA1b9d27",
      "to": "0xa909FB9E10A54ABdBA7D8a808E9eDDc6431da5f2",
      "cumulativeGasUsed": "0x143fea",
      "gasUsed": "0xc951",
      "contractAddress": null,
      "logs": [
        {
          "address": "0xa909FB9E10A54ABdBA7D8a808E9eDDc6431da5f2",
          "topics": [
            "0xddf252ad1be2c89b69c2b068fc378daa952ba7f163c4a11628f55a4df523b3ef",
            "0x0000000000000000000000000000000000000000000000000000000000000000",
            "0x0000000000000000000000001f6a9bdc4aa1340896c177f1c46fd990de6949b0"
          ],
          "data": "0x00000000000000000000000000000000000004ee2d6d415b85acef8100000000",
          "blockHash": "0x959924a10ef9c52c7c1208efa0c424b2cf46100bce5299e56cef6f5bff34508a",
          "blockNumber": "0x2382719",
          "transactionHash": "0x7206f4d550441caa0014898173806cdd2e6d64cd60e1b67440bd302071a183d1",
          "transactionIndex": "0x8",
          "logIndex": "0x17",
          "removed": false
        },
        {
          "address": "0x0000000000000000000000000000000000001010",
          "topics": [
            "0x4dfe1bbbcf077ddc3e01291eea2d5c70c2b422b415d95645b9adcfd678cb1d63",
            "0x0000000000000000000000000000000000000000000000000000000000001010",
            "0x0000000000000000000000007d6703218ab83d5255e4532101deb294ea1b9d27",
            "0x000000000000000000000000be188d6641e8b680743a4815dfa0f6208038960f"
          ],
          "data": "0x0000000000000000000000000000000000000000000000000000644519e56f7800000000000000000000000000000000000000000000000006c50d75a24658c300000000000000000000000000000000000000000000329d2463940e2ac9b3bf00000000000000000000000000000000000000000000000006c4a9308860e94b00000000000000000000000000000000000000000000329d2463f85344af2337",
          "blockHash": "0x959924a10ef9c52c7c1208efa0c424b2cf46100bce5299e56cef6f5bff34508a",
          "blockNumber": "0x2382719",
          "transactionHash": "0x7206f4d550441caa0014898173806cdd2e6d64cd60e1b67440bd302071a183d1",
          "transactionIndex": "0x8",
          "logIndex": "0x18",
          "removed": false
        }
      ],
      "status": "0x1",
      "logsBloom": "0x00000000000000000000000000000000000000000000000000000100000000000000000000000000000000000000000000008000000000000000000000000000000080040000000000000008000000800000000004000000000100000000004000000000020000000000000000000800000000000000000080000010000020000000200000000000000000000000000000000000000080040000000000000000200000000000000000000000000000000000000000000000000000000000004000000002000000000001000000000000000000000000000000100040000020000000000000000800000000000000000000000000000000000000000000100004",
      "type": "0x0",
      "effectiveGasPrice": "0x7f819a08"
    },
    {
      "transactionHash": "0xe19b2915359862aec0c8d1e038189d3960681fc9a6d9f11328e19608dea1d686",
      "transactionIndex": "0x9",
      "blockHash": "0x959924a10ef9c52c7c1208efa0c424b2cf46100bce5299e56cef6f5bff34508a",
      "blockNumber": "0x2382719",
      "from": "0x7d6703218ab83D5255e4532101deB294eA1b9d27",
      "to": "0x427426A550f0292b1B6D8d506ec62b8E48a6e5F2",
      "cumulativeGasUsed": "0x15093b",
      "gasUsed": "0xc951",
      "contractAddress": null,
      "logs": [
        {
          "address": "0x427426A550f0292b1B6D8d506ec62b8E48a6e5F2",
          "topics": [
            "0xddf252ad1be2c89b69c2b068fc378daa952ba7f163c4a11628f55a4df523b3ef",
            "0x0000000000000000000000000000000000000000000000000000000000000000",
            "0x0000000000000000000000001f6a9bdc4aa1340896c177f1c46fd990de6949b0"
          ],
          "data": "0x00000000000000000000000000000000000004ee2d6d415b85acef8100000000",
          "blockHash": "0x959924a10ef9c52c7c1208efa0c424b2cf46100bce5299e56cef6f5bff34508a",
          "blockNumber": "0x2382719",
          "transactionHash": "0xe19b2915359862aec0c8d1e038189d3960681fc9a6d9f11328e19608dea1d686",
          "transactionIndex": "0x9",
          "logIndex": "0x19",
          "removed": false
        },
        {
          "address": "0x0000000000000000000000000000000000001010",
          "topics": [
            "0x4dfe1bbbcf077ddc3e01291eea2d5c70c2b422b415d95645b9adcfd678cb1d63",
            "0x0000000000000000000000000000000000000000000000000000000000001010",
            "0x0000000000000000000000007d6703218ab83d5255e4532101deb294ea1b9d27",
            "0x000000000000000000000000be188d6641e8b680743a4815dfa0f6208038960f"
          ],
          "data": "0x0000000000000000000000000000000000000000000000000000644519e56f7800000000000000000000000000000000000000000000000006c4a9308854543b00000000000000000000000000000000000000000000329d2463f85344af233700000000000000000000000000000000000000000000000006c444eb6e6ee4c300000000000000000000000000000000000000000000329d24645c985e9492af",
          "blockHash": "0x959924a10ef9c52c7c1208efa0c424b2cf46100bce5299e56cef6f5bff34508a",
          "blockNumber": "0x2382719",
          "transactionHash": "0xe19b2915359862aec0c8d1e038189d3960681fc9a6d9f11328e19608dea1d686",
          "transactionIndex": "0x9",
          "logIndex": "0x1a",
          "removed": false
        }
      ],
      "status": "0x1",
      "logsBloom": "0x00000000000000000100000000000000000000000000000080000000000000000000000000000000000000000000000000008000000000000000000000000000000080000000000000000008000000800000000004000000000100000000004000000000020000000000000000000800000000000000000080000010000020000000200000000000000000000000000000000000000080000000000000000000200000000000000000000000000000000000000000000000000000000000004000000002000000000001000000000000000000000000000000100040000020000000000000000800080000000000000000000000000000000000000000100004",
      "type": "0x0",
      "effectiveGasPrice": "0x7f819a08"
    },
    {
      "transactionHash": "0xe564d987c811ae3ae8e12f350d0b72c29f5ae155af4e524630bb2b0f36a89947",
      "transactionIndex": "0xa",
      "blockHash": "0x959924a10ef9c52c7c1208efa0c424b2cf46100bce5299e56cef6f5bff34508a",
      "blockNumber": "0x2382719",
      "from": "0x7d6703218ab83D5255e4532101deB294eA1b9d27",
      "to": "0x74b8693a87d0d739692325A685CD806271487D7D",
      "cumulativeGasUsed": "0x15d28c",
      "gasUsed": "0xc951",
      "contractAddress": null,
      "logs": [
        {
          "address": "0x74b8693a87d0d739692325A685CD806271487D7D",
          "topics": [
            "0xddf252ad1be2c89b69c2b068fc378daa952ba7f163c4a11628f55a4df523b3ef",
            "0x0000000000000000000000000000000000000000000000000000000000000000",
            "0x0000000000000000000000001f6a9bdc4aa1340896c177f1c46fd990de6949b0"
          ],
          "data": "0x00000000000000000000000000000000000004ee2d6d415b85acef8100000000",
          "blockHash": "0x959924a10ef9c52c7c1208efa0c424b2cf46100bce5299e56cef6f5bff34508a",
          "blockNumber": "0x2382719",
          "transactionHash": "0xe564d987c811ae3ae8e12f350d0b72c29f5ae155af4e524630bb2b0f36a89947",
          "transactionIndex": "0xa",
          "logIndex": "0x1b",
          "removed": false
        },
        {
          "address": "0x0000000000000000000000000000000000001010",
          "topics": [
            "0x4dfe1bbbcf077ddc3e01291eea2d5c70c2b422b415d95645b9adcfd678cb1d63",
            "0x0000000000000000000000000000000000000000000000000000000000001010",
            "0x0000000000000000000000007d6703218ab83d5255e4532101deb294ea1b9d27",
            "0x000000000000000000000000be188d6641e8b680743a4815dfa0f6208038960f"
          ],
          "data": "0x0000000000000000000000000000000000000000000000000000644519e56f7800000000000000000000000000000000000000000000000006c444eb6e624fb300000000000000000000000000000000000000000000329d24645c985e9492af00000000000000000000000000000000000000000000000006c3e0a6547ce03b00000000000000000000000000000000000000000000329d2464c0dd787a0227",
          "blockHash": "0x959924a10ef9c52c7c1208efa0c424b2cf46100bce5299e56cef6f5bff34508a",
          "blockNumber": "0x2382719",
          "transactionHash": "0xe564d987c811ae3ae8e12f350d0b72c29f5ae155af4e524630bb2b0f36a89947",
          "transactionIndex": "0xa",
          "logIndex": "0x1c",
          "removed": false
        }
      ],
      "status": "0x1",
      "logsBloom": "0x00000000000000000000000000000000004000000000000000000000000000000000000000000000000000000000000000008000000000000000000000000000000080000000000000000008000000800000000004000000000100000000004000000000020000000000000000000800000000000000000080000010000020000000200000000000000000000000000000000000000080008000000000000000200000000000000000000000000000000000000000000000000000000000004000000002000000000001000000000000000000000000000000100040000120000000000000000800000000000000000000000000000000000000000000100004",
      "type": "0x0",
      "effectiveGasPrice": "0x7f819a08"
    }
  ],
  "libraries": [],
  "pending": [],
  "path": "C:/Users/cesar/Documents/GitHub/offline-wallet/contracts/broadcast\\Bridge.s.sol\\80001\\run-latest.json",
  "returns": {},
  "timestamp": 1687635723,
  "chain": 80001,
  "multi": false,
  "commit": "b1ceca8"
}