{
  "transactions": [
    {
      "hash": "0x210bf1cdf959704f14444a64a8e7e285a2c6beb6a745d5fe63ba9678a94e4c5e",
      "transactionType": "CREATE",
      "contractName": "Bridge",
      "contractAddress": "0x42599F341C24eE4B66b2742C7Ff709fc00E5DaB7",
      "function": null,
      "arguments": [
        "[0xa909FB9E10A54ABdBA7D8a808E9eDDc6431da5f2, 0x427426A550f0292b1B6D8d506ec62b8E48a6e5F2, 0x74b8693a87d0d739692325A685CD806271487D7D]",
        "[1, 1900, 31000]",
        "0xCC737a94FecaeC165AbCf12dED095BB13F037685"
      ],
      "rpc": "https://polygon-mumbai.g.alchemy.com/v2/fJeVFG02xfcdxGUbOFwXYKPDVGuigwl_",
      "transaction": {
        "type": "0x00",
        "from": "0x7d6703218ab83d5255e4532101deb294ea1b9d27",
        "gas": "0x9d722",
        "value": "0x0",
        "data": "0x60a060405234801561001057600080fd5b506040516108c33803806108c383398101604081905261002f91610105565b828260005b600381101561009c5761008a838260038110610052576100526101ca565b6020020151838360038110610069576100696101ca565b60200201516001600160a01b03909116600090815260208190526040902055565b80610094816101e0565b915050610034565b5050506001600160a01b0316608052506102079050565b604051606081016001600160401b03811182821017156100e357634e487b7160e01b600052604160045260246000fd5b60405290565b80516001600160a01b038116811461010057600080fd5b919050565b600080600060e0848603121561011a57600080fd5b84601f85011261012957600080fd5b6101316100b3565b80606086018781111561014357600080fd5b865b8181101561016457610156816100e9565b845260209384019301610145565b5081955087607f88011261017757600080fd5b61017f6100b3565b925082915060c087018881111561019557600080fd5b5b808210156101b1578151845260209384019390910190610196565b8295506101bd816100e9565b9450505050509250925092565b634e487b7160e01b600052603260045260246000fd5b60006001820161020057634e487b7160e01b600052601160045260246000fd5b5060010190565b60805161069c610227600039600081816080015260de015261069c6000f3fe608060405234801561001057600080fd5b50600436106100365760003560e01c806356d5d4751461003b5780637c6c461914610050575b600080fd5b61004e6100493660046103f7565b610075565b005b61006361005e366004610496565b6100d9565b60405190815260200160405180910390f35b336001600160a01b037f000000000000000000000000000000000000000000000000000000000000000016146100aa57600080fd5b60008080806100bb85870187610521565b93509350935093506100cf848484846101d4565b5050505050505050565b6000807f00000000000000000000000000000000000000000000000000000000000000006001600160a01b031663fa31de018661011c876001600160a01b031690565b604080516001600160a01b03808f166020830152808e1692820192909252606081018c9052908816608082015260a0016040516020818303038152906040526040518463ffffffff1660e01b815260040161017993929190610574565b6020604051808303816000875af1158015610198573d6000803e3d6000fd5b505050506040513d601f19601f820116820180604052508101906101bc91906105d7565b90506101c8898761035f565b98975050505050505050565b6001600160a01b03841660009081526020819052604090205461023e5760405162461bcd60e51b815260206004820152601960248201527f496e70757420746f6b656e207072696365206e6f74207365740000000000000060448201526064015b60405180910390fd5b6001600160a01b0383166000908152602081905260409020546102a35760405162461bcd60e51b815260206004820152601a60248201527f4f757470757420746f6b656e207072696365206e6f74207365740000000000006044820152606401610235565b6001600160a01b0380851660009081526020819052604080822054928616825281205490816102d284876105f0565b6102dc919061061b565b60405163a9059cbb60e01b81526001600160a01b03868116600483015260248201839052919250879182169063a9059cbb906044016020604051808303816000875af1158015610330573d6000803e3d6000fd5b505050506040513d601f19601f82011682018060405250810190610354919061063d565b505050505050505050565b6040516323b872dd60e01b81523360048201523060248201526044810182905282906001600160a01b038216906323b872dd906064016020604051808303816000875af11580156103b4573d6000803e3d6000fd5b505050506040513d601f19601f820116820180604052508101906103d8919061063d565b50505050565b803563ffffffff811681146103f257600080fd5b919050565b6000806000806060858703121561040d57600080fd5b610416856103de565b935060208501359250604085013567ffffffffffffffff8082111561043a57600080fd5b818701915087601f83011261044e57600080fd5b81358181111561045d57600080fd5b88602082850101111561046f57600080fd5b95989497505060200194505050565b6001600160a01b038116811461049357600080fd5b50565b600080600080600080600060e0888a0312156104b157600080fd5b87356104bc8161047e565b965060208801356104cc8161047e565b955060408801356104dc8161047e565b9450606088013593506104f1608089016103de565b925060a08801356105018161047e565b915060c08801356105118161047e565b8091505092959891949750929550565b6000806000806080858703121561053757600080fd5b84356105428161047e565b935060208501356105528161047e565b92506040850135915060608501356105698161047e565b939692955090935050565b63ffffffff8416815260006020848184015260606040840152835180606085015260005b818110156105b457858101830151858201608001528201610598565b506000608082860101526080601f19601f83011685010192505050949350505050565b6000602082840312156105e957600080fd5b5051919050565b808202811582820484141761061557634e487b7160e01b600052601160045260246000fd5b92915050565b60008261063857634e487b7160e01b600052601260045260246000fd5b500490565b60006020828403121561064f57600080fd5b8151801515811461065f57600080fd5b939250505056fea2646970667358221220d1e32e1cb903d9c83bef6699ac41ceee059e85186db39e8f962fd9ee63abbe9164736f6c63430008120033000000000000000000000000a909fb9e10a54abdba7d8a808e9eddc6431da5f2000000000000000000000000427426a550f0292b1b6d8d506ec62b8e48a6e5f200000000000000000000000074b8693a87d0d739692325a685cd806271487d7d0000000000000000000000000000000000000000000000000000000000000001000000000000000000000000000000000000000000000000000000000000076c0000000000000000000000000000000000000000000000000000000000007918000000000000000000000000cc737a94fecaec165abcf12ded095bb13f037685",
        "nonce": "0x19"
      },
      "additionalContracts": []
    },
    {
      "hash": "0x1dcbdfb3396958137e0d3942aceda41e452818882f8befb9dca0b290ed297db2",
      "transactionType": "CALL",
      "contractName": "MyToken",
      "contractAddress": "0xa909FB9E10A54ABdBA7D8a808E9eDDc6431da5f2",
      "function": "approve(address,uint256):(bool)",
      "arguments": [
        "0x42599F341C24eE4B66b2742C7Ff709fc00E5DaB7",
        "100000000000000"
      ],
      "rpc": "https://polygon-mumbai.g.alchemy.com/v2/fJeVFG02xfcdxGUbOFwXYKPDVGuigwl_",
      "transaction": {
        "type": "0x00",
        "from": "0x7d6703218ab83d5255e4532101deb294ea1b9d27",
        "to": "0xa909fb9e10a54abdba7d8a808e9eddc6431da5f2",
        "gas": "0xf976",
        "value": "0x0",
        "data": "0x095ea7b300000000000000000000000042599f341c24ee4b66b2742c7ff709fc00e5dab700000000000000000000000000000000000000000000000000005af3107a4000",
        "nonce": "0x1a"
      },
      "additionalContracts": []
    },
    {
      "hash": "0x7703a40e4b758b3537fd9b862413e6771b697e8523bcf1a5c7a6434bb5b67f3c",
      "transactionType": "CALL",
      "contractName": "MyToken",
      "contractAddress": "0x427426A550f0292b1B6D8d506ec62b8E48a6e5F2",
      "function": "approve(address,uint256):(bool)",
      "arguments": [
        "0x42599F341C24eE4B66b2742C7Ff709fc00E5DaB7",
        "100000000000000"
      ],
      "rpc": "https://polygon-mumbai.g.alchemy.com/v2/fJeVFG02xfcdxGUbOFwXYKPDVGuigwl_",
      "transaction": {
        "type": "0x00",
        "from": "0x7d6703218ab83d5255e4532101deb294ea1b9d27",
        "to": "0x427426a550f0292b1b6d8d506ec62b8e48a6e5f2",
        "gas": "0xf976",
        "value": "0x0",
        "data": "0x095ea7b300000000000000000000000042599f341c24ee4b66b2742c7ff709fc00e5dab700000000000000000000000000000000000000000000000000005af3107a4000",
        "nonce": "0x1b"
      },
      "additionalContracts": []
    },
    {
      "hash": "0xb72dd014b2a17070d7ddbb657636ab158ddda7a53caec74c885b089055fc8cea",
      "transactionType": "CALL",
      "contractName": "MyToken",
      "contractAddress": "0x74b8693a87d0d739692325A685CD806271487D7D",
      "function": "approve(address,uint256):(bool)",
      "arguments": [
        "0x42599F341C24eE4B66b2742C7Ff709fc00E5DaB7",
        "100000000000000"
      ],
      "rpc": "https://polygon-mumbai.g.alchemy.com/v2/fJeVFG02xfcdxGUbOFwXYKPDVGuigwl_",
      "transaction": {
        "type": "0x00",
        "from": "0x7d6703218ab83d5255e4532101deb294ea1b9d27",
        "to": "0x74b8693a87d0d739692325a685cd806271487d7d",
        "gas": "0xf976",
        "value": "0x0",
        "data": "0x095ea7b300000000000000000000000042599f341c24ee4b66b2742c7ff709fc00e5dab700000000000000000000000000000000000000000000000000005af3107a4000",
        "nonce": "0x1c"
      },
      "additionalContracts": []
    },
    {
      "hash": "0x4e6dd984ecf8a322531d1c1b9f7101be39a5953233b61d4c25e6ac70e64ce9dd",
      "transactionType": "CALL",
      "contractName": "MyToken",
      "contractAddress": "0xa909FB9E10A54ABdBA7D8a808E9eDDc6431da5f2",
      "function": "mint(address,uint256)",
      "arguments": [
        "0x42599F341C24eE4B66b2742C7Ff709fc00E5DaB7",
        "100000000000000"
      ],
      "rpc": "https://polygon-mumbai.g.alchemy.com/v2/fJeVFG02xfcdxGUbOFwXYKPDVGuigwl_",
      "transaction": {
        "type": "0x00",
        "from": "0x7d6703218ab83d5255e4532101deb294ea1b9d27",
        "to": "0xa909fb9e10a54abdba7d8a808e9eddc6431da5f2",
        "gas": "0x11600",
        "value": "0x0",
        "data": "0x40c10f1900000000000000000000000042599f341c24ee4b66b2742c7ff709fc00e5dab700000000000000000000000000000000000000000000000000005af3107a4000",
        "nonce": "0x1d"
      },
      "additionalContracts": []
    },
    {
      "hash": "0xa50b8940269d48975a56285904a70a84bec6c830705033f144b66f651aa012e4",
      "transactionType": "CALL",
      "contractName": "MyToken",
      "contractAddress": "0x427426A550f0292b1B6D8d506ec62b8E48a6e5F2",
      "function": "mint(address,uint256)",
      "arguments": [
        "0x42599F341C24eE4B66b2742C7Ff709fc00E5DaB7",
        "100000000000000"
      ],
      "rpc": "https://polygon-mumbai.g.alchemy.com/v2/fJeVFG02xfcdxGUbOFwXYKPDVGuigwl_",
      "transaction": {
        "type": "0x00",
        "from": "0x7d6703218ab83d5255e4532101deb294ea1b9d27",
        "to": "0x427426a550f0292b1b6d8d506ec62b8e48a6e5f2",
        "gas": "0x11600",
        "value": "0x0",
        "data": "0x40c10f1900000000000000000000000042599f341c24ee4b66b2742c7ff709fc00e5dab700000000000000000000000000000000000000000000000000005af3107a4000",
        "nonce": "0x1e"
      },
      "additionalContracts": []
    },
    {
      "hash": "0x709b27e0fe2cd281ab3c8f381eba0621f5f4ed22febf3ba01165e1cfd91420f4",
      "transactionType": "CALL",
      "contractName": "MyToken",
      "contractAddress": "0x74b8693a87d0d739692325A685CD806271487D7D",
      "function": "mint(address,uint256)",
      "arguments": [
        "0x42599F341C24eE4B66b2742C7Ff709fc00E5DaB7",
        "100000000000000"
      ],
      "rpc": "https://polygon-mumbai.g.alchemy.com/v2/fJeVFG02xfcdxGUbOFwXYKPDVGuigwl_",
      "transaction": {
        "type": "0x00",
        "from": "0x7d6703218ab83d5255e4532101deb294ea1b9d27",
        "to": "0x74b8693a87d0d739692325a685cd806271487d7d",
        "gas": "0x11600",
        "value": "0x0",
        "data": "0x40c10f1900000000000000000000000042599f341c24ee4b66b2742c7ff709fc00e5dab700000000000000000000000000000000000000000000000000005af3107a4000",
        "nonce": "0x1f"
      },
      "additionalContracts": []
    }
  ],
  "receipts": [],
  "libraries": [],
  "pending": [
    "0x210bf1cdf959704f14444a64a8e7e285a2c6beb6a745d5fe63ba9678a94e4c5e",
    "0x1dcbdfb3396958137e0d3942aceda41e452818882f8befb9dca0b290ed297db2",
    "0x7703a40e4b758b3537fd9b862413e6771b697e8523bcf1a5c7a6434bb5b67f3c",
    "0xb72dd014b2a17070d7ddbb657636ab158ddda7a53caec74c885b089055fc8cea",
    "0x4e6dd984ecf8a322531d1c1b9f7101be39a5953233b61d4c25e6ac70e64ce9dd",
    "0xa50b8940269d48975a56285904a70a84bec6c830705033f144b66f651aa012e4",
    "0x709b27e0fe2cd281ab3c8f381eba0621f5f4ed22febf3ba01165e1cfd91420f4"
  ],
  "path": "C:/Users/cesar/Documents/GitHub/offline-wallet/contracts/broadcast\\Bridge.s.sol\\80001\\run-latest.json",
  "returns": {},
  "timestamp": 1687636327,
  "chain": 80001,
  "multi": false,
  "commit": "b1ceca8"
}