{
  "transactions": [
    {
      "hash": "0x97b1bd0402f3f3b0b024cb1199878571ee0abf53dbe43261aea6647f4823a804",
      "transactionType": "CREATE",
      "contractName": "Bridge",
      "contractAddress": "0xFE11b6De0B4250e07feAE40b821EC85c910Ab26B",
      "function": null,
      "arguments": [
        "[0xa909FB9E10A54ABdBA7D8a808E9eDDc6431da5f2, 0x427426A550f0292b1B6D8d506ec62b8E48a6e5F2, 0x74b8693a87d0d739692325A685CD806271487D7D]",
        "[1, 1900, 31000]",
        "0xCC737a94FecaeC165AbCf12dED095BB13F037685"
      ],
      "rpc": "https://polygon-mumbai.g.alchemy.com/v2/fJeVFG02xfcdxGUbOFwXYKPDVGuigwl_",
      "transaction": {
        "type": "0x00",
        "from": "0x7d6703218ab83d5255e4532101deb294ea1b9d27",
        "gas": "0xa4d74",
        "value": "0x0",
        "data": "0x60a0604052600180546001600160a01b031916738f9c3888bfc8a5b25aed115a82ecbb788b196d2a17905534801561003657600080fd5b506040516108ec3803806108ec8339810160408190526100559161012b565b828260005b60038110156100c2576100b0838260038110610078576100786101f0565b602002015183836003811061008f5761008f6101f0565b60200201516001600160a01b03909116600090815260208190526040902055565b806100ba81610206565b91505061005a565b5050506001600160a01b03166080525061022d9050565b604051606081016001600160401b038111828210171561010957634e487b7160e01b600052604160045260246000fd5b60405290565b80516001600160a01b038116811461012657600080fd5b919050565b600080600060e0848603121561014057600080fd5b84601f85011261014f57600080fd5b6101576100d9565b80606086018781111561016957600080fd5b865b8181101561018a5761017c8161010f565b84526020938401930161016b565b5081955087607f88011261019d57600080fd5b6101a56100d9565b925082915060c08701888111156101bb57600080fd5b5b808210156101d75781518452602093840193909101906101bc565b8295506101e38161010f565b9450505050509250925092565b634e487b7160e01b600052603260045260246000fd5b60006001820161022657634e487b7160e01b600052601160045260246000fd5b5060010190565b60805161069e61024e6000396000818160800152610116015261069e6000f3fe6080604052600436106100295760003560e01c806356d5d4751461002e5780637c6c461914610050575b600080fd5b34801561003a57600080fd5b5061004e61004936600461040a565b610075565b005b61006361005e3660046104a9565b6100d4565b60405190815260200160405180910390f35b336001600160a01b037f000000000000000000000000000000000000000000000000000000000000000016146100aa57600080fd5b600080806100ba84860186610534565b9250925092506100cb83838361028c565b50505050505050565b6001600160a01b038088166000908152602081905260408082205492891682528120549091908282610106838a610576565b61011091906105a1565b905060007f00000000000000000000000000000000000000000000000000000000000000006001600160a01b031663fa31de01896101548a6001600160a01b031690565b8d8d8b604051602001610187939291906001600160a01b0393841681526020810192909252909116604082015260600190565b6040516020818303038152906040526040518463ffffffff1660e01b81526004016101b4939291906105c3565b6020604051808303816000875af11580156101d3573d6000803e3d6000fd5b505050506040513d601f19601f820116820180604052508101906101f79190610626565b600154604051630237e58360e31b81526004810183905263ffffffff8b1660248201526207a12060448201523360648201529192506001600160a01b0316906311bf2c189034906084016000604051808303818588803b15801561025a57600080fd5b505af115801561026e573d6000803e3d6000fd5b505050505061027d8c83610372565b9b9a5050505050505050505050565b6001600160a01b0383166000908152602081905260409020546102f55760405162461bcd60e51b815260206004820152601a60248201527f4f757470757420746f6b656e207072696365206e6f7420736574000000000000604482015260640160405180910390fd5b60405163a9059cbb60e01b81526001600160a01b0382811660048301526024820184905284919082169063a9059cbb906044016020604051808303816000875af1158015610347573d6000803e3d6000fd5b505050506040513d601f19601f8201168201806040525081019061036b919061063f565b5050505050565b6040516323b872dd60e01b81523360048201523060248201526044810182905282906001600160a01b038216906323b872dd906064016020604051808303816000875af11580156103c7573d6000803e3d6000fd5b505050506040513d601f19601f820116820180604052508101906103eb919061063f565b50505050565b803563ffffffff8116811461040557600080fd5b919050565b6000806000806060858703121561042057600080fd5b610429856103f1565b935060208501359250604085013567ffffffffffffffff8082111561044d57600080fd5b818701915087601f83011261046157600080fd5b81358181111561047057600080fd5b88602082850101111561048257600080fd5b95989497505060200194505050565b6001600160a01b03811681146104a657600080fd5b50565b600080600080600080600060e0888a0312156104c457600080fd5b87356104cf81610491565b965060208801356104df81610491565b955060408801356104ef81610491565b945060608801359350610504608089016103f1565b925060a088013561051481610491565b915060c088013561052481610491565b8091505092959891949750929550565b60008060006060848603121561054957600080fd5b833561055481610491565b925060208401359150604084013561056b81610491565b809150509250925092565b808202811582820484141761059b57634e487b7160e01b600052601160045260246000fd5b92915050565b6000826105be57634e487b7160e01b600052601260045260246000fd5b500490565b63ffffffff8416815260006020848184015260606040840152835180606085015260005b81811015610603578581018301518582016080015282016105e7565b506000608082860101526080601f19601f83011685010192505050949350505050565b60006020828403121561063857600080fd5b5051919050565b60006020828403121561065157600080fd5b8151801515811461066157600080fd5b939250505056fea2646970667358221220ff7f3c92b07cba4b3b6c956490302cdc347c28b7bd2ef5a73cfcc4655b1e677d64736f6c63430008120033000000000000000000000000a909fb9e10a54abdba7d8a808e9eddc6431da5f2000000000000000000000000427426a550f0292b1b6d8d506ec62b8e48a6e5f200000000000000000000000074b8693a87d0d739692325a685cd806271487d7d0000000000000000000000000000000000000000000000000000000000000001000000000000000000000000000000000000000000000000000000000000076c0000000000000000000000000000000000000000000000000000000000007918000000000000000000000000cc737a94fecaec165abcf12ded095bb13f037685",
        "nonce": "0x35"
      },
      "additionalContracts": []
    },
    {
      "hash": "0xd012e45c2b12a8fe4e0a952fbb5da158f7777a685f09e852c91994489951bca1",
      "transactionType": "CALL",
      "contractName": "MyToken",
      "contractAddress": "0xa909FB9E10A54ABdBA7D8a808E9eDDc6431da5f2",
      "function": "approve(address,uint256):(bool)",
      "arguments": [
        "0xFE11b6De0B4250e07feAE40b821EC85c910Ab26B",
        "100000000000000000000"
      ],
      "rpc": "https://polygon-mumbai.g.alchemy.com/v2/fJeVFG02xfcdxGUbOFwXYKPDVGuigwl_",
      "transaction": {
        "type": "0x00",
        "from": "0x7d6703218ab83d5255e4532101deb294ea1b9d27",
        "to": "0xa909fb9e10a54abdba7d8a808e9eddc6431da5f2",
        "gas": "0xf9a9",
        "value": "0x0",
        "data": "0x095ea7b3000000000000000000000000fe11b6de0b4250e07feae40b821ec85c910ab26b0000000000000000000000000000000000000000000000056bc75e2d63100000",
        "nonce": "0x36"
      },
      "additionalContracts": []
    },
    {
      "hash": "0xaa3beca9ac6c3673c29ffed6cc4db832db7f1e1564f7b849cca7539dc1e1a152",
      "transactionType": "CALL",
      "contractName": "MyToken",
      "contractAddress": "0x427426A550f0292b1B6D8d506ec62b8E48a6e5F2",
      "function": "approve(address,uint256):(bool)",
      "arguments": [
        "0xFE11b6De0B4250e07feAE40b821EC85c910Ab26B",
        "100000000000000000000"
      ],
      "rpc": "https://polygon-mumbai.g.alchemy.com/v2/fJeVFG02xfcdxGUbOFwXYKPDVGuigwl_",
      "transaction": {
        "type": "0x00",
        "from": "0x7d6703218ab83d5255e4532101deb294ea1b9d27",
        "to": "0x427426a550f0292b1b6d8d506ec62b8e48a6e5f2",
        "gas": "0xf9a9",
        "value": "0x0",
        "data": "0x095ea7b3000000000000000000000000fe11b6de0b4250e07feae40b821ec85c910ab26b0000000000000000000000000000000000000000000000056bc75e2d63100000",
        "nonce": "0x37"
      },
      "additionalContracts": []
    },
    {
      "hash": "0xf26a5b5f0c1854746a1ec6d928c58104b5d78bf28208ba3484e6ec58a9d5ae96",
      "transactionType": "CALL",
      "contractName": "MyToken",
      "contractAddress": "0x74b8693a87d0d739692325A685CD806271487D7D",
      "function": "approve(address,uint256):(bool)",
      "arguments": [
        "0xFE11b6De0B4250e07feAE40b821EC85c910Ab26B",
        "100000000000000000000"
      ],
      "rpc": "https://polygon-mumbai.g.alchemy.com/v2/fJeVFG02xfcdxGUbOFwXYKPDVGuigwl_",
      "transaction": {
        "type": "0x00",
        "from": "0x7d6703218ab83d5255e4532101deb294ea1b9d27",
        "to": "0x74b8693a87d0d739692325a685cd806271487d7d",
        "gas": "0xf9a9",
        "value": "0x0",
        "data": "0x095ea7b3000000000000000000000000fe11b6de0b4250e07feae40b821ec85c910ab26b0000000000000000000000000000000000000000000000056bc75e2d63100000",
        "nonce": "0x38"
      },
      "additionalContracts": []
    },
    {
      "hash": "0x687294e0029ccb37a0caa6e7e7a1d795b6b453c8a9ec4238f1333cd29a418f56",
      "transactionType": "CALL",
      "contractName": "MyToken",
      "contractAddress": "0xa909FB9E10A54ABdBA7D8a808E9eDDc6431da5f2",
      "function": "mint(address,uint256)",
      "arguments": [
        "0xFE11b6De0B4250e07feAE40b821EC85c910Ab26B",
        "100000000000000"
      ],
      "rpc": "https://polygon-mumbai.g.alchemy.com/v2/fJeVFG02xfcdxGUbOFwXYKPDVGuigwl_",
      "transaction": {
        "type": "0x00",
        "from": "0x7d6703218ab83d5255e4532101deb294ea1b9d27",
        "to": "0xa909fb9e10a54abdba7d8a808e9eddc6431da5f2",
        "gas": "0x1266c",
        "value": "0x0",
        "data": "0x40c10f19000000000000000000000000fe11b6de0b4250e07feae40b821ec85c910ab26b00000000000000000000000000000000000000000000000000005af3107a4000",
        "nonce": "0x39"
      },
      "additionalContracts": []
    },
    {
      "hash": "0xf634fe0aa2b0c8bcfab9f44050cb1fc761043523d86562933f274a0d376110be",
      "transactionType": "CALL",
      "contractName": "MyToken",
      "contractAddress": "0x427426A550f0292b1B6D8d506ec62b8E48a6e5F2",
      "function": "mint(address,uint256)",
      "arguments": [
        "0xFE11b6De0B4250e07feAE40b821EC85c910Ab26B",
        "100000000000000"
      ],
      "rpc": "https://polygon-mumbai.g.alchemy.com/v2/fJeVFG02xfcdxGUbOFwXYKPDVGuigwl_",
      "transaction": {
        "type": "0x00",
        "from": "0x7d6703218ab83d5255e4532101deb294ea1b9d27",
        "to": "0x427426a550f0292b1b6d8d506ec62b8e48a6e5f2",
        "gas": "0x1266c",
        "value": "0x0",
        "data": "0x40c10f19000000000000000000000000fe11b6de0b4250e07feae40b821ec85c910ab26b00000000000000000000000000000000000000000000000000005af3107a4000",
        "nonce": "0x3a"
      },
      "additionalContracts": []
    },
    {
      "hash": "0x49a8133db9372f15918d0d77a7b88a60ae9cf99a46abb3b63e316b49f024db56",
      "transactionType": "CALL",
      "contractName": "MyToken",
      "contractAddress": "0x74b8693a87d0d739692325A685CD806271487D7D",
      "function": "mint(address,uint256)",
      "arguments": [
        "0xFE11b6De0B4250e07feAE40b821EC85c910Ab26B",
        "100000000000000"
      ],
      "rpc": "https://polygon-mumbai.g.alchemy.com/v2/fJeVFG02xfcdxGUbOFwXYKPDVGuigwl_",
      "transaction": {
        "type": "0x00",
        "from": "0x7d6703218ab83d5255e4532101deb294ea1b9d27",
        "to": "0x74b8693a87d0d739692325a685cd806271487d7d",
        "gas": "0x1266c",
        "value": "0x0",
        "data": "0x40c10f19000000000000000000000000fe11b6de0b4250e07feae40b821ec85c910ab26b00000000000000000000000000000000000000000000000000005af3107a4000",
        "nonce": "0x3b"
      },
      "additionalContracts": []
    }
  ],
  "receipts": [
    {
      "transactionHash": "0x97b1bd0402f3f3b0b024cb1199878571ee0abf53dbe43261aea6647f4823a804",
      "transactionIndex": "0x6",
      "blockHash": "0x2b7d7e2f3c7c2285ad200ebace4faa822fcdea3d0457e765b89fef440595f77e",
      "blockNumber": "0x2383038",
      "from": "0x7d6703218ab83D5255e4532101deB294eA1b9d27",
      "to": null,
      "cumulativeGasUsed": "0x10de47",
      "gasUsed": "0x7ecd0",
      "contractAddress": "0xFE11b6De0B4250e07feAE40b821EC85c910Ab26B",
      "logs": [
        {
          "address": "0x0000000000000000000000000000000000001010",
          "topics": [
            "0x4dfe1bbbcf077ddc3e01291eea2d5c70c2b422b415d95645b9adcfd678cb1d63",
            "0x0000000000000000000000000000000000000000000000000000000000001010",
            "0x0000000000000000000000007d6703218ab83d5255e4532101deb294ea1b9d27",
            "0x000000000000000000000000f903ba9e006193c1527bfbe65fe2123704ea3f99"
          ],
          "data": "0x0000000000000000000000000000000000000000000000000004797f1f2893f000000000000000000000000000000000000000000000000006b15ec3478d3433000000000000000000000000000000000000000000000f77c07bb57f5c1d7d9100000000000000000000000000000000000000000000000006ace5442864a043000000000000000000000000000000000000000000000f77c0802efe7b461181",
          "blockHash": "0x2b7d7e2f3c7c2285ad200ebace4faa822fcdea3d0457e765b89fef440595f77e",
          "blockNumber": "0x2383038",
          "transactionHash": "0x97b1bd0402f3f3b0b024cb1199878571ee0abf53dbe43261aea6647f4823a804",
          "transactionIndex": "0x6",
          "logIndex": "0x12",
          "removed": false
        }
      ],
      "status": "0x1",
      "logsBloom": "0x00000000000000000000000000000000000000000000000000000010000000000000000000000020000000000000000000008000000000000000000000000000000080000000000000000000000000800000000004000000000100000000000000000000000000000000000000000000000000000000000080000000000020000000000000000000000000000000000000000000000000000000000000000000200000000000000000000000000000000000000000000000000000000000004000000000000000000001000000000000000000000000000000100000001000000000000000000000000000000000000000000000000000000000000000100000",
      "type": "0x0",
      "effectiveGasPrice": "0x908a904b"
    },
    {
      "transactionHash": "0xd012e45c2b12a8fe4e0a952fbb5da158f7777a685f09e852c91994489951bca1",
      "transactionIndex": "0x7",
      "blockHash": "0x2b7d7e2f3c7c2285ad200ebace4faa822fcdea3d0457e765b89fef440595f77e",
      "blockNumber": "0x2383038",
      "from": "0x7d6703218ab83D5255e4532101deB294eA1b9d27",
      "to": "0xa909FB9E10A54ABdBA7D8a808E9eDDc6431da5f2",
      "cumulativeGasUsed": "0x119307",
      "gasUsed": "0xb4c0",
      "contractAddress": null,
      "logs": [
        {
          "address": "0xa909FB9E10A54ABdBA7D8a808E9eDDc6431da5f2",
          "topics": [
            "0x8c5be1e5ebec7d5bd14f71427d1e84f3dd0314c0f7b2291e5b200ac8c7c3b925",
            "0x0000000000000000000000007d6703218ab83d5255e4532101deb294ea1b9d27",
            "0x000000000000000000000000fe11b6de0b4250e07feae40b821ec85c910ab26b"
          ],
          "data": "0x0000000000000000000000000000000000000000000000056bc75e2d63100000",
          "blockHash": "0x2b7d7e2f3c7c2285ad200ebace4faa822fcdea3d0457e765b89fef440595f77e",
          "blockNumber": "0x2383038",
          "transactionHash": "0xd012e45c2b12a8fe4e0a952fbb5da158f7777a685f09e852c91994489951bca1",
          "transactionIndex": "0x7",
          "logIndex": "0x13",
          "removed": false
        },
        {
          "address": "0x0000000000000000000000000000000000001010",
          "topics": [
            "0x4dfe1bbbcf077ddc3e01291eea2d5c70c2b422b415d95645b9adcfd678cb1d63",
            "0x0000000000000000000000000000000000000000000000000000000000001010",
            "0x0000000000000000000000007d6703218ab83d5255e4532101deb294ea1b9d27",
            "0x000000000000000000000000f903ba9e006193c1527bfbe65fe2123704ea3f99"
          ],
          "data": "0x0000000000000000000000000000000000000000000000000000660dd555a84000000000000000000000000000000000000000000000000006ace54427e5d343000000000000000000000000000000000000000000000f77c0802efe7b46118100000000000000000000000000000000000000000000000006ac7f3652902b03000000000000000000000000000000000000000000000f77c080950c509bb9c1",
          "blockHash": "0x2b7d7e2f3c7c2285ad200ebace4faa822fcdea3d0457e765b89fef440595f77e",
          "blockNumber": "0x2383038",
          "transactionHash": "0xd012e45c2b12a8fe4e0a952fbb5da158f7777a685f09e852c91994489951bca1",
          "transactionIndex": "0x7",
          "logIndex": "0x14",
          "removed": false
        }
      ],
      "status": "0x1",
      "logsBloom": "0x00000000000000000000000000000000100000000000000000000110000000000000000000000020000000000000000000008000000000000000000000200000000080040000000000000000000000800000000004000000000100000000000000000000000000000000000000000000000000000000000080000000000020000000000000000000000000000000000000000000080000040000000000000000220000000000000000000000000000000000000000000000000000000000004000000000000000000001000000000000000000000000000000100000001000000010000000000000000000000200000000000000000000000000000000100000",
      "type": "0x0",
      "effectiveGasPrice": "0x908a904b"
    },
    {
      "transactionHash": "0xaa3beca9ac6c3673c29ffed6cc4db832db7f1e1564f7b849cca7539dc1e1a152",
      "transactionIndex": "0x8",
      "blockHash": "0x2b7d7e2f3c7c2285ad200ebace4faa822fcdea3d0457e765b89fef440595f77e",
      "blockNumber": "0x2383038",
      "from": "0x7d6703218ab83D5255e4532101deB294eA1b9d27",
      "to": "0x427426A550f0292b1B6D8d506ec62b8E48a6e5F2",
      "cumulativeGasUsed": "0x1247c7",
      "gasUsed": "0xb4c0",
      "contractAddress": null,
      "logs": [
        {
          "address": "0x427426A550f0292b1B6D8d506ec62b8E48a6e5F2",
          "topics": [
            "0x8c5be1e5ebec7d5bd14f71427d1e84f3dd0314c0f7b2291e5b200ac8c7c3b925",
            "0x0000000000000000000000007d6703218ab83d5255e4532101deb294ea1b9d27",
            "0x000000000000000000000000fe11b6de0b4250e07feae40b821ec85c910ab26b"
          ],
          "data": "0x0000000000000000000000000000000000000000000000056bc75e2d63100000",
          "blockHash": "0x2b7d7e2f3c7c2285ad200ebace4faa822fcdea3d0457e765b89fef440595f77e",
          "blockNumber": "0x2383038",
          "transactionHash": "0xaa3beca9ac6c3673c29ffed6cc4db832db7f1e1564f7b849cca7539dc1e1a152",
          "transactionIndex": "0x8",
          "logIndex": "0x15",
          "removed": false
        },
        {
          "address": "0x0000000000000000000000000000000000001010",
          "topics": [
            "0x4dfe1bbbcf077ddc3e01291eea2d5c70c2b422b415d95645b9adcfd678cb1d63",
            "0x0000000000000000000000000000000000000000000000000000000000001010",
            "0x0000000000000000000000007d6703218ab83d5255e4532101deb294ea1b9d27",
            "0x000000000000000000000000f903ba9e006193c1527bfbe65fe2123704ea3f99"
          ],
          "data": "0x0000000000000000000000000000000000000000000000000000660dd555a84000000000000000000000000000000000000000000000000006ac7f365284df03000000000000000000000000000000000000000000000f77c080950c509bb9c100000000000000000000000000000000000000000000000006ac19287d2f36c3000000000000000000000000000000000000000000000f77c080fb1a25f16201",
          "blockHash": "0x2b7d7e2f3c7c2285ad200ebace4faa822fcdea3d0457e765b89fef440595f77e",
          "blockNumber": "0x2383038",
          "transactionHash": "0xaa3beca9ac6c3673c29ffed6cc4db832db7f1e1564f7b849cca7539dc1e1a152",
          "transactionIndex": "0x8",
          "logIndex": "0x16",
          "removed": false
        }
      ],
      "status": "0x1",
      "logsBloom": "0x00000000000000000100000000000000100000000000000080000010000000000000000000000020000000000000000000008000000000000000000000200000000080000000000000000000000000800000000004000000000100000000000000000000000000000000000000000000000000000000000080000000000020000000000000000000000000000000000000000000080000000000000000000000220000000000000000000000000000000000000000000000000000000000004000000000000000000001000000000000000000000000000000100000001000000010000000000000080000000200000000000000000000000000000000100000",
      "type": "0x0",
      "effectiveGasPrice": "0x908a904b"
    },
    {
      "transactionHash": "0xf26a5b5f0c1854746a1ec6d928c58104b5d78bf28208ba3484e6ec58a9d5ae96",
      "transactionIndex": "0x9",
      "blockHash": "0x2b7d7e2f3c7c2285ad200ebace4faa822fcdea3d0457e765b89fef440595f77e",
      "blockNumber": "0x2383038",
      "from": "0x7d6703218ab83D5255e4532101deB294eA1b9d27",
      "to": "0x74b8693a87d0d739692325A685CD806271487D7D",
      "cumulativeGasUsed": "0x12fc87",
      "gasUsed": "0xb4c0",
      "contractAddress": null,
      "logs": [
        {
          "address": "0x74b8693a87d0d739692325A685CD806271487D7D",
          "topics": [
            "0x8c5be1e5ebec7d5bd14f71427d1e84f3dd0314c0f7b2291e5b200ac8c7c3b925",
            "0x0000000000000000000000007d6703218ab83d5255e4532101deb294ea1b9d27",
            "0x000000000000000000000000fe11b6de0b4250e07feae40b821ec85c910ab26b"
          ],
          "data": "0x0000000000000000000000000000000000000000000000056bc75e2d63100000",
          "blockHash": "0x2b7d7e2f3c7c2285ad200ebace4faa822fcdea3d0457e765b89fef440595f77e",
          "blockNumber": "0x2383038",
          "transactionHash": "0xf26a5b5f0c1854746a1ec6d928c58104b5d78bf28208ba3484e6ec58a9d5ae96",
          "transactionIndex": "0x9",
          "logIndex": "0x17",
          "removed": false
        },
        {
          "address": "0x0000000000000000000000000000000000001010",
          "topics": [
            "0x4dfe1bbbcf077ddc3e01291eea2d5c70c2b422b415d95645b9adcfd678cb1d63",
            "0x0000000000000000000000000000000000000000000000000000000000001010",
            "0x0000000000000000000000007d6703218ab83d5255e4532101deb294ea1b9d27",
            "0x000000000000000000000000f903ba9e006193c1527bfbe65fe2123704ea3f99"
          ],
          "data": "0x0000000000000000000000000000000000000000000000000000660dd555a84000000000000000000000000000000000000000000000000006ac19287d23eac3000000000000000000000000000000000000000000000f77c080fb1a25f1620100000000000000000000000000000000000000000000000006abb31aa7ce4283000000000000000000000000000000000000000000000f77c0816127fb470a41",
          "blockHash": "0x2b7d7e2f3c7c2285ad200ebace4faa822fcdea3d0457e765b89fef440595f77e",
          "blockNumber": "0x2383038",
          "transactionHash": "0xf26a5b5f0c1854746a1ec6d928c58104b5d78bf28208ba3484e6ec58a9d5ae96",
          "transactionIndex": "0x9",
          "logIndex": "0x18",
          "removed": false
        }
      ],
      "status": "0x1",
      "logsBloom": "0x00000000000000000000000000000000104000000000000000000010000000000000000000000020000000000000000000008000000000000000000000200000000080000000000000000000000000800000000004000000000100000000000000000000000000000000000000000000000000000000000080000000000020000000000000000000000000000000000000000000080000008000000000000000220000000000000000000000000000000000000000000000000000000000004000000000000000000001000000000000000000000000000000100000001100000010000000000000000000000200000000000000000000000000000000100000",
      "type": "0x0",
      "effectiveGasPrice": "0x908a904b"
    },
    {
      "transactionHash": "0x687294e0029ccb37a0caa6e7e7a1d795b6b453c8a9ec4238f1333cd29a418f56",
      "transactionIndex": "0xa",
      "blockHash": "0x2b7d7e2f3c7c2285ad200ebace4faa822fcdea3d0457e765b89fef440595f77e",
      "blockNumber": "0x2383038",
      "from": "0x7d6703218ab83D5255e4532101deB294eA1b9d27",
      "to": "0xa909FB9E10A54ABdBA7D8a808E9eDDc6431da5f2",
      "cumulativeGasUsed": "0x13c5d8",
      "gasUsed": "0xc951",
      "contractAddress": null,
      "logs": [
        {
          "address": "0xa909FB9E10A54ABdBA7D8a808E9eDDc6431da5f2",
          "topics": [
            "0xddf252ad1be2c89b69c2b068fc378daa952ba7f163c4a11628f55a4df523b3ef",
            "0x0000000000000000000000000000000000000000000000000000000000000000",
            "0x000000000000000000000000fe11b6de0b4250e07feae40b821ec85c910ab26b"
          ],
          "data": "0x00000000000000000000000000000000000004ee2d6d415b85acef8100000000",
          "blockHash": "0x2b7d7e2f3c7c2285ad200ebace4faa822fcdea3d0457e765b89fef440595f77e",
          "blockNumber": "0x2383038",
          "transactionHash": "0x687294e0029ccb37a0caa6e7e7a1d795b6b453c8a9ec4238f1333cd29a418f56",
          "transactionIndex": "0xa",
          "logIndex": "0x19",
          "removed": false
        },
        {
          "address": "0x0000000000000000000000000000000000001010",
          "topics": [
            "0x4dfe1bbbcf077ddc3e01291eea2d5c70c2b422b415d95645b9adcfd678cb1d63",
            "0x0000000000000000000000000000000000000000000000000000000000001010",
            "0x0000000000000000000000007d6703218ab83d5255e4532101deb294ea1b9d27",
            "0x000000000000000000000000f903ba9e006193c1527bfbe65fe2123704ea3f99"
          ],
          "data": "0x000000000000000000000000000000000000000000000000000071aa8715f5ab00000000000000000000000000000000000000000000000006abb31aa7c2f683000000000000000000000000000000000000000000000f77c0816127fb470a4100000000000000000000000000000000000000000000000006ab417020ad00d8000000000000000000000000000000000000000000000f77c081d2d2825cffec",
          "blockHash": "0x2b7d7e2f3c7c2285ad200ebace4faa822fcdea3d0457e765b89fef440595f77e",
          "blockNumber": "0x2383038",
          "transactionHash": "0x687294e0029ccb37a0caa6e7e7a1d795b6b453c8a9ec4238f1333cd29a418f56",
          "transactionIndex": "0xa",
          "logIndex": "0x1a",
          "removed": false
        }
      ],
      "status": "0x1",
      "logsBloom": "0x00000000000000000000000000000000100000000000000000000110000000000000000000000020000000000000000000008000000000000000000000000000000080040000000000000008000000800000000004000000000100000000000000000000020000000000000000000800000000000000000080000010000020000000000000000000000000000000000000000000080000040000000000000000200000000000000000000000000000000000000000000000000000000000004000000002000000000001000000000000000000000000000000100000001020000000000000000000000000000200000000000000000000000000000000100000",
      "type": "0x0",
      "effectiveGasPrice": "0x908a904b"
    },
    {
      "transactionHash": "0xf634fe0aa2b0c8bcfab9f44050cb1fc761043523d86562933f274a0d376110be",
      "transactionIndex": "0xb",
      "blockHash": "0x2b7d7e2f3c7c2285ad200ebace4faa822fcdea3d0457e765b89fef440595f77e",
      "blockNumber": "0x2383038",
      "from": "0x7d6703218ab83D5255e4532101deB294eA1b9d27",
      "to": "0x427426A550f0292b1B6D8d506ec62b8E48a6e5F2",
      "cumulativeGasUsed": "0x148f29",
      "gasUsed": "0xc951",
      "contractAddress": null,
      "logs": [
        {
          "address": "0x427426A550f0292b1B6D8d506ec62b8E48a6e5F2",
          "topics": [
            "0xddf252ad1be2c89b69c2b068fc378daa952ba7f163c4a11628f55a4df523b3ef",
            "0x0000000000000000000000000000000000000000000000000000000000000000",
            "0x000000000000000000000000fe11b6de0b4250e07feae40b821ec85c910ab26b"
          ],
          "data": "0x00000000000000000000000000000000000004ee2d6d415b85acef8100000000",
          "blockHash": "0x2b7d7e2f3c7c2285ad200ebace4faa822fcdea3d0457e765b89fef440595f77e",
          "blockNumber": "0x2383038",
          "transactionHash": "0xf634fe0aa2b0c8bcfab9f44050cb1fc761043523d86562933f274a0d376110be",
          "transactionIndex": "0xb",
          "logIndex": "0x1b",
          "removed": false
        },
        {
          "address": "0x0000000000000000000000000000000000001010",
          "topics": [
            "0x4dfe1bbbcf077ddc3e01291eea2d5c70c2b422b415d95645b9adcfd678cb1d63",
            "0x0000000000000000000000000000000000000000000000000000000000001010",
            "0x0000000000000000000000007d6703218ab83d5255e4532101deb294ea1b9d27",
            "0x000000000000000000000000f903ba9e006193c1527bfbe65fe2123704ea3f99"
          ],
          "data": "0x000000000000000000000000000000000000000000000000000071aa8715f5ab00000000000000000000000000000000000000000000000006ab417020a06bc8000000000000000000000000000000000000000000000f77c081d2d2825cffec00000000000000000000000000000000000000000000000006aacfc5998a761d000000000000000000000000000000000000000000000f77c082447d0972f597",
          "blockHash": "0x2b7d7e2f3c7c2285ad200ebace4faa822fcdea3d0457e765b89fef440595f77e",
          "blockNumber": "0x2383038",
          "transactionHash": "0xf634fe0aa2b0c8bcfab9f44050cb1fc761043523d86562933f274a0d376110be",
          "transactionIndex": "0xb",
          "logIndex": "0x1c",
          "removed": false
        }
      ],
      "status": "0x1",
      "logsBloom": "0x00000000000000000100000000000000100000000000000080000010000000000000000000000020000000000000000000008000000000000000000000000000000080000000000000000008000000800000000004000000000100000000000000000000020000000000000000000800000000000000000080000010000020000000000000000000000000000000000000000000080000000000000000000000200000000000000000000000000000000000000000000000000000000000004000000002000000000001000000000000000000000000000000100000001020000000000000000000080000000200000000000000000000000000000000100000",
      "type": "0x0",
      "effectiveGasPrice": "0x908a904b"
    },
    {
      "transactionHash": "0x49a8133db9372f15918d0d77a7b88a60ae9cf99a46abb3b63e316b49f024db56",
      "transactionIndex": "0xc",
      "blockHash": "0x2b7d7e2f3c7c2285ad200ebace4faa822fcdea3d0457e765b89fef440595f77e",
      "blockNumber": "0x2383038",
      "from": "0x7d6703218ab83D5255e4532101deB294eA1b9d27",
      "to": "0x74b8693a87d0d739692325A685CD806271487D7D",
      "cumulativeGasUsed": "0x15587a",
      "gasUsed": "0xc951",
      "contractAddress": null,
      "logs": [
        {
          "address": "0x74b8693a87d0d739692325A685CD806271487D7D",
          "topics": [
            "0xddf252ad1be2c89b69c2b068fc378daa952ba7f163c4a11628f55a4df523b3ef",
            "0x0000000000000000000000000000000000000000000000000000000000000000",
            "0x000000000000000000000000fe11b6de0b4250e07feae40b821ec85c910ab26b"
          ],
          "data": "0x00000000000000000000000000000000000004ee2d6d415b85acef8100000000",
          "blockHash": "0x2b7d7e2f3c7c2285ad200ebace4faa822fcdea3d0457e765b89fef440595f77e",
          "blockNumber": "0x2383038",
          "transactionHash": "0x49a8133db9372f15918d0d77a7b88a60ae9cf99a46abb3b63e316b49f024db56",
          "transactionIndex": "0xc",
          "logIndex": "0x1d",
          "removed": false
        },
        {
          "address": "0x0000000000000000000000000000000000001010",
          "topics": [
            "0x4dfe1bbbcf077ddc3e01291eea2d5c70c2b422b415d95645b9adcfd678cb1d63",
            "0x0000000000000000000000000000000000000000000000000000000000001010",
            "0x0000000000000000000000007d6703218ab83d5255e4532101deb294ea1b9d27",
            "0x000000000000000000000000f903ba9e006193c1527bfbe65fe2123704ea3f99"
          ],
          "data": "0x000000000000000000000000000000000000000000000000000071aa8715f5ab00000000000000000000000000000000000000000000000006aacfc5997de10d000000000000000000000000000000000000000000000f77c082447d0972f59700000000000000000000000000000000000000000000000006aa5e1b1267eb62000000000000000000000000000000000000000000000f77c082b6279088eb42",
          "blockHash": "0x2b7d7e2f3c7c2285ad200ebace4faa822fcdea3d0457e765b89fef440595f77e",
          "blockNumber": "0x2383038",
          "transactionHash": "0x49a8133db9372f15918d0d77a7b88a60ae9cf99a46abb3b63e316b49f024db56",
          "transactionIndex": "0xc",
          "logIndex": "0x1e",
          "removed": false
        }
      ],
      "status": "0x1",
      "logsBloom": "0x00000000000000000000000000000000104000000000000000000010000000000000000000000020000000000000000000008000000000000000000000000000000080000000000000000008000000800000000004000000000100000000000000000000020000000000000000000800000000000000000080000010000020000000000000000000000000000000000000000000080000008000000000000000200000000000000000000000000000000000000000000000000000000000004000000002000000000001000000000000000000000000000000100000001120000000000000000000000000000200000000000000000000000000000000100000",
      "type": "0x0",
      "effectiveGasPrice": "0x908a904b"
    }
  ],
  "libraries": [],
  "pending": [],
  "path": "C:/Users/cesar/Documents/GitHub/offline-wallet/contracts/broadcast\\Bridge.s.sol\\80001\\run-latest.json",
  "returns": {},
  "timestamp": 1687641134,
  "chain": 80001,
  "multi": false,
  "commit": "cfffa5a"
}