{
  "transactions": [
    {
      "hash": "0x5db68a543758c49a7b15ce05137982aa7d9873bf783c66f4891f0a91dec8f343",
      "transactionType": "CREATE",
      "contractName": "Bridge",
      "contractAddress": "0x892d7D81fD0697e08F4f140A16a6f3f164efCaa4",
      "function": null,
      "arguments": [
        "[0xa909FB9E10A54ABdBA7D8a808E9eDDc6431da5f2, 0x427426A550f0292b1B6D8d506ec62b8E48a6e5F2, 0x74b8693a87d0d739692325A685CD806271487D7D]",
        "[1, 1900, 31000]",
        "0xCC737a94FecaeC165AbCf12dED095BB13F037685"
      ],
      "rpc": "https://polygon-mumbai.g.alchemy.com/v2/fJeVFG02xfcdxGUbOFwXYKPDVGuigwl_",
      "transaction": {
        "type": "0x00",
        "from": "0x7d6703218ab83d5255e4532101deb294ea1b9d27",
        "gas": "0x9c01a",
        "value": "0x0",
        "data": "0x60a060405234801561001057600080fd5b506040516108ae3803806108ae83398101604081905261002f91610105565b828260005b600381101561009c5761008a838260038110610052576100526101ca565b6020020151838360038110610069576100696101ca565b60200201516001600160a01b03909116600090815260208190526040902055565b80610094816101e0565b915050610034565b5050506001600160a01b0316608052506102079050565b604051606081016001600160401b03811182821017156100e357634e487b7160e01b600052604160045260246000fd5b60405290565b80516001600160a01b038116811461010057600080fd5b919050565b600080600060e0848603121561011a57600080fd5b84601f85011261012957600080fd5b6101316100b3565b80606086018781111561014357600080fd5b865b8181101561016457610156816100e9565b845260209384019301610145565b5081955087607f88011261017757600080fd5b61017f6100b3565b925082915060c087018881111561019557600080fd5b5b808210156101b1578151845260209384019390910190610196565b8295506101bd816100e9565b9450505050509250925092565b634e487b7160e01b600052603260045260246000fd5b60006001820161020057634e487b7160e01b600052601160045260246000fd5b5060010190565b608051610687610227600039600081816080015260de01526106876000f3fe608060405234801561001057600080fd5b50600436106100365760003560e01c806356d5d4751461003b578063c10e565d14610050575b600080fd5b61004e6100493660046103f6565b610075565b005b61006361005e366004610495565b6100d9565b60405190815260200160405180910390f35b336001600160a01b037f000000000000000000000000000000000000000000000000000000000000000016146100aa57600080fd5b60008080806100bb8587018761050c565b93509350935093506100cf848484846101d3565b5050505050505050565b6000807f00000000000000000000000000000000000000000000000000000000000000006001600160a01b031663fa31de018661011c876001600160a01b031690565b604080516001600160a01b03808f166020830152808e1692820192909252606081018c9052908816608082015260a0016040516020818303038152906040526040518463ffffffff1660e01b81526004016101799392919061055f565b6020604051808303816000875af1158015610198573d6000803e3d6000fd5b505050506040513d601f19601f820116820180604052508101906101bc91906105c2565b90506101c8888761035e565b979650505050505050565b6001600160a01b03841660009081526020819052604090205461023d5760405162461bcd60e51b815260206004820152601960248201527f496e70757420746f6b656e207072696365206e6f74207365740000000000000060448201526064015b60405180910390fd5b6001600160a01b0383166000908152602081905260409020546102a25760405162461bcd60e51b815260206004820152601a60248201527f4f757470757420746f6b656e207072696365206e6f74207365740000000000006044820152606401610234565b6001600160a01b0380851660009081526020819052604080822054928616825281205490816102d184876105db565b6102db9190610606565b60405163a9059cbb60e01b81526001600160a01b03868116600483015260248201839052919250879182169063a9059cbb906044016020604051808303816000875af115801561032f573d6000803e3d6000fd5b505050506040513d601f19601f820116820180604052508101906103539190610628565b505050505050505050565b6040516323b872dd60e01b81523360048201523060248201526044810182905282906001600160a01b038216906323b872dd906064016020604051808303816000875af11580156103b3573d6000803e3d6000fd5b505050506040513d601f19601f820116820180604052508101906103d79190610628565b50505050565b803563ffffffff811681146103f157600080fd5b919050565b6000806000806060858703121561040c57600080fd5b610415856103dd565b935060208501359250604085013567ffffffffffffffff8082111561043957600080fd5b818701915087601f83011261044d57600080fd5b81358181111561045c57600080fd5b88602082850101111561046e57600080fd5b95989497505060200194505050565b6001600160a01b038116811461049257600080fd5b50565b60008060008060008060c087890312156104ae57600080fd5b86356104b98161047d565b955060208701356104c98161047d565b9450604087013593506104de606088016103dd565b925060808701356104ee8161047d565b915060a08701356104fe8161047d565b809150509295509295509295565b6000806000806080858703121561052257600080fd5b843561052d8161047d565b9350602085013561053d8161047d565b92506040850135915060608501356105548161047d565b939692955090935050565b63ffffffff8416815260006020848184015260606040840152835180606085015260005b8181101561059f57858101830151858201608001528201610583565b506000608082860101526080601f19601f83011685010192505050949350505050565b6000602082840312156105d457600080fd5b5051919050565b808202811582820484141761060057634e487b7160e01b600052601160045260246000fd5b92915050565b60008261062357634e487b7160e01b600052601260045260246000fd5b500490565b60006020828403121561063a57600080fd5b8151801515811461064a57600080fd5b939250505056fea264697066735822122016bc86a597e52850d75eb7655d777340eb37c2035af82bf1cab709a1d41a3c1064736f6c63430008120033000000000000000000000000a909fb9e10a54abdba7d8a808e9eddc6431da5f2000000000000000000000000427426a550f0292b1b6d8d506ec62b8e48a6e5f200000000000000000000000074b8693a87d0d739692325a685cd806271487d7d0000000000000000000000000000000000000000000000000000000000000001000000000000000000000000000000000000000000000000000000000000076c0000000000000000000000000000000000000000000000000000000000007918000000000000000000000000cc737a94fecaec165abcf12ded095bb13f037685",
        "nonce": "0xe"
      },
      "additionalContracts": []
    },
    {
      "hash": "0x273d8fbf20273901e1688657d5d07b179d074dd640c0d649ed0e1121b57ed7bc",
      "transactionType": "CALL",
      "contractName": "MyToken",
      "contractAddress": "0xa909FB9E10A54ABdBA7D8a808E9eDDc6431da5f2",
      "function": "approve(address,uint256):(bool)",
      "arguments": [
        "0x892d7D81fD0697e08F4f140A16a6f3f164efCaa4",
        "100000000000000"
      ],
      "rpc": "https://polygon-mumbai.g.alchemy.com/v2/fJeVFG02xfcdxGUbOFwXYKPDVGuigwl_",
      "transaction": {
        "type": "0x00",
        "from": "0x7d6703218ab83d5255e4532101deb294ea1b9d27",
        "to": "0xa909fb9e10a54abdba7d8a808e9eddc6431da5f2",
        "gas": "0xf987",
        "value": "0x0",
        "data": "0x095ea7b3000000000000000000000000892d7d81fd0697e08f4f140a16a6f3f164efcaa400000000000000000000000000000000000000000000000000005af3107a4000",
        "nonce": "0xf"
      },
      "additionalContracts": []
    },
    {
      "hash": "0x985f80bf9c45795a7442dfc6f1b8e2da3435641a935ad629e35997e1242fa1a1",
      "transactionType": "CALL",
      "contractName": "MyToken",
      "contractAddress": "0x427426A550f0292b1B6D8d506ec62b8E48a6e5F2",
      "function": "approve(address,uint256):(bool)",
      "arguments": [
        "0x892d7D81fD0697e08F4f140A16a6f3f164efCaa4",
        "100000000000000"
      ],
      "rpc": "https://polygon-mumbai.g.alchemy.com/v2/fJeVFG02xfcdxGUbOFwXYKPDVGuigwl_",
      "transaction": {
        "type": "0x00",
        "from": "0x7d6703218ab83d5255e4532101deb294ea1b9d27",
        "to": "0x427426a550f0292b1b6d8d506ec62b8e48a6e5f2",
        "gas": "0xf987",
        "value": "0x0",
        "data": "0x095ea7b3000000000000000000000000892d7d81fd0697e08f4f140a16a6f3f164efcaa400000000000000000000000000000000000000000000000000005af3107a4000",
        "nonce": "0x10"
      },
      "additionalContracts": []
    },
    {
      "hash": "0xe74a6241842ca89d25e1a92cc9c8fef62ec9f76c39afee10fdb553d6114a78cf",
      "transactionType": "CALL",
      "contractName": "MyToken",
      "contractAddress": "0x74b8693a87d0d739692325A685CD806271487D7D",
      "function": "approve(address,uint256):(bool)",
      "arguments": [
        "0x892d7D81fD0697e08F4f140A16a6f3f164efCaa4",
        "100000000000000"
      ],
      "rpc": "https://polygon-mumbai.g.alchemy.com/v2/fJeVFG02xfcdxGUbOFwXYKPDVGuigwl_",
      "transaction": {
        "type": "0x00",
        "from": "0x7d6703218ab83d5255e4532101deb294ea1b9d27",
        "to": "0x74b8693a87d0d739692325a685cd806271487d7d",
        "gas": "0xf987",
        "value": "0x0",
        "data": "0x095ea7b3000000000000000000000000892d7d81fd0697e08f4f140a16a6f3f164efcaa400000000000000000000000000000000000000000000000000005af3107a4000",
        "nonce": "0x11"
      },
      "additionalContracts": []
    }
  ],
  "receipts": [],
  "libraries": [],
  "pending": [
    "0x5db68a543758c49a7b15ce05137982aa7d9873bf783c66f4891f0a91dec8f343",
    "0x273d8fbf20273901e1688657d5d07b179d074dd640c0d649ed0e1121b57ed7bc",
    "0x985f80bf9c45795a7442dfc6f1b8e2da3435641a935ad629e35997e1242fa1a1",
    "0xe74a6241842ca89d25e1a92cc9c8fef62ec9f76c39afee10fdb553d6114a78cf"
  ],
  "path": "C:/Users/cesar/Documents/GitHub/offline-wallet/contracts/broadcast\\Bridge.s.sol\\80001\\run-latest.json",
  "returns": {},
  "timestamp": 1687635050,
  "chain": 80001,
  "multi": false,
  "commit": "b1ceca8"
}