{
  "transactions": [
    {
      "hash": "0x7ae77f1f99717a66fa57715938faa38b2176a7bacfac14587f464f6545751d5c",
      "transactionType": "CREATE",
      "contractName": "Bridge",
      "contractAddress": "0x9CD739106f9c89a8367d89858e3B2CeaB80E4919",
      "function": null,
      "arguments": [
        "[0x17959f8f873e19FCF331F3FE2B546D5e1C0c683c, 0x24065E016379A584E418fEb8e64265E9F2Cb37B3, 0xAf4DCb192025D7c0B65a2c4D4796Fd32A051C5d7]",
        "[1, 1900, 31000]",
        "0xCC737a94FecaeC165AbCf12dED095BB13F037685"
      ],
      "rpc": "https://polygon-mumbai.g.alchemy.com/v2/fJeVFG02xfcdxGUbOFwXYKPDVGuigwl_",
      "transaction": {
        "type": "0x00",
        "from": "0x7d6703218ab83d5255e4532101deb294ea1b9d27",
        "gas": "0x9c01a",
        "value": "0x0",
        "data": "0x60a060405234801561001057600080fd5b506040516108ae3803806108ae83398101604081905261002f91610105565b828260005b600381101561009c5761008a838260038110610052576100526101ca565b6020020151838360038110610069576100696101ca565b60200201516001600160a01b03909116600090815260208190526040902055565b80610094816101e0565b915050610034565b5050506001600160a01b0316608052506102079050565b604051606081016001600160401b03811182821017156100e357634e487b7160e01b600052604160045260246000fd5b60405290565b80516001600160a01b038116811461010057600080fd5b919050565b600080600060e0848603121561011a57600080fd5b84601f85011261012957600080fd5b6101316100b3565b80606086018781111561014357600080fd5b865b8181101561016457610156816100e9565b845260209384019301610145565b5081955087607f88011261017757600080fd5b61017f6100b3565b925082915060c087018881111561019557600080fd5b5b808210156101b1578151845260209384019390910190610196565b8295506101bd816100e9565b9450505050509250925092565b634e487b7160e01b600052603260045260246000fd5b60006001820161020057634e487b7160e01b600052601160045260246000fd5b5060010190565b608051610687610227600039600081816080015260de01526106876000f3fe608060405234801561001057600080fd5b50600436106100365760003560e01c806356d5d4751461003b578063c10e565d14610050575b600080fd5b61004e6100493660046103f6565b610075565b005b61006361005e366004610495565b6100d9565b60405190815260200160405180910390f35b336001600160a01b037f000000000000000000000000000000000000000000000000000000000000000016146100aa57600080fd5b60008080806100bb8587018761050c565b93509350935093506100cf848484846101d3565b5050505050505050565b6000807f00000000000000000000000000000000000000000000000000000000000000006001600160a01b031663fa31de018661011c876001600160a01b031690565b604080516001600160a01b03808f166020830152808e1692820192909252606081018c9052908816608082015260a0016040516020818303038152906040526040518463ffffffff1660e01b81526004016101799392919061055f565b6020604051808303816000875af1158015610198573d6000803e3d6000fd5b505050506040513d601f19601f820116820180604052508101906101bc91906105c2565b90506101c8888761035e565b979650505050505050565b6001600160a01b03841660009081526020819052604090205461023d5760405162461bcd60e51b815260206004820152601960248201527f496e70757420746f6b656e207072696365206e6f74207365740000000000000060448201526064015b60405180910390fd5b6001600160a01b0383166000908152602081905260409020546102a25760405162461bcd60e51b815260206004820152601a60248201527f4f757470757420746f6b656e207072696365206e6f74207365740000000000006044820152606401610234565b6001600160a01b0380851660009081526020819052604080822054928616825281205490816102d184876105db565b6102db9190610606565b60405163a9059cbb60e01b81526001600160a01b03868116600483015260248201839052919250879182169063a9059cbb906044016020604051808303816000875af115801561032f573d6000803e3d6000fd5b505050506040513d601f19601f820116820180604052508101906103539190610628565b505050505050505050565b6040516323b872dd60e01b81523360048201523060248201526044810182905282906001600160a01b038216906323b872dd906064016020604051808303816000875af11580156103b3573d6000803e3d6000fd5b505050506040513d601f19601f820116820180604052508101906103d79190610628565b50505050565b803563ffffffff811681146103f157600080fd5b919050565b6000806000806060858703121561040c57600080fd5b610415856103dd565b935060208501359250604085013567ffffffffffffffff8082111561043957600080fd5b818701915087601f83011261044d57600080fd5b81358181111561045c57600080fd5b88602082850101111561046e57600080fd5b95989497505060200194505050565b6001600160a01b038116811461049257600080fd5b50565b60008060008060008060c087890312156104ae57600080fd5b86356104b98161047d565b955060208701356104c98161047d565b9450604087013593506104de606088016103dd565b925060808701356104ee8161047d565b915060a08701356104fe8161047d565b809150509295509295509295565b6000806000806080858703121561052257600080fd5b843561052d8161047d565b9350602085013561053d8161047d565b92506040850135915060608501356105548161047d565b939692955090935050565b63ffffffff8416815260006020848184015260606040840152835180606085015260005b8181101561059f57858101830151858201608001528201610583565b506000608082860101526080601f19601f83011685010192505050949350505050565b6000602082840312156105d457600080fd5b5051919050565b808202811582820484141761060057634e487b7160e01b600052601160045260246000fd5b92915050565b60008261062357634e487b7160e01b600052601260045260246000fd5b500490565b60006020828403121561063a57600080fd5b8151801515811461064a57600080fd5b939250505056fea264697066735822122016bc86a597e52850d75eb7655d777340eb37c2035af82bf1cab709a1d41a3c1064736f6c6343000812003300000000000000000000000017959f8f873e19fcf331f3fe2b546d5e1c0c683c00000000000000000000000024065e016379a584e418feb8e64265e9f2cb37b3000000000000000000000000af4dcb192025d7c0b65a2c4d4796fd32a051c5d70000000000000000000000000000000000000000000000000000000000000001000000000000000000000000000000000000000000000000000000000000076c0000000000000000000000000000000000000000000000000000000000007918000000000000000000000000cc737a94fecaec165abcf12ded095bb13f037685",
        "nonce": "0x3"
      },
      "additionalContracts": []
    },
    {
      "hash": "0x4dde24675d7d40e6827deaf59fac05ad7a3e5adfb22d9a89ae20408e895103b7",
      "transactionType": "CALL",
      "contractName": "MyToken",
      "contractAddress": "0x17959f8f873e19FCF331F3FE2B546D5e1C0c683c",
      "function": "approve(address,uint256):(bool)",
      "arguments": [
        "0x9CD739106f9c89a8367d89858e3B2CeaB80E4919",
        "100000000000000"
      ],
      "rpc": "https://polygon-mumbai.g.alchemy.com/v2/fJeVFG02xfcdxGUbOFwXYKPDVGuigwl_",
      "transaction": {
        "type": "0x00",
        "from": "0x7d6703218ab83d5255e4532101deb294ea1b9d27",
        "to": "0x17959f8f873e19fcf331f3fe2b546d5e1c0c683c",
        "gas": "0xf987",
        "value": "0x0",
        "data": "0x095ea7b30000000000000000000000009cd739106f9c89a8367d89858e3b2ceab80e491900000000000000000000000000000000000000000000000000005af3107a4000",
        "nonce": "0x4"
      },
      "additionalContracts": []
    },
    {
      "hash": "0x4ead893d9b663afcdf11700166e86331ab564fb5f57cbb9309ffac1053450992",
      "transactionType": "CALL",
      "contractName": "MyToken",
      "contractAddress": "0x24065E016379A584E418fEb8e64265E9F2Cb37B3",
      "function": "approve(address,uint256):(bool)",
      "arguments": [
        "0x9CD739106f9c89a8367d89858e3B2CeaB80E4919",
        "100000000000000"
      ],
      "rpc": "https://polygon-mumbai.g.alchemy.com/v2/fJeVFG02xfcdxGUbOFwXYKPDVGuigwl_",
      "transaction": {
        "type": "0x00",
        "from": "0x7d6703218ab83d5255e4532101deb294ea1b9d27",
        "to": "0x24065e016379a584e418feb8e64265e9f2cb37b3",
        "gas": "0xf987",
        "value": "0x0",
        "data": "0x095ea7b30000000000000000000000009cd739106f9c89a8367d89858e3b2ceab80e491900000000000000000000000000000000000000000000000000005af3107a4000",
        "nonce": "0x5"
      },
      "additionalContracts": []
    },
    {
      "hash": "0x163b3393baf5d494d97176adff1b41333e9decdc7a7659b0a804bd7a596fbc7e",
      "transactionType": "CALL",
      "contractName": "MyToken",
      "contractAddress": "0xAf4DCb192025D7c0B65a2c4D4796Fd32A051C5d7",
      "function": "approve(address,uint256):(bool)",
      "arguments": [
        "0x9CD739106f9c89a8367d89858e3B2CeaB80E4919",
        "100000000000000"
      ],
      "rpc": "https://polygon-mumbai.g.alchemy.com/v2/fJeVFG02xfcdxGUbOFwXYKPDVGuigwl_",
      "transaction": {
        "type": "0x00",
        "from": "0x7d6703218ab83d5255e4532101deb294ea1b9d27",
        "to": "0xaf4dcb192025d7c0b65a2c4d4796fd32a051c5d7",
        "gas": "0xf987",
        "value": "0x0",
        "data": "0x095ea7b30000000000000000000000009cd739106f9c89a8367d89858e3b2ceab80e491900000000000000000000000000000000000000000000000000005af3107a4000",
        "nonce": "0x6"
      },
      "additionalContracts": []
    }
  ],
  "receipts": [
    {
      "transactionHash": "0x7ae77f1f99717a66fa57715938faa38b2176a7bacfac14587f464f6545751d5c",
      "transactionIndex": "0x5",
      "blockHash": "0x9539e099d3873c7ddcb7208ac8fddc2be556b91dc16a00d5aa29b6898e0277b4",
      "blockNumber": "0x238252e",
      "from": "0x7d6703218ab83D5255e4532101deB294eA1b9d27",
      "to": null,
      "cumulativeGasUsed": "0x2b1018",
      "gasUsed": "0x78014",
      "contractAddress": "0x9CD739106f9c89a8367d89858e3B2CeaB80E4919",
      "logs": [
        {
          "address": "0x0000000000000000000000000000000000001010",
          "topics": [
            "0x4dfe1bbbcf077ddc3e01291eea2d5c70c2b422b415d95645b9adcfd678cb1d63",
            "0x0000000000000000000000000000000000000000000000000000000000001010",
            "0x0000000000000000000000007d6703218ab83d5255e4532101deb294ea1b9d27",
            "0x000000000000000000000000be188d6641e8b680743a4815dfa0f6208038960f"
          ],
          "data": "0x00000000000000000000000000000000000000000000000000043c1a843b43c000000000000000000000000000000000000000000000000006e4d19aaf6c401b00000000000000000000000000000000000000000000329d0e90b7326c008b4400000000000000000000000000000000000000000000000006e095802b30fc5b00000000000000000000000000000000000000000000329d0e94f34cf03bcf04",
          "blockHash": "0x9539e099d3873c7ddcb7208ac8fddc2be556b91dc16a00d5aa29b6898e0277b4",
          "blockNumber": "0x238252e",
          "transactionHash": "0x7ae77f1f99717a66fa57715938faa38b2176a7bacfac14587f464f6545751d5c",
          "transactionIndex": "0x5",
          "logIndex": "0x44",
          "removed": false
        }
      ],
      "status": "0x1",
      "logsBloom": "0x00000000000000000000000000000000000000000000000000000000000000000000000000000000000000000000000000008000000000000000000000000000000080000000000000000000000000800000000004000000000100000000004000000000000000000000000000000000000000000000000080000000000020000000000000000000000000000000000000000000000080000000000000000000200000000000000000000000000000000000000000000000000000000000004000000000000000000001000000000000000000000000000000100040000000000000000000000000000000000000000000000000000000000000000000100000",
      "type": "0x0",
      "effectiveGasPrice": "0x908a9040"
    },
    {
      "transactionHash": "0x4dde24675d7d40e6827deaf59fac05ad7a3e5adfb22d9a89ae20408e895103b7",
      "transactionIndex": "0x6",
      "blockHash": "0x9539e099d3873c7ddcb7208ac8fddc2be556b91dc16a00d5aa29b6898e0277b4",
      "blockNumber": "0x238252e",
      "from": "0x7d6703218ab83D5255e4532101deB294eA1b9d27",
      "to": "0x17959f8f873e19FCF331F3FE2B546D5e1C0c683c",
      "cumulativeGasUsed": "0x2bc4c0",
      "gasUsed": "0xb4a8",
      "contractAddress": null,
      "logs": [
        {
          "address": "0x17959f8f873e19FCF331F3FE2B546D5e1C0c683c",
          "topics": [
            "0x8c5be1e5ebec7d5bd14f71427d1e84f3dd0314c0f7b2291e5b200ac8c7c3b925",
            "0x0000000000000000000000007d6703218ab83d5255e4532101deb294ea1b9d27",
            "0x0000000000000000000000009cd739106f9c89a8367d89858e3b2ceab80e4919"
          ],
          "data": "0x00000000000000000000000000000000000000000000000000005af3107a4000",
          "blockHash": "0x9539e099d3873c7ddcb7208ac8fddc2be556b91dc16a00d5aa29b6898e0277b4",
          "blockNumber": "0x238252e",
          "transactionHash": "0x4dde24675d7d40e6827deaf59fac05ad7a3e5adfb22d9a89ae20408e895103b7",
          "transactionIndex": "0x6",
          "logIndex": "0x45",
          "removed": false
        },
        {
          "address": "0x0000000000000000000000000000000000001010",
          "topics": [
            "0x4dfe1bbbcf077ddc3e01291eea2d5c70c2b422b415d95645b9adcfd678cb1d63",
            "0x0000000000000000000000000000000000000000000000000000000000001010",
            "0x0000000000000000000000007d6703218ab83d5255e4532101deb294ea1b9d27",
            "0x000000000000000000000000be188d6641e8b680743a4815dfa0f6208038960f"
          ],
          "data": "0x0000000000000000000000000000000000000000000000000000660048505f8000000000000000000000000000000000000000000000000006e095802ab8fb1b00000000000000000000000000000000000000000000329d0e94f34cf03bcf0400000000000000000000000000000000000000000000000006e02f7fe2689b9b00000000000000000000000000000000000000000000329d0e95594d388c2e84",
          "blockHash": "0x9539e099d3873c7ddcb7208ac8fddc2be556b91dc16a00d5aa29b6898e0277b4",
          "blockNumber": "0x238252e",
          "transactionHash": "0x4dde24675d7d40e6827deaf59fac05ad7a3e5adfb22d9a89ae20408e895103b7",
          "transactionIndex": "0x6",
          "logIndex": "0x46",
          "removed": false
        }
      ],
      "status": "0x1",
      "logsBloom": "0x00000800000000000000000000000000000000000000000000000000000000000000000000000000000000004000000000008000000000000000000000200000040080000000000000000000000000800000000004000000000100000000004000000000000000000000000000000000000000000000000080000000000020000000000000000000000000000000200000000000000080000000000000000000220000000000000000000000000000000000000000000000000000000000004000000000000000000001000000000000000000000000000000100040000000000010000000000000001000040000000000000000000000000000000000100000",
      "type": "0x0",
      "effectiveGasPrice": "0x908a9040"
    },
    {
      "transactionHash": "0x4ead893d9b663afcdf11700166e86331ab564fb5f57cbb9309ffac1053450992",
      "transactionIndex": "0x7",
      "blockHash": "0x9539e099d3873c7ddcb7208ac8fddc2be556b91dc16a00d5aa29b6898e0277b4",
      "blockNumber": "0x238252e",
      "from": "0x7d6703218ab83D5255e4532101deB294eA1b9d27",
      "to": "0x24065E016379A584E418fEb8e64265E9F2Cb37B3",
      "cumulativeGasUsed": "0x2c7968",
      "gasUsed": "0xb4a8",
      "contractAddress": null,
      "logs": [
        {
          "address": "0x24065E016379A584E418fEb8e64265E9F2Cb37B3",
          "topics": [
            "0x8c5be1e5ebec7d5bd14f71427d1e84f3dd0314c0f7b2291e5b200ac8c7c3b925",
            "0x0000000000000000000000007d6703218ab83d5255e4532101deb294ea1b9d27",
            "0x0000000000000000000000009cd739106f9c89a8367d89858e3b2ceab80e4919"
          ],
          "data": "0x00000000000000000000000000000000000000000000000000005af3107a4000",
          "blockHash": "0x9539e099d3873c7ddcb7208ac8fddc2be556b91dc16a00d5aa29b6898e0277b4",
          "blockNumber": "0x238252e",
          "transactionHash": "0x4ead893d9b663afcdf11700166e86331ab564fb5f57cbb9309ffac1053450992",
          "transactionIndex": "0x7",
          "logIndex": "0x47",
          "removed": false
        },
        {
          "address": "0x0000000000000000000000000000000000001010",
          "topics": [
            "0x4dfe1bbbcf077ddc3e01291eea2d5c70c2b422b415d95645b9adcfd678cb1d63",
            "0x0000000000000000000000000000000000000000000000000000000000001010",
            "0x0000000000000000000000007d6703218ab83d5255e4532101deb294ea1b9d27",
            "0x000000000000000000000000be188d6641e8b680743a4815dfa0f6208038960f"
          ],
          "data": "0x0000000000000000000000000000000000000000000000000000660048505f8000000000000000000000000000000000000000000000000006e02f7fe25d511b00000000000000000000000000000000000000000000329d0e95594d388c2e8400000000000000000000000000000000000000000000000006dfc97f9a0cf19b00000000000000000000000000000000000000000000329d0e95bf4d80dc8e04",
          "blockHash": "0x9539e099d3873c7ddcb7208ac8fddc2be556b91dc16a00d5aa29b6898e0277b4",
          "blockNumber": "0x238252e",
          "transactionHash": "0x4ead893d9b663afcdf11700166e86331ab564fb5f57cbb9309ffac1053450992",
          "transactionIndex": "0x7",
          "logIndex": "0x48",
          "removed": false
        }
      ],
      "status": "0x1",
      "logsBloom": "0x00000800000000000000000000000000000000000000000000000000000004000000000400000000000000000000000000008000000000000000000000200000040080000000000000000000000000800000000004000000000100000000804000000000000000000000000000000000000000000000000080000000000020000000000000000000000000000000200000000000000080000000000000000000220000000000000000000000000000000000000000000000000000000000004000000000000000000001000000000000000000000000000000100040000000000010000000000000000000000000000000000000000000000000000000100000",
      "type": "0x0",
      "effectiveGasPrice": "0x908a9040"
    },
    {
      "transactionHash": "0x163b3393baf5d494d97176adff1b41333e9decdc7a7659b0a804bd7a596fbc7e",
      "transactionIndex": "0x8",
      "blockHash": "0x9539e099d3873c7ddcb7208ac8fddc2be556b91dc16a00d5aa29b6898e0277b4",
      "blockNumber": "0x238252e",
      "from": "0x7d6703218ab83D5255e4532101deB294eA1b9d27",
      "to": "0xAf4DCb192025D7c0B65a2c4D4796Fd32A051C5d7",
      "cumulativeGasUsed": "0x2d2e10",
      "gasUsed": "0xb4a8",
      "contractAddress": null,
      "logs": [
        {
          "address": "0xAf4DCb192025D7c0B65a2c4D4796Fd32A051C5d7",
          "topics": [
            "0x8c5be1e5ebec7d5bd14f71427d1e84f3dd0314c0f7b2291e5b200ac8c7c3b925",
            "0x0000000000000000000000007d6703218ab83d5255e4532101deb294ea1b9d27",
            "0x0000000000000000000000009cd739106f9c89a8367d89858e3b2ceab80e4919"
          ],
          "data": "0x00000000000000000000000000000000000000000000000000005af3107a4000",
          "blockHash": "0x9539e099d3873c7ddcb7208ac8fddc2be556b91dc16a00d5aa29b6898e0277b4",
          "blockNumber": "0x238252e",
          "transactionHash": "0x163b3393baf5d494d97176adff1b41333e9decdc7a7659b0a804bd7a596fbc7e",
          "transactionIndex": "0x8",
          "logIndex": "0x49",
          "removed": false
        },
        {
          "address": "0x0000000000000000000000000000000000001010",
          "topics": [
            "0x4dfe1bbbcf077ddc3e01291eea2d5c70c2b422b415d95645b9adcfd678cb1d63",
            "0x0000000000000000000000000000000000000000000000000000000000001010",
            "0x0000000000000000000000007d6703218ab83d5255e4532101deb294ea1b9d27",
            "0x000000000000000000000000be188d6641e8b680743a4815dfa0f6208038960f"
          ],
          "data": "0x0000000000000000000000000000000000000000000000000000660048505f8000000000000000000000000000000000000000000000000006dfc97f9a01a71b00000000000000000000000000000000000000000000329d0e95bf4d80dc8e0400000000000000000000000000000000000000000000000006df637f51b1479b00000000000000000000000000000000000000000000329d0e96254dc92ced84",
          "blockHash": "0x9539e099d3873c7ddcb7208ac8fddc2be556b91dc16a00d5aa29b6898e0277b4",
          "blockNumber": "0x238252e",
          "transactionHash": "0x163b3393baf5d494d97176adff1b41333e9decdc7a7659b0a804bd7a596fbc7e",
          "transactionIndex": "0x8",
          "logIndex": "0x4a",
          "removed": false
        }
      ],
      "status": "0x1",
      "logsBloom": "0x00000800000000000000000000000000000000000000000000000200000000400000000000000000000000000000000000008000000000000000000000200000040080000000000000000000000000a00000000004000000000100000000004000000000000000000000000000000000000000000000000080000000000020000000000000000000000000000000200000000000000080000000000000000000220000000000000000000000000000000000000000000000000000000000004000000000000000000001000000000000000000000000000000100040000000000010000000000000000000000000000000000000000000000000000000100000",
      "type": "0x0",
      "effectiveGasPrice": "0x908a9040"
    }
  ],
  "libraries": [],
  "pending": [],
  "path": "C:/Users/cesar/Documents/GitHub/offline-wallet/contracts/broadcast\\Bridge.s.sol\\80001\\run-latest.json",
  "returns": {},
  "timestamp": 1687634679,
  "chain": 80001,
  "multi": false,
  "commit": "b1ceca8"
}