{
  "transactions": [
    {
      "hash": "0x05cb5d972266eb61f23653b9831a0f4375a4b3c848b483089836b4d0655d1cb1",
      "transactionType": "CREATE",
      "contractName": "Bridge",
      "contractAddress": "0x82E72E9EeD44Eb07201a3d98F0F169E52E3e18EE",
      "function": null,
      "arguments": [
        "[0xa909FB9E10A54ABdBA7D8a808E9eDDc6431da5f2, 0x427426A550f0292b1B6D8d506ec62b8E48a6e5F2, 0x74b8693a87d0d739692325A685CD806271487D7D]",
        "[1, 1900, 31000]",
        "0xCC737a94FecaeC165AbCf12dED095BB13F037685"
      ],
      "rpc": "https://polygon-mumbai.g.alchemy.com/v2/fJeVFG02xfcdxGUbOFwXYKPDVGuigwl_",
      "transaction": {
        "type": "0x00",
        "from": "0x7d6703218ab83d5255e4532101deb294ea1b9d27",
        "gas": "0xad0a3",
        "value": "0x0",
        "data": "0x60a0604052600180546001600160a01b031916738f9c3888bfc8a5b25aed115a82ecbb788b196d2a17905534801561003657600080fd5b506040516109633803806109638339810160408190526100559161012b565b828260005b60038110156100c2576100b0838260038110610078576100786101f0565b602002015183836003811061008f5761008f6101f0565b60200201516001600160a01b03909116600090815260208190526040902055565b806100ba81610206565b91505061005a565b5050506001600160a01b03166080525061022d9050565b604051606081016001600160401b038111828210171561010957634e487b7160e01b600052604160045260246000fd5b60405290565b80516001600160a01b038116811461012657600080fd5b919050565b600080600060e0848603121561014057600080fd5b84601f85011261014f57600080fd5b6101576100d9565b80606086018781111561016957600080fd5b865b8181101561018a5761017c8161010f565b84526020938401930161016b565b5081955087607f88011261019d57600080fd5b6101a56100d9565b925082915060c08701888111156101bb57600080fd5b5b808210156101d75781518452602093840193909101906101bc565b8295506101e38161010f565b9450505050509250925092565b634e487b7160e01b600052603260045260246000fd5b60006001820161022657634e487b7160e01b600052601160045260246000fd5b5060010190565b60805161071661024d600039600081816080015260de01526107166000f3fe6080604052600436106100295760003560e01c806356d5d4751461002e5780637c6c461914610050575b600080fd5b34801561003a57600080fd5b5061004e610049366004610471565b610075565b005b61006361005e366004610510565b6100d9565b60405190815260200160405180910390f35b336001600160a01b037f000000000000000000000000000000000000000000000000000000000000000016146100aa57600080fd5b60008080806100bb8587018761059b565b93509350935093506100cf8484848461024e565b5050505050505050565b6000807f00000000000000000000000000000000000000000000000000000000000000006001600160a01b031663fa31de018661011c876001600160a01b031690565b604080516001600160a01b03808f166020830152808e1692820192909252606081018c9052908816608082015260a0016040516020818303038152906040526040518463ffffffff1660e01b8152600401610179939291906105ee565b6020604051808303816000875af1158015610198573d6000803e3d6000fd5b505050506040513d601f19601f820116820180604052508101906101bc9190610651565b600154604051630237e58360e31b81526004810183905263ffffffff881660248201526207a12060448201523360648201529192506001600160a01b0316906311bf2c189034906084016000604051808303818588803b15801561021f57600080fd5b505af1158015610233573d6000803e3d6000fd5b505050505061024289876103d9565b98975050505050505050565b6001600160a01b0384166000908152602081905260409020546102b85760405162461bcd60e51b815260206004820152601960248201527f496e70757420746f6b656e207072696365206e6f74207365740000000000000060448201526064015b60405180910390fd5b6001600160a01b03831660009081526020819052604090205461031d5760405162461bcd60e51b815260206004820152601a60248201527f4f757470757420746f6b656e207072696365206e6f742073657400000000000060448201526064016102af565b6001600160a01b03808516600090815260208190526040808220549286168252812054908161034c848761066a565b6103569190610695565b60405163a9059cbb60e01b81526001600160a01b03868116600483015260248201839052919250879182169063a9059cbb906044016020604051808303816000875af11580156103aa573d6000803e3d6000fd5b505050506040513d601f19601f820116820180604052508101906103ce91906106b7565b505050505050505050565b6040516323b872dd60e01b81523360048201523060248201526044810182905282906001600160a01b038216906323b872dd906064016020604051808303816000875af115801561042e573d6000803e3d6000fd5b505050506040513d601f19601f8201168201806040525081019061045291906106b7565b50505050565b803563ffffffff8116811461046c57600080fd5b919050565b6000806000806060858703121561048757600080fd5b61049085610458565b935060208501359250604085013567ffffffffffffffff808211156104b457600080fd5b818701915087601f8301126104c857600080fd5b8135818111156104d757600080fd5b8860208285010111156104e957600080fd5b95989497505060200194505050565b6001600160a01b038116811461050d57600080fd5b50565b600080600080600080600060e0888a03121561052b57600080fd5b8735610536816104f8565b96506020880135610546816104f8565b95506040880135610556816104f8565b94506060880135935061056b60808901610458565b925060a088013561057b816104f8565b915060c088013561058b816104f8565b8091505092959891949750929550565b600080600080608085870312156105b157600080fd5b84356105bc816104f8565b935060208501356105cc816104f8565b92506040850135915060608501356105e3816104f8565b939692955090935050565b63ffffffff8416815260006020848184015260606040840152835180606085015260005b8181101561062e57858101830151858201608001528201610612565b506000608082860101526080601f19601f83011685010192505050949350505050565b60006020828403121561066357600080fd5b5051919050565b808202811582820484141761068f57634e487b7160e01b600052601160045260246000fd5b92915050565b6000826106b257634e487b7160e01b600052601260045260246000fd5b500490565b6000602082840312156106c957600080fd5b815180151581146106d957600080fd5b939250505056fea2646970667358221220a6d917cf8e56c79412bc3c6f803e785b2001c7e06a2333b9ac75ba1824675ac264736f6c63430008120033000000000000000000000000a909fb9e10a54abdba7d8a808e9eddc6431da5f2000000000000000000000000427426a550f0292b1b6d8d506ec62b8e48a6e5f200000000000000000000000074b8693a87d0d739692325a685cd806271487d7d0000000000000000000000000000000000000000000000000000000000000001000000000000000000000000000000000000000000000000000000000000076c0000000000000000000000000000000000000000000000000000000000007918000000000000000000000000cc737a94fecaec165abcf12ded095bb13f037685",
        "nonce": "0x2e"
      },
      "additionalContracts": []
    },
    {
      "hash": "0xa616962813409bd16af79514c1da4b71f918078969616360eb0785ffee85a16f",
      "transactionType": "CALL",
      "contractName": "MyToken",
      "contractAddress": "0xa909FB9E10A54ABdBA7D8a808E9eDDc6431da5f2",
      "function": "approve(address,uint256):(bool)",
      "arguments": [
        "0x82E72E9EeD44Eb07201a3d98F0F169E52E3e18EE",
        "100000000000000000000"
      ],
      "rpc": "https://polygon-mumbai.g.alchemy.com/v2/fJeVFG02xfcdxGUbOFwXYKPDVGuigwl_",
      "transaction": {
        "type": "0x00",
        "from": "0x7d6703218ab83d5255e4532101deb294ea1b9d27",
        "to": "0xa909fb9e10a54abdba7d8a808e9eddc6431da5f2",
        "gas": "0xf9a9",
        "value": "0x0",
        "data": "0x095ea7b300000000000000000000000082e72e9eed44eb07201a3d98f0f169e52e3e18ee0000000000000000000000000000000000000000000000056bc75e2d63100000",
        "nonce": "0x2f"
      },
      "additionalContracts": []
    },
    {
      "hash": "0xaa3552987cc12c33542b67cf33be502cac31e41d2efc079879bc48619f8d27a7",
      "transactionType": "CALL",
      "contractName": "MyToken",
      "contractAddress": "0x427426A550f0292b1B6D8d506ec62b8E48a6e5F2",
      "function": "approve(address,uint256):(bool)",
      "arguments": [
        "0x82E72E9EeD44Eb07201a3d98F0F169E52E3e18EE",
        "100000000000000000000"
      ],
      "rpc": "https://polygon-mumbai.g.alchemy.com/v2/fJeVFG02xfcdxGUbOFwXYKPDVGuigwl_",
      "transaction": {
        "type": "0x00",
        "from": "0x7d6703218ab83d5255e4532101deb294ea1b9d27",
        "to": "0x427426a550f0292b1b6d8d506ec62b8e48a6e5f2",
        "gas": "0xf9a9",
        "value": "0x0",
        "data": "0x095ea7b300000000000000000000000082e72e9eed44eb07201a3d98f0f169e52e3e18ee0000000000000000000000000000000000000000000000056bc75e2d63100000",
        "nonce": "0x30"
      },
      "additionalContracts": []
    },
    {
      "hash": "0x3f2d7cf97ada259ed1d3149eedff30118a9da8024184eb2e7f0c8247e7b1ad5b",
      "transactionType": "CALL",
      "contractName": "MyToken",
      "contractAddress": "0x74b8693a87d0d739692325A685CD806271487D7D",
      "function": "approve(address,uint256):(bool)",
      "arguments": [
        "0x82E72E9EeD44Eb07201a3d98F0F169E52E3e18EE",
        "100000000000000000000"
      ],
      "rpc": "https://polygon-mumbai.g.alchemy.com/v2/fJeVFG02xfcdxGUbOFwXYKPDVGuigwl_",
      "transaction": {
        "type": "0x00",
        "from": "0x7d6703218ab83d5255e4532101deb294ea1b9d27",
        "to": "0x74b8693a87d0d739692325a685cd806271487d7d",
        "gas": "0xf9a9",
        "value": "0x0",
        "data": "0x095ea7b300000000000000000000000082e72e9eed44eb07201a3d98f0f169e52e3e18ee0000000000000000000000000000000000000000000000056bc75e2d63100000",
        "nonce": "0x31"
      },
      "additionalContracts": []
    },
    {
      "hash": "0xc8ed4f59222f8288b93a44428987898d0c68183d7857fbd52d8bbc45bb7d2fc1",
      "transactionType": "CALL",
      "contractName": "MyToken",
      "contractAddress": "0xa909FB9E10A54ABdBA7D8a808E9eDDc6431da5f2",
      "function": "mint(address,uint256)",
      "arguments": [
        "0x82E72E9EeD44Eb07201a3d98F0F169E52E3e18EE",
        "100000000000000"
      ],
      "rpc": "https://polygon-mumbai.g.alchemy.com/v2/fJeVFG02xfcdxGUbOFwXYKPDVGuigwl_",
      "transaction": {
        "type": "0x00",
        "from": "0x7d6703218ab83d5255e4532101deb294ea1b9d27",
        "to": "0xa909fb9e10a54abdba7d8a808e9eddc6431da5f2",
        "gas": "0x1266c",
        "value": "0x0",
        "data": "0x40c10f1900000000000000000000000082e72e9eed44eb07201a3d98f0f169e52e3e18ee00000000000000000000000000000000000000000000000000005af3107a4000",
        "nonce": "0x32"
      },
      "additionalContracts": []
    },
    {
      "hash": "0x12e2739f068368654459c887979b9e0c2a7f2b5a0ad464abe0809cb608c6f6df",
      "transactionType": "CALL",
      "contractName": "MyToken",
      "contractAddress": "0x427426A550f0292b1B6D8d506ec62b8E48a6e5F2",
      "function": "mint(address,uint256)",
      "arguments": [
        "0x82E72E9EeD44Eb07201a3d98F0F169E52E3e18EE",
        "100000000000000"
      ],
      "rpc": "https://polygon-mumbai.g.alchemy.com/v2/fJeVFG02xfcdxGUbOFwXYKPDVGuigwl_",
      "transaction": {
        "type": "0x00",
        "from": "0x7d6703218ab83d5255e4532101deb294ea1b9d27",
        "to": "0x427426a550f0292b1b6d8d506ec62b8e48a6e5f2",
        "gas": "0x1266c",
        "value": "0x0",
        "data": "0x40c10f1900000000000000000000000082e72e9eed44eb07201a3d98f0f169e52e3e18ee00000000000000000000000000000000000000000000000000005af3107a4000",
        "nonce": "0x33"
      },
      "additionalContracts": []
    },
    {
      "hash": "0x2dd9ed00de705cf0e3bcbe9baae51f13e4548d55b9a683965ddf52f40e3b45f0",
      "transactionType": "CALL",
      "contractName": "MyToken",
      "contractAddress": "0x74b8693a87d0d739692325A685CD806271487D7D",
      "function": "mint(address,uint256)",
      "arguments": [
        "0x82E72E9EeD44Eb07201a3d98F0F169E52E3e18EE",
        "100000000000000"
      ],
      "rpc": "https://polygon-mumbai.g.alchemy.com/v2/fJeVFG02xfcdxGUbOFwXYKPDVGuigwl_",
      "transaction": {
        "type": "0x00",
        "from": "0x7d6703218ab83d5255e4532101deb294ea1b9d27",
        "to": "0x74b8693a87d0d739692325a685cd806271487d7d",
        "gas": "0x1266c",
        "value": "0x0",
        "data": "0x40c10f1900000000000000000000000082e72e9eed44eb07201a3d98f0f169e52e3e18ee00000000000000000000000000000000000000000000000000005af3107a4000",
        "nonce": "0x34"
      },
      "additionalContracts": []
    }
  ],
  "receipts": [
    {
      "transactionHash": "0x05cb5d972266eb61f23653b9831a0f4375a4b3c848b483089836b4d0655d1cb1",
      "transactionIndex": "0x3",
      "blockHash": "0x16d8d871c21da18bf1cb18b0c55af5056abd010da721aebe51ef51203b55e303",
      "blockNumber": "0x2382c7c",
      "from": "0x7d6703218ab83D5255e4532101deB294eA1b9d27",
      "to": null,
      "cumulativeGasUsed": "0xb2b55",
      "gasUsed": "0x851b9",
      "contractAddress": "0x82E72E9EeD44Eb07201a3d98F0F169E52E3e18EE",
      "logs": [
        {
          "address": "0x0000000000000000000000000000000000001010",
          "topics": [
            "0x4dfe1bbbcf077ddc3e01291eea2d5c70c2b422b415d95645b9adcfd678cb1d63",
            "0x0000000000000000000000000000000000000000000000000000000000001010",
            "0x0000000000000000000000007d6703218ab83d5255e4532101deb294ea1b9d27",
            "0x000000000000000000000000c275dc8be39f50d12f66b6a63629c39da5bae5bd"
          ],
          "data": "0x0000000000000000000000000000000000000000000000000002e7cc0b28f70000000000000000000000000000000000000000000000000006b5d6dd85aa46f30000000000000000000000000000000000000000000011bc6ed80d228cde2f2000000000000000000000000000000000000000000000000006b2ef117a814ff30000000000000000000000000000000000000000000011bc6edaf4ee98072620",
          "blockHash": "0x16d8d871c21da18bf1cb18b0c55af5056abd010da721aebe51ef51203b55e303",
          "blockNumber": "0x2382c7c",
          "transactionHash": "0x05cb5d972266eb61f23653b9831a0f4375a4b3c848b483089836b4d0655d1cb1",
          "transactionIndex": "0x3",
          "logIndex": "0x8",
          "removed": false
        }
      ],
      "status": "0x1",
      "logsBloom": "0x00000000000000000000000000000000000000000000000000000000000000000000000000000000000000000000000000008000002000000000000000000000000080000000000000000000000000800000000004000000040100000000000000000000000000000000000000000000000000000000000080000000000020000000000000000000000000000000000000000000000000000000000000000000200000000000000000000000000000000000000000000000000040000000004000000000000000000001000000000000000000000000000000100000000000000000000000000000000000000000000000000000000000000000000000100000",
      "type": "0x0",
      "effectiveGasPrice": "0x59682f10"
    },
    {
      "transactionHash": "0xa616962813409bd16af79514c1da4b71f918078969616360eb0785ffee85a16f",
      "transactionIndex": "0x4",
      "blockHash": "0x16d8d871c21da18bf1cb18b0c55af5056abd010da721aebe51ef51203b55e303",
      "blockNumber": "0x2382c7c",
      "from": "0x7d6703218ab83D5255e4532101deB294eA1b9d27",
      "to": "0xa909FB9E10A54ABdBA7D8a808E9eDDc6431da5f2",
      "cumulativeGasUsed": "0xbe015",
      "gasUsed": "0xb4c0",
      "contractAddress": null,
      "logs": [
        {
          "address": "0xa909FB9E10A54ABdBA7D8a808E9eDDc6431da5f2",
          "topics": [
            "0x8c5be1e5ebec7d5bd14f71427d1e84f3dd0314c0f7b2291e5b200ac8c7c3b925",
            "0x0000000000000000000000007d6703218ab83d5255e4532101deb294ea1b9d27",
            "0x00000000000000000000000082e72e9eed44eb07201a3d98f0f169e52e3e18ee"
          ],
          "data": "0x0000000000000000000000000000000000000000000000056bc75e2d63100000",
          "blockHash": "0x16d8d871c21da18bf1cb18b0c55af5056abd010da721aebe51ef51203b55e303",
          "blockNumber": "0x2382c7c",
          "transactionHash": "0xa616962813409bd16af79514c1da4b71f918078969616360eb0785ffee85a16f",
          "transactionIndex": "0x4",
          "logIndex": "0x9",
          "removed": false
        },
        {
          "address": "0x0000000000000000000000000000000000001010",
          "topics": [
            "0x4dfe1bbbcf077ddc3e01291eea2d5c70c2b422b415d95645b9adcfd678cb1d63",
            "0x0000000000000000000000000000000000000000000000000000000000001010",
            "0x0000000000000000000000007d6703218ab83d5255e4532101deb294ea1b9d27",
            "0x000000000000000000000000c275dc8be39f50d12f66b6a63629c39da5bae5bd"
          ],
          "data": "0x00000000000000000000000000000000000000000000000000003f204f2f400000000000000000000000000000000000000000000000000006b2ef1179fc34630000000000000000000000000000000000000000000011bc6edaf4ee9807262000000000000000000000000000000000000000000000000006b2aff12accf4630000000000000000000000000000000000000000000011bc6edb340ee7366620",
          "blockHash": "0x16d8d871c21da18bf1cb18b0c55af5056abd010da721aebe51ef51203b55e303",
          "blockNumber": "0x2382c7c",
          "transactionHash": "0xa616962813409bd16af79514c1da4b71f918078969616360eb0785ffee85a16f",
          "transactionIndex": "0x4",
          "logIndex": "0xa",
          "removed": false
        }
      ],
      "status": "0x1",
      "logsBloom": "0x00000000000000000000000000002000000000000000000000000100000000000000000000010000000000000000000000008000002000000000000000200000000080040000000000000000000000800000000004000000040100000000000000000000000000000000000000000000000000000000000080000000000060000000000000000000000000000000000000000000000000040000000000000000220000000000000000000000000000000000000000000000000040000000004000000000000000000001000000000000000000000000000000100000000000000010000000000000000000000000000000000000000000000000000000100000",
      "type": "0x0",
      "effectiveGasPrice": "0x59682f10"
    },
    {
      "transactionHash": "0xaa3552987cc12c33542b67cf33be502cac31e41d2efc079879bc48619f8d27a7",
      "transactionIndex": "0x5",
      "blockHash": "0x16d8d871c21da18bf1cb18b0c55af5056abd010da721aebe51ef51203b55e303",
      "blockNumber": "0x2382c7c",
      "from": "0x7d6703218ab83D5255e4532101deB294eA1b9d27",
      "to": "0x427426A550f0292b1B6D8d506ec62b8E48a6e5F2",
      "cumulativeGasUsed": "0xc94d5",
      "gasUsed": "0xb4c0",
      "contractAddress": null,
      "logs": [
        {
          "address": "0x427426A550f0292b1B6D8d506ec62b8E48a6e5F2",
          "topics": [
            "0x8c5be1e5ebec7d5bd14f71427d1e84f3dd0314c0f7b2291e5b200ac8c7c3b925",
            "0x0000000000000000000000007d6703218ab83d5255e4532101deb294ea1b9d27",
            "0x00000000000000000000000082e72e9eed44eb07201a3d98f0f169e52e3e18ee"
          ],
          "data": "0x0000000000000000000000000000000000000000000000056bc75e2d63100000",
          "blockHash": "0x16d8d871c21da18bf1cb18b0c55af5056abd010da721aebe51ef51203b55e303",
          "blockNumber": "0x2382c7c",
          "transactionHash": "0xaa3552987cc12c33542b67cf33be502cac31e41d2efc079879bc48619f8d27a7",
          "transactionIndex": "0x5",
          "logIndex": "0xb",
          "removed": false
        },
        {
          "address": "0x0000000000000000000000000000000000001010",
          "topics": [
            "0x4dfe1bbbcf077ddc3e01291eea2d5c70c2b422b415d95645b9adcfd678cb1d63",
            "0x0000000000000000000000000000000000000000000000000000000000001010",
            "0x0000000000000000000000007d6703218ab83d5255e4532101deb294ea1b9d27",
            "0x000000000000000000000000c275dc8be39f50d12f66b6a63629c39da5bae5bd"
          ],
          "data": "0x00000000000000000000000000000000000000000000000000003f204f2f400000000000000000000000000000000000000000000000000006b2aff12ac1a8630000000000000000000000000000000000000000000011bc6edb340ee736662000000000000000000000000000000000000000000000000006b270d0db9268630000000000000000000000000000000000000000000011bc6edb732f3665a620",
          "blockHash": "0x16d8d871c21da18bf1cb18b0c55af5056abd010da721aebe51ef51203b55e303",
          "blockNumber": "0x2382c7c",
          "transactionHash": "0xaa3552987cc12c33542b67cf33be502cac31e41d2efc079879bc48619f8d27a7",
          "transactionIndex": "0x5",
          "logIndex": "0xc",
          "removed": false
        }
      ],
      "status": "0x1",
      "logsBloom": "0x00000000000000000100000000002000000000000000000080000000000000000000000000010000000000000000000000008000002000000000000000200000000080000000000000000000000000800000000004000000040100000000000000000000000000000000000000000000000000000000000080000000000060000000000000000000000000000000000000000000000000000000000000000000220000000000000000000000000000000000000000000000000040000000004000000000000000000001000000000000000000000000000000100000000000000010000000000000080000000000000000000000000000000000000000100000",
      "type": "0x0",
      "effectiveGasPrice": "0x59682f10"
    },
    {
      "transactionHash": "0x3f2d7cf97ada259ed1d3149eedff30118a9da8024184eb2e7f0c8247e7b1ad5b",
      "transactionIndex": "0x7",
      "blockHash": "0x16d8d871c21da18bf1cb18b0c55af5056abd010da721aebe51ef51203b55e303",
      "blockNumber": "0x2382c7c",
      "from": "0x7d6703218ab83D5255e4532101deB294eA1b9d27",
      "to": "0x74b8693a87d0d739692325A685CD806271487D7D",
      "cumulativeGasUsed": "0xe472c",
      "gasUsed": "0xb4c0",
      "contractAddress": null,
      "logs": [
        {
          "address": "0x74b8693a87d0d739692325A685CD806271487D7D",
          "topics": [
            "0x8c5be1e5ebec7d5bd14f71427d1e84f3dd0314c0f7b2291e5b200ac8c7c3b925",
            "0x0000000000000000000000007d6703218ab83d5255e4532101deb294ea1b9d27",
            "0x00000000000000000000000082e72e9eed44eb07201a3d98f0f169e52e3e18ee"
          ],
          "data": "0x0000000000000000000000000000000000000000000000056bc75e2d63100000",
          "blockHash": "0x16d8d871c21da18bf1cb18b0c55af5056abd010da721aebe51ef51203b55e303",
          "blockNumber": "0x2382c7c",
          "transactionHash": "0x3f2d7cf97ada259ed1d3149eedff30118a9da8024184eb2e7f0c8247e7b1ad5b",
          "transactionIndex": "0x7",
          "logIndex": "0xf",
          "removed": false
        },
        {
          "address": "0x0000000000000000000000000000000000001010",
          "topics": [
            "0x4dfe1bbbcf077ddc3e01291eea2d5c70c2b422b415d95645b9adcfd678cb1d63",
            "0x0000000000000000000000000000000000000000000000000000000000001010",
            "0x0000000000000000000000007d6703218ab83d5255e4532101deb294ea1b9d27",
            "0x000000000000000000000000c275dc8be39f50d12f66b6a63629c39da5bae5bd"
          ],
          "data": "0x00000000000000000000000000000000000000000000000000003f204f2f400000000000000000000000000000000000000000000000000006b270d0db871c630000000000000000000000000000000000000000000011bc6edbcbbfe94c5f2000000000000000000000000000000000000000000000000006b231b08c57dc630000000000000000000000000000000000000000000011bc6edc0ae0387b9f20",
          "blockHash": "0x16d8d871c21da18bf1cb18b0c55af5056abd010da721aebe51ef51203b55e303",
          "blockNumber": "0x2382c7c",
          "transactionHash": "0x3f2d7cf97ada259ed1d3149eedff30118a9da8024184eb2e7f0c8247e7b1ad5b",
          "transactionIndex": "0x7",
          "logIndex": "0x10",
          "removed": false
        }
      ],
      "status": "0x1",
      "logsBloom": "0x00000000000000000000000000002000004000000000000000000000000000000000000000010000000000000000000000008000002000000000000000200000000080000000000000000000000000800000000004000000040100000000000000000000000000000000000000000000000000000000000080000000000060000000000000000000000000000000000000000000000000008000000000000000220000000000000000000000000000000000000000000000000040000000004000000000000000000001000000000000000000000000000000100000000100000010000000000000000000000000000000000000000000000000000000100000",
      "type": "0x0",
      "effectiveGasPrice": "0x59682f10"
    },
    {
      "transactionHash": "0xc8ed4f59222f8288b93a44428987898d0c68183d7857fbd52d8bbc45bb7d2fc1",
      "transactionIndex": "0x8",
      "blockHash": "0x16d8d871c21da18bf1cb18b0c55af5056abd010da721aebe51ef51203b55e303",
      "blockNumber": "0x2382c7c",
      "from": "0x7d6703218ab83D5255e4532101deB294eA1b9d27",
      "to": "0xa909FB9E10A54ABdBA7D8a808E9eDDc6431da5f2",
      "cumulativeGasUsed": "0xf107d",
      "gasUsed": "0xc951",
      "contractAddress": null,
      "logs": [
        {
          "address": "0xa909FB9E10A54ABdBA7D8a808E9eDDc6431da5f2",
          "topics": [
            "0xddf252ad1be2c89b69c2b068fc378daa952ba7f163c4a11628f55a4df523b3ef",
            "0x0000000000000000000000000000000000000000000000000000000000000000",
            "0x00000000000000000000000082e72e9eed44eb07201a3d98f0f169e52e3e18ee"
          ],
          "data": "0x00000000000000000000000000000000000004ee2d6d415b85acef8100000000",
          "blockHash": "0x16d8d871c21da18bf1cb18b0c55af5056abd010da721aebe51ef51203b55e303",
          "blockNumber": "0x2382c7c",
          "transactionHash": "0xc8ed4f59222f8288b93a44428987898d0c68183d7857fbd52d8bbc45bb7d2fc1",
          "transactionIndex": "0x8",
          "logIndex": "0x11",
          "removed": false
        },
        {
          "address": "0x0000000000000000000000000000000000001010",
          "topics": [
            "0x4dfe1bbbcf077ddc3e01291eea2d5c70c2b422b415d95645b9adcfd678cb1d63",
            "0x0000000000000000000000000000000000000000000000000000000000001010",
            "0x0000000000000000000000007d6703218ab83d5255e4532101deb294ea1b9d27",
            "0x000000000000000000000000c275dc8be39f50d12f66b6a63629c39da5bae5bd"
          ],
          "data": "0x0000000000000000000000000000000000000000000000000000464f16dddf0000000000000000000000000000000000000000000000000006b231b08c4c90630000000000000000000000000000000000000000000011bc6edc0ae0387b9f2000000000000000000000000000000000000000000000000006b1eb61756eb1630000000000000000000000000000000000000000000011bc6edc512f4f597e20",
          "blockHash": "0x16d8d871c21da18bf1cb18b0c55af5056abd010da721aebe51ef51203b55e303",
          "blockNumber": "0x2382c7c",
          "transactionHash": "0xc8ed4f59222f8288b93a44428987898d0c68183d7857fbd52d8bbc45bb7d2fc1",
          "transactionIndex": "0x8",
          "logIndex": "0x12",
          "removed": false
        }
      ],
      "status": "0x1",
      "logsBloom": "0x00000000000000000000000000002000000000000000000000000100000000000000000000010000000000000000000000008000002000000000000000000000000080040000000000000008000000800000000004000000040100000000000000000000020000000000000000000800000000000000000080000010000060000000000000000000000000000000000000000000000000040000000000000000200000000000000000000000000000000000000000000000000040000000004000000002000000000001000000000000000000000000000000100000000020000000000000000000000000000000000000000000000000000000000000100000",
      "type": "0x0",
      "effectiveGasPrice": "0x59682f10"
    },
    {
      "transactionHash": "0x12e2739f068368654459c887979b9e0c2a7f2b5a0ad464abe0809cb608c6f6df",
      "transactionIndex": "0x9",
      "blockHash": "0x16d8d871c21da18bf1cb18b0c55af5056abd010da721aebe51ef51203b55e303",
      "blockNumber": "0x2382c7c",
      "from": "0x7d6703218ab83D5255e4532101deB294eA1b9d27",
      "to": "0x427426A550f0292b1B6D8d506ec62b8E48a6e5F2",
      "cumulativeGasUsed": "0xfd9ce",
      "gasUsed": "0xc951",
      "contractAddress": null,
      "logs": [
        {
          "address": "0x427426A550f0292b1B6D8d506ec62b8E48a6e5F2",
          "topics": [
            "0xddf252ad1be2c89b69c2b068fc378daa952ba7f163c4a11628f55a4df523b3ef",
            "0x0000000000000000000000000000000000000000000000000000000000000000",
            "0x00000000000000000000000082e72e9eed44eb07201a3d98f0f169e52e3e18ee"
          ],
          "data": "0x00000000000000000000000000000000000004ee2d6d415b85acef8100000000",
          "blockHash": "0x16d8d871c21da18bf1cb18b0c55af5056abd010da721aebe51ef51203b55e303",
          "blockNumber": "0x2382c7c",
          "transactionHash": "0x12e2739f068368654459c887979b9e0c2a7f2b5a0ad464abe0809cb608c6f6df",
          "transactionIndex": "0x9",
          "logIndex": "0x13",
          "removed": false
        },
        {
          "address": "0x0000000000000000000000000000000000001010",
          "topics": [
            "0x4dfe1bbbcf077ddc3e01291eea2d5c70c2b422b415d95645b9adcfd678cb1d63",
            "0x0000000000000000000000000000000000000000000000000000000000001010",
            "0x0000000000000000000000007d6703218ab83d5255e4532101deb294ea1b9d27",
            "0x000000000000000000000000c275dc8be39f50d12f66b6a63629c39da5bae5bd"
          ],
          "data": "0x0000000000000000000000000000000000000000000000000000464f16dddf0000000000000000000000000000000000000000000000000006b1eb6175621c530000000000000000000000000000000000000000000011bc6edc512f4f597e2000000000000000000000000000000000000000000000000006b1a5125e843d530000000000000000000000000000000000000000000011bc6edc977e66375d20",
          "blockHash": "0x16d8d871c21da18bf1cb18b0c55af5056abd010da721aebe51ef51203b55e303",
          "blockNumber": "0x2382c7c",
          "transactionHash": "0x12e2739f068368654459c887979b9e0c2a7f2b5a0ad464abe0809cb608c6f6df",
          "transactionIndex": "0x9",
          "logIndex": "0x14",
          "removed": false
        }
      ],
      "status": "0x1",
      "logsBloom": "0x00000000000000000100000000002000000000000000000080000000000000000000000000010000000000000000000000008000002000000000000000000000000080000000000000000008000000800000000004000000040100000000000000000000020000000000000000000800000000000000000080000010000060000000000000000000000000000000000000000000000000000000000000000000200000000000000000000000000000000000000000000000000040000000004000000002000000000001000000000000000000000000000000100000000020000000000000000000080000000000000000000000000000000000000000100000",
      "type": "0x0",
      "effectiveGasPrice": "0x59682f10"
    },
    {
      "transactionHash": "0x2dd9ed00de705cf0e3bcbe9baae51f13e4548d55b9a683965ddf52f40e3b45f0",
      "transactionIndex": "0xa",
      "blockHash": "0x16d8d871c21da18bf1cb18b0c55af5056abd010da721aebe51ef51203b55e303",
      "blockNumber": "0x2382c7c",
      "from": "0x7d6703218ab83D5255e4532101deB294eA1b9d27",
      "to": "0x74b8693a87d0d739692325A685CD806271487D7D",
      "cumulativeGasUsed": "0x10a31f",
      "gasUsed": "0xc951",
      "contractAddress": null,
      "logs": [
        {
          "address": "0x74b8693a87d0d739692325A685CD806271487D7D",
          "topics": [
            "0xddf252ad1be2c89b69c2b068fc378daa952ba7f163c4a11628f55a4df523b3ef",
            "0x0000000000000000000000000000000000000000000000000000000000000000",
            "0x00000000000000000000000082e72e9eed44eb07201a3d98f0f169e52e3e18ee"
          ],
          "data": "0x00000000000000000000000000000000000004ee2d6d415b85acef8100000000",
          "blockHash": "0x16d8d871c21da18bf1cb18b0c55af5056abd010da721aebe51ef51203b55e303",
          "blockNumber": "0x2382c7c",
          "transactionHash": "0x2dd9ed00de705cf0e3bcbe9baae51f13e4548d55b9a683965ddf52f40e3b45f0",
          "transactionIndex": "0xa",
          "logIndex": "0x15",
          "removed": false
        },
        {
          "address": "0x0000000000000000000000000000000000001010",
          "topics": [
            "0x4dfe1bbbcf077ddc3e01291eea2d5c70c2b422b415d95645b9adcfd678cb1d63",
            "0x0000000000000000000000000000000000000000000000000000000000001010",
            "0x0000000000000000000000007d6703218ab83d5255e4532101deb294ea1b9d27",
            "0x000000000000000000000000c275dc8be39f50d12f66b6a63629c39da5bae5bd"
          ],
          "data": "0x0000000000000000000000000000000000000000000000000000464f16dddf0000000000000000000000000000000000000000000000000006b1a5125e77a8430000000000000000000000000000000000000000000011bc6edc977e66375d2000000000000000000000000000000000000000000000000006b15ec34799c9430000000000000000000000000000000000000000000011bc6edcddcd7d153c20",
          "blockHash": "0x16d8d871c21da18bf1cb18b0c55af5056abd010da721aebe51ef51203b55e303",
          "blockNumber": "0x2382c7c",
          "transactionHash": "0x2dd9ed00de705cf0e3bcbe9baae51f13e4548d55b9a683965ddf52f40e3b45f0",
          "transactionIndex": "0xa",
          "logIndex": "0x16",
          "removed": false
        }
      ],
      "status": "0x1",
      "logsBloom": "0x00000000000000000000000000002000004000000000000000000000000000000000000000010000000000000000000000008000002000000000000000000000000080000000000000000008000000800000000004000000040100000000000000000000020000000000000000000800000000000000000080000010000060000000000000000000000000000000000000000000000000008000000000000000200000000000000000000000000000000000000000000000000040000000004000000002000000000001000000000000000000000000000000100000000120000000000000000000000000000000000000000000000000000000000000100000",
      "type": "0x0",
      "effectiveGasPrice": "0x59682f10"
    }
  ],
  "libraries": [],
  "pending": [],
  "path": "C:/Users/cesar/Documents/GitHub/offline-wallet/contracts/broadcast\\Bridge.s.sol\\80001\\run-latest.json",
  "returns": {},
  "timestamp": 1687638774,
  "chain": 80001,
  "multi": false,
  "commit": "b1ceca8"
}