{
  "transactions": [
    {
      "hash": "0xee88d63bd4c731ac7adf6b50cac1abf7e71ecc0c0362a0c9b3f57ab7c90ab245",
      "transactionType": "CREATE",
      "contractName": "Bridge",
      "contractAddress": "0xa1E9B79405959E03A0de8B92f325CB7DFc6C1959",
      "function": null,
      "arguments": [
        "[0xa909FB9E10A54ABdBA7D8a808E9eDDc6431da5f2, 0x427426A550f0292b1B6D8d506ec62b8E48a6e5F2, 0x74b8693a87d0d739692325A685CD806271487D7D]",
        "[1, 1900, 31000]",
        "0xCC737a94FecaeC165AbCf12dED095BB13F037685"
      ],
      "rpc": "https://polygon-mumbai.g.alchemy.com/v2/fJeVFG02xfcdxGUbOFwXYKPDVGuigwl_",
      "transaction": {
        "type": "0x00",
        "from": "0x7d6703218ab83d5255e4532101deb294ea1b9d27",
        "gas": "0x9da8d",
        "value": "0x0",
        "data": "0x60a0604052600180546001600160a01b031916738f9c3888bfc8a5b25aed115a82ecbb788b196d2a17905534801561003657600080fd5b506040516108833803806108838339810160408190526100559161012b565b828260005b60038110156100c2576100b0838260038110610078576100786101f0565b602002015183836003811061008f5761008f6101f0565b60200201516001600160a01b03909116600090815260208190526040902055565b806100ba81610206565b91505061005a565b5050506001600160a01b03166080525061022d9050565b604051606081016001600160401b038111828210171561010957634e487b7160e01b600052604160045260246000fd5b60405290565b80516001600160a01b038116811461012657600080fd5b919050565b600080600060e0848603121561014057600080fd5b84601f85011261014f57600080fd5b6101576100d9565b80606086018781111561016957600080fd5b865b8181101561018a5761017c8161010f565b84526020938401930161016b565b5081955087607f88011261019d57600080fd5b6101a56100d9565b925082915060c08701888111156101bb57600080fd5b5b808210156101d75781518452602093840193909101906101bc565b8295506101e38161010f565b9450505050509250925092565b634e487b7160e01b600052603260045260246000fd5b60006001820161022657634e487b7160e01b600052601160045260246000fd5b5060010190565b60805161063561024e600039600081816080015261011601526106356000f3fe6080604052600436106100295760003560e01c806356d5d4751461002e5780637c6c461914610050575b600080fd5b34801561003a57600080fd5b5061004e6100493660046103a1565b610075565b005b61006361005e366004610440565b6100d4565b60405190815260200160405180910390f35b336001600160a01b037f000000000000000000000000000000000000000000000000000000000000000016146100aa57600080fd5b600080806100ba848601866104cb565b9250925092506100cb83838361028c565b50505050505050565b6001600160a01b038088166000908152602081905260408082205492891682528120549091908282610106838a61050d565b6101109190610538565b905060007f00000000000000000000000000000000000000000000000000000000000000006001600160a01b031663fa31de01896101548a6001600160a01b031690565b8d8d8b604051602001610187939291906001600160a01b0393841681526020810192909252909116604082015260600190565b6040516020818303038152906040526040518463ffffffff1660e01b81526004016101b49392919061055a565b6020604051808303816000875af11580156101d3573d6000803e3d6000fd5b505050506040513d601f19601f820116820180604052508101906101f791906105bd565b600154604051630237e58360e31b81526004810183905263ffffffff8b1660248201526207a12060448201523360648201529192506001600160a01b0316906311bf2c189034906084016000604051808303818588803b15801561025a57600080fd5b505af115801561026e573d6000803e3d6000fd5b505050505061027d8c83610309565b9b9a5050505050505050505050565b60405163a9059cbb60e01b81526001600160a01b0382811660048301526024820184905284919082169063a9059cbb906044016020604051808303816000875af11580156102de573d6000803e3d6000fd5b505050506040513d601f19601f8201168201806040525081019061030291906105d6565b5050505050565b6040516323b872dd60e01b81523360048201523060248201526044810182905282906001600160a01b038216906323b872dd906064016020604051808303816000875af115801561035e573d6000803e3d6000fd5b505050506040513d601f19601f8201168201806040525081019061038291906105d6565b50505050565b803563ffffffff8116811461039c57600080fd5b919050565b600080600080606085870312156103b757600080fd5b6103c085610388565b935060208501359250604085013567ffffffffffffffff808211156103e457600080fd5b818701915087601f8301126103f857600080fd5b81358181111561040757600080fd5b88602082850101111561041957600080fd5b95989497505060200194505050565b6001600160a01b038116811461043d57600080fd5b50565b600080600080600080600060e0888a03121561045b57600080fd5b873561046681610428565b9650602088013561047681610428565b9550604088013561048681610428565b94506060880135935061049b60808901610388565b925060a08801356104ab81610428565b915060c08801356104bb81610428565b8091505092959891949750929550565b6000806000606084860312156104e057600080fd5b83356104eb81610428565b925060208401359150604084013561050281610428565b809150509250925092565b808202811582820484141761053257634e487b7160e01b600052601160045260246000fd5b92915050565b60008261055557634e487b7160e01b600052601260045260246000fd5b500490565b63ffffffff8416815260006020848184015260606040840152835180606085015260005b8181101561059a5785810183015185820160800152820161057e565b506000608082860101526080601f19601f83011685010192505050949350505050565b6000602082840312156105cf57600080fd5b5051919050565b6000602082840312156105e857600080fd5b815180151581146105f857600080fd5b939250505056fea2646970667358221220cb3c3d6f3eba19e8d715c79835dd280eb16f37b6d5c900b736d4a72ba320f51264736f6c63430008120033000000000000000000000000a909fb9e10a54abdba7d8a808e9eddc6431da5f2000000000000000000000000427426a550f0292b1b6d8d506ec62b8e48a6e5f200000000000000000000000074b8693a87d0d739692325a685cd806271487d7d0000000000000000000000000000000000000000000000000000000000000001000000000000000000000000000000000000000000000000000000000000076c0000000000000000000000000000000000000000000000000000000000007918000000000000000000000000cc737a94fecaec165abcf12ded095bb13f037685",
        "nonce": "0x3c"
      },
      "additionalContracts": []
    },
    {
      "hash": "0x26561aec828a1ca00b9027621ec511d491254046795324902a85e34212d975c1",
      "transactionType": "CALL",
      "contractName": "MyToken",
      "contractAddress": "0xa909FB9E10A54ABdBA7D8a808E9eDDc6431da5f2",
      "function": "approve(address,uint256):(bool)",
      "arguments": [
        "0xa1E9B79405959E03A0de8B92f325CB7DFc6C1959",
        "100000000000000000000"
      ],
      "rpc": "https://polygon-mumbai.g.alchemy.com/v2/fJeVFG02xfcdxGUbOFwXYKPDVGuigwl_",
      "transaction": {
        "type": "0x00",
        "from": "0x7d6703218ab83d5255e4532101deb294ea1b9d27",
        "to": "0xa909fb9e10a54abdba7d8a808e9eddc6431da5f2",
        "gas": "0xf9a9",
        "value": "0x0",
        "data": "0x095ea7b3000000000000000000000000a1e9b79405959e03a0de8b92f325cb7dfc6c19590000000000000000000000000000000000000000000000056bc75e2d63100000",
        "nonce": "0x3d"
      },
      "additionalContracts": []
    },
    {
      "hash": "0x6912a28fbc735bec5d3d6345af58d94145397be9cefd3daecc49af441b1f5e49",
      "transactionType": "CALL",
      "contractName": "MyToken",
      "contractAddress": "0x427426A550f0292b1B6D8d506ec62b8E48a6e5F2",
      "function": "approve(address,uint256):(bool)",
      "arguments": [
        "0xa1E9B79405959E03A0de8B92f325CB7DFc6C1959",
        "100000000000000000000"
      ],
      "rpc": "https://polygon-mumbai.g.alchemy.com/v2/fJeVFG02xfcdxGUbOFwXYKPDVGuigwl_",
      "transaction": {
        "type": "0x00",
        "from": "0x7d6703218ab83d5255e4532101deb294ea1b9d27",
        "to": "0x427426a550f0292b1b6d8d506ec62b8e48a6e5f2",
        "gas": "0xf9a9",
        "value": "0x0",
        "data": "0x095ea7b3000000000000000000000000a1e9b79405959e03a0de8b92f325cb7dfc6c19590000000000000000000000000000000000000000000000056bc75e2d63100000",
        "nonce": "0x3e"
      },
      "additionalContracts": []
    },
    {
      "hash": "0x78826067e0269331e987d7800af08e9ea57af542bc510dac07ae4885c647b9f1",
      "transactionType": "CALL",
      "contractName": "MyToken",
      "contractAddress": "0x74b8693a87d0d739692325A685CD806271487D7D",
      "function": "approve(address,uint256):(bool)",
      "arguments": [
        "0xa1E9B79405959E03A0de8B92f325CB7DFc6C1959",
        "100000000000000000000"
      ],
      "rpc": "https://polygon-mumbai.g.alchemy.com/v2/fJeVFG02xfcdxGUbOFwXYKPDVGuigwl_",
      "transaction": {
        "type": "0x00",
        "from": "0x7d6703218ab83d5255e4532101deb294ea1b9d27",
        "to": "0x74b8693a87d0d739692325a685cd806271487d7d",
        "gas": "0xf9a9",
        "value": "0x0",
        "data": "0x095ea7b3000000000000000000000000a1e9b79405959e03a0de8b92f325cb7dfc6c19590000000000000000000000000000000000000000000000056bc75e2d63100000",
        "nonce": "0x3f"
      },
      "additionalContracts": []
    },
    {
      "hash": "0xcb64d94c44321baea00b8a0cb5ed238287b95288198d7982e2ccec4d5cd46d8c",
      "transactionType": "CALL",
      "contractName": "MyToken",
      "contractAddress": "0xa909FB9E10A54ABdBA7D8a808E9eDDc6431da5f2",
      "function": "mint(address,uint256)",
      "arguments": [
        "0xa1E9B79405959E03A0de8B92f325CB7DFc6C1959",
        "100000000000000"
      ],
      "rpc": "https://polygon-mumbai.g.alchemy.com/v2/fJeVFG02xfcdxGUbOFwXYKPDVGuigwl_",
      "transaction": {
        "type": "0x00",
        "from": "0x7d6703218ab83d5255e4532101deb294ea1b9d27",
        "to": "0xa909fb9e10a54abdba7d8a808e9eddc6431da5f2",
        "gas": "0x1266c",
        "value": "0x0",
        "data": "0x40c10f19000000000000000000000000a1e9b79405959e03a0de8b92f325cb7dfc6c195900000000000000000000000000000000000000000000000000005af3107a4000",
        "nonce": "0x40"
      },
      "additionalContracts": []
    },
    {
      "hash": "0x5d7c60dec14bb518106ac27e470970979b647286c1d25ae037d13577b98dae5f",
      "transactionType": "CALL",
      "contractName": "MyToken",
      "contractAddress": "0x427426A550f0292b1B6D8d506ec62b8E48a6e5F2",
      "function": "mint(address,uint256)",
      "arguments": [
        "0xa1E9B79405959E03A0de8B92f325CB7DFc6C1959",
        "100000000000000"
      ],
      "rpc": "https://polygon-mumbai.g.alchemy.com/v2/fJeVFG02xfcdxGUbOFwXYKPDVGuigwl_",
      "transaction": {
        "type": "0x00",
        "from": "0x7d6703218ab83d5255e4532101deb294ea1b9d27",
        "to": "0x427426a550f0292b1b6d8d506ec62b8e48a6e5f2",
        "gas": "0x1266c",
        "value": "0x0",
        "data": "0x40c10f19000000000000000000000000a1e9b79405959e03a0de8b92f325cb7dfc6c195900000000000000000000000000000000000000000000000000005af3107a4000",
        "nonce": "0x41"
      },
      "additionalContracts": []
    },
    {
      "hash": "0x4ad3a1c58e946248429e1bbd90409035664c1d722ccc71f0cc5e800a4b7a7b6d",
      "transactionType": "CALL",
      "contractName": "MyToken",
      "contractAddress": "0x74b8693a87d0d739692325A685CD806271487D7D",
      "function": "mint(address,uint256)",
      "arguments": [
        "0xa1E9B79405959E03A0de8B92f325CB7DFc6C1959",
        "100000000000000"
      ],
      "rpc": "https://polygon-mumbai.g.alchemy.com/v2/fJeVFG02xfcdxGUbOFwXYKPDVGuigwl_",
      "transaction": {
        "type": "0x00",
        "from": "0x7d6703218ab83d5255e4532101deb294ea1b9d27",
        "to": "0x74b8693a87d0d739692325a685cd806271487d7d",
        "gas": "0x1266c",
        "value": "0x0",
        "data": "0x40c10f19000000000000000000000000a1e9b79405959e03a0de8b92f325cb7dfc6c195900000000000000000000000000000000000000000000000000005af3107a4000",
        "nonce": "0x42"
      },
      "additionalContracts": []
    }
  ],
  "receipts": [
    {
      "transactionHash": "0xee88d63bd4c731ac7adf6b50cac1abf7e71ecc0c0362a0c9b3f57ab7c90ab245",
      "transactionIndex": "0x1",
      "blockHash": "0x5ecb254bc6cf95286b22466815ab90017977f1fe029eeea350e21c12f7035b04",
      "blockNumber": "0x23831b6",
      "from": "0x7d6703218ab83D5255e4532101deB294eA1b9d27",
      "to": null,
      "cumulativeGasUsed": "0x8c3a4",
      "gasUsed": "0x7946d",
      "contractAddress": "0xa1E9B79405959E03A0de8B92f325CB7DFc6C1959",
      "logs": [
        {
          "address": "0x0000000000000000000000000000000000001010",
          "topics": [
            "0x4dfe1bbbcf077ddc3e01291eea2d5c70c2b422b415d95645b9adcfd678cb1d63",
            "0x0000000000000000000000000000000000000000000000000000000000001010",
            "0x0000000000000000000000007d6703218ab83d5255e4532101deb294ea1b9d27",
            "0x0000000000000000000000003a22c8bc68e98b0faf40f349dd2b2890fae01484"
          ],
          "data": "0x00000000000000000000000000000000000000000000000000051e05be2a233500000000000000000000000000000000000000000000000006aa5e1b125b5652000000000000000000000000000000000000000000000baeb588bc8d7c4592a000000000000000000000000000000000000000000000000006a540155431331d000000000000000000000000000000000000000000000baeb58dda933a6fb5d5",
          "blockHash": "0x5ecb254bc6cf95286b22466815ab90017977f1fe029eeea350e21c12f7035b04",
          "blockNumber": "0x23831b6",
          "transactionHash": "0xee88d63bd4c731ac7adf6b50cac1abf7e71ecc0c0362a0c9b3f57ab7c90ab245",
          "transactionIndex": "0x1",
          "logIndex": "0x3",
          "removed": false
        }
      ],
      "status": "0x1",
      "logsBloom": "0x00000000000000000000000000000000000000000000000000000000000000000000000000000000000000000000000000008000000000000000000000008000000080000000000000000000000000800000000004000000000100000000000000000000000000000000000000000000000000000000000080000000000020000000000000000000000000000000000000000000000000000000000000000000200000000000000000080000000000000000000000000000000000000000004000000000000000000001000000000100000000000000000000100000000000000000000000000000000000000000000000000000000000000000000000100000",
      "type": "0x0",
      "effectiveGasPrice": "0xacd4bcf9"
    },
    {
      "transactionHash": "0x26561aec828a1ca00b9027621ec511d491254046795324902a85e34212d975c1",
      "transactionIndex": "0x2",
      "blockHash": "0x5ecb254bc6cf95286b22466815ab90017977f1fe029eeea350e21c12f7035b04",
      "blockNumber": "0x23831b6",
      "from": "0x7d6703218ab83D5255e4532101deB294eA1b9d27",
      "to": "0xa909FB9E10A54ABdBA7D8a808E9eDDc6431da5f2",
      "cumulativeGasUsed": "0x97864",
      "gasUsed": "0xb4c0",
      "contractAddress": null,
      "logs": [
        {
          "address": "0xa909FB9E10A54ABdBA7D8a808E9eDDc6431da5f2",
          "topics": [
            "0x8c5be1e5ebec7d5bd14f71427d1e84f3dd0314c0f7b2291e5b200ac8c7c3b925",
            "0x0000000000000000000000007d6703218ab83d5255e4532101deb294ea1b9d27",
            "0x000000000000000000000000a1e9b79405959e03a0de8b92f325cb7dfc6c1959"
          ],
          "data": "0x0000000000000000000000000000000000000000000000056bc75e2d63100000",
          "blockHash": "0x5ecb254bc6cf95286b22466815ab90017977f1fe029eeea350e21c12f7035b04",
          "blockNumber": "0x23831b6",
          "transactionHash": "0x26561aec828a1ca00b9027621ec511d491254046795324902a85e34212d975c1",
          "transactionIndex": "0x2",
          "logIndex": "0x4",
          "removed": false
        },
        {
          "address": "0x0000000000000000000000000000000000001010",
          "topics": [
            "0x4dfe1bbbcf077ddc3e01291eea2d5c70c2b422b415d95645b9adcfd678cb1d63",
            "0x0000000000000000000000000000000000000000000000000000000000001010",
            "0x0000000000000000000000007d6703218ab83d5255e4532101deb294ea1b9d27",
            "0x0000000000000000000000003a22c8bc68e98b0faf40f349dd2b2890fae01484"
          ],
          "data": "0x00000000000000000000000000000000000000000000000000007a07346182c000000000000000000000000000000000000000000000000006a5401553b7ec4d000000000000000000000000000000000000000000000baeb58dda933a6fb5d500000000000000000000000000000000000000000000000006a4c60e1f56698d000000000000000000000000000000000000000000000baeb58e549a6ed13895",
          "blockHash": "0x5ecb254bc6cf95286b22466815ab90017977f1fe029eeea350e21c12f7035b04",
          "blockNumber": "0x23831b6",
          "transactionHash": "0x26561aec828a1ca00b9027621ec511d491254046795324902a85e34212d975c1",
          "transactionIndex": "0x2",
          "logIndex": "0x5",
          "removed": false
        }
      ],
      "status": "0x1",
      "logsBloom": "0x00000000000000000000000000000000000000000000000000000100000000000000000000000000000000000000000000008000000000000000000000208000000080040000000000000000000040800000000005000000000100000000000000000000000000000000000000000000000000000000000080000000000020000000000000000000000000000000000000000000000000040000000000000000220000000000000000080000000000000000000000000000000000000000004000000000000000000001000000000100000002000000000000100000000000000010000000000000000000000000000000000000000000000000000000100000",
      "type": "0x0",
      "effectiveGasPrice": "0xacd4bcf9"
    },
    {
      "transactionHash": "0x6912a28fbc735bec5d3d6345af58d94145397be9cefd3daecc49af441b1f5e49",
      "transactionIndex": "0x3",
      "blockHash": "0x5ecb254bc6cf95286b22466815ab90017977f1fe029eeea350e21c12f7035b04",
      "blockNumber": "0x23831b6",
      "from": "0x7d6703218ab83D5255e4532101deB294eA1b9d27",
      "to": "0x427426A550f0292b1B6D8d506ec62b8E48a6e5F2",
      "cumulativeGasUsed": "0xa2d24",
      "gasUsed": "0xb4c0",
      "contractAddress": null,
      "logs": [
        {
          "address": "0x427426A550f0292b1B6D8d506ec62b8E48a6e5F2",
          "topics": [
            "0x8c5be1e5ebec7d5bd14f71427d1e84f3dd0314c0f7b2291e5b200ac8c7c3b925",
            "0x0000000000000000000000007d6703218ab83d5255e4532101deb294ea1b9d27",
            "0x000000000000000000000000a1e9b79405959e03a0de8b92f325cb7dfc6c1959"
          ],
          "data": "0x0000000000000000000000000000000000000000000000056bc75e2d63100000",
          "blockHash": "0x5ecb254bc6cf95286b22466815ab90017977f1fe029eeea350e21c12f7035b04",
          "blockNumber": "0x23831b6",
          "transactionHash": "0x6912a28fbc735bec5d3d6345af58d94145397be9cefd3daecc49af441b1f5e49",
          "transactionIndex": "0x3",
          "logIndex": "0x6",
          "removed": false
        },
        {
          "address": "0x0000000000000000000000000000000000001010",
          "topics": [
            "0x4dfe1bbbcf077ddc3e01291eea2d5c70c2b422b415d95645b9adcfd678cb1d63",
            "0x0000000000000000000000000000000000000000000000000000000000001010",
            "0x0000000000000000000000007d6703218ab83d5255e4532101deb294ea1b9d27",
            "0x0000000000000000000000003a22c8bc68e98b0faf40f349dd2b2890fae01484"
          ],
          "data": "0x00000000000000000000000000000000000000000000000000007a07346182c000000000000000000000000000000000000000000000000006a4c60e1f4b1d8d000000000000000000000000000000000000000000000baeb58e549a6ed1389500000000000000000000000000000000000000000000000006a44c06eae99acd000000000000000000000000000000000000000000000baeb58ecea1a332bb55",
          "blockHash": "0x5ecb254bc6cf95286b22466815ab90017977f1fe029eeea350e21c12f7035b04",
          "blockNumber": "0x23831b6",
          "transactionHash": "0x6912a28fbc735bec5d3d6345af58d94145397be9cefd3daecc49af441b1f5e49",
          "transactionIndex": "0x3",
          "logIndex": "0x7",
          "removed": false
        }
      ],
      "status": "0x1",
      "logsBloom": "0x00000000000000000100000000000000000000000000000080000000000000000000000000000000000000000000000000008000000000000000000000208000000080000000000000000000000040800000000005000000000100000000000000000000000000000000000000000000000000000000000080000000000020000000000000000000000000000000000000000000000000000000000000000000220000000000000000080000000000000000000000000000000000000000004000000000000000000001000000000100000002000000000000100000000000000010000000000000080000000000000000000000000000000000000000100000",
      "type": "0x0",
      "effectiveGasPrice": "0xacd4bcf9"
    },
    {
      "transactionHash": "0x78826067e0269331e987d7800af08e9ea57af542bc510dac07ae4885c647b9f1",
      "transactionIndex": "0x4",
      "blockHash": "0x5ecb254bc6cf95286b22466815ab90017977f1fe029eeea350e21c12f7035b04",
      "blockNumber": "0x23831b6",
      "from": "0x7d6703218ab83D5255e4532101deB294eA1b9d27",
      "to": "0x74b8693a87d0d739692325A685CD806271487D7D",
      "cumulativeGasUsed": "0xae1e4",
      "gasUsed": "0xb4c0",
      "contractAddress": null,
      "logs": [
        {
          "address": "0x74b8693a87d0d739692325A685CD806271487D7D",
          "topics": [
            "0x8c5be1e5ebec7d5bd14f71427d1e84f3dd0314c0f7b2291e5b200ac8c7c3b925",
            "0x0000000000000000000000007d6703218ab83d5255e4532101deb294ea1b9d27",
            "0x000000000000000000000000a1e9b79405959e03a0de8b92f325cb7dfc6c1959"
          ],
          "data": "0x0000000000000000000000000000000000000000000000056bc75e2d63100000",
          "blockHash": "0x5ecb254bc6cf95286b22466815ab90017977f1fe029eeea350e21c12f7035b04",
          "blockNumber": "0x23831b6",
          "transactionHash": "0x78826067e0269331e987d7800af08e9ea57af542bc510dac07ae4885c647b9f1",
          "transactionIndex": "0x4",
          "logIndex": "0x8",
          "removed": false
        },
        {
          "address": "0x0000000000000000000000000000000000001010",
          "topics": [
            "0x4dfe1bbbcf077ddc3e01291eea2d5c70c2b422b415d95645b9adcfd678cb1d63",
            "0x0000000000000000000000000000000000000000000000000000000000001010",
            "0x0000000000000000000000007d6703218ab83d5255e4532101deb294ea1b9d27",
            "0x0000000000000000000000003a22c8bc68e98b0faf40f349dd2b2890fae01484"
          ],
          "data": "0x00000000000000000000000000000000000000000000000000007a07346182c000000000000000000000000000000000000000000000000006a44c06eade4ecd000000000000000000000000000000000000000000000baeb58ecea1a332bb5500000000000000000000000000000000000000000000000006a3d1ffb67ccc0d000000000000000000000000000000000000000000000baeb58f48a8d7943e15",
          "blockHash": "0x5ecb254bc6cf95286b22466815ab90017977f1fe029eeea350e21c12f7035b04",
          "blockNumber": "0x23831b6",
          "transactionHash": "0x78826067e0269331e987d7800af08e9ea57af542bc510dac07ae4885c647b9f1",
          "transactionIndex": "0x4",
          "logIndex": "0x9",
          "removed": false
        }
      ],
      "status": "0x1",
      "logsBloom": "0x00000000000000000000000000000000004000000000000000000000000000000000000000000000000000000000000000008000000000000000000000208000000080000000000000000000000040800000000005000000000100000000000000000000000000000000000000000000000000000000000080000000000020000000000000000000000000000000000000000000000000008000000000000000220000000000000000080000000000000000000000000000000000000000004000000000000000000001000000000100000002000000000000100000000100000010000000000000000000000000000000000000000000000000000000100000",
      "type": "0x0",
      "effectiveGasPrice": "0xacd4bcf9"
    },
    {
      "transactionHash": "0xcb64d94c44321baea00b8a0cb5ed238287b95288198d7982e2ccec4d5cd46d8c",
      "transactionIndex": "0x5",
      "blockHash": "0x5ecb254bc6cf95286b22466815ab90017977f1fe029eeea350e21c12f7035b04",
      "blockNumber": "0x23831b6",
      "from": "0x7d6703218ab83D5255e4532101deB294eA1b9d27",
      "to": "0xa909FB9E10A54ABdBA7D8a808E9eDDc6431da5f2",
      "cumulativeGasUsed": "0xbab35",
      "gasUsed": "0xc951",
      "contractAddress": null,
      "logs": [
        {
          "address": "0xa909FB9E10A54ABdBA7D8a808E9eDDc6431da5f2",
          "topics": [
            "0xddf252ad1be2c89b69c2b068fc378daa952ba7f163c4a11628f55a4df523b3ef",
            "0x0000000000000000000000000000000000000000000000000000000000000000",
            "0x000000000000000000000000a1e9b79405959e03a0de8b92f325cb7dfc6c1959"
          ],
          "data": "0x00000000000000000000000000000000000004ee2d6d415b85acef8100000000",
          "blockHash": "0x5ecb254bc6cf95286b22466815ab90017977f1fe029eeea350e21c12f7035b04",
          "blockNumber": "0x23831b6",
          "transactionHash": "0xcb64d94c44321baea00b8a0cb5ed238287b95288198d7982e2ccec4d5cd46d8c",
          "transactionIndex": "0x5",
          "logIndex": "0xa",
          "removed": false
        },
        {
          "address": "0x0000000000000000000000000000000000001010",
          "topics": [
            "0x4dfe1bbbcf077ddc3e01291eea2d5c70c2b422b415d95645b9adcfd678cb1d63",
            "0x0000000000000000000000000000000000000000000000000000000000001010",
            "0x0000000000000000000000007d6703218ab83d5255e4532101deb294ea1b9d27",
            "0x0000000000000000000000003a22c8bc68e98b0faf40f349dd2b2890fae01484"
          ],
          "data": "0x000000000000000000000000000000000000000000000000000087e9b7a2b6b900000000000000000000000000000000000000000000000006a3d1ffb671800d000000000000000000000000000000000000000000000baeb58f48a8d7943e1500000000000000000000000000000000000000000000000006a34a15fecec954000000000000000000000000000000000000000000000baeb58fd0928f36f4ce",
          "blockHash": "0x5ecb254bc6cf95286b22466815ab90017977f1fe029eeea350e21c12f7035b04",
          "blockNumber": "0x23831b6",
          "transactionHash": "0xcb64d94c44321baea00b8a0cb5ed238287b95288198d7982e2ccec4d5cd46d8c",
          "transactionIndex": "0x5",
          "logIndex": "0xb",
          "removed": false
        }
      ],
      "status": "0x1",
      "logsBloom": "0x00000000000000000000000000000000000000000000000000000100000000000000000000000000000000000000000000008000000000000000000000008000000080040000000000000008000040800000000005000000000100000000000000000000020000000000000000000800000000000000000080000010000020000000000000000000000000000000000000000000000000040000000000000000200000000000000000080000000000000000000000000000000000000000004000000002000000000001000000000100000002000000000000100000000020000000000000000000000000000000000000000000000000000000000000100000",
      "type": "0x0",
      "effectiveGasPrice": "0xacd4bcf9"
    },
    {
      "transactionHash": "0x5d7c60dec14bb518106ac27e470970979b647286c1d25ae037d13577b98dae5f",
      "transactionIndex": "0x6",
      "blockHash": "0x5ecb254bc6cf95286b22466815ab90017977f1fe029eeea350e21c12f7035b04",
      "blockNumber": "0x23831b6",
      "from": "0x7d6703218ab83D5255e4532101deB294eA1b9d27",
      "to": "0x427426A550f0292b1B6D8d506ec62b8E48a6e5F2",
      "cumulativeGasUsed": "0xc7486",
      "gasUsed": "0xc951",
      "contractAddress": null,
      "logs": [
        {
          "address": "0x427426A550f0292b1B6D8d506ec62b8E48a6e5F2",
          "topics": [
            "0xddf252ad1be2c89b69c2b068fc378daa952ba7f163c4a11628f55a4df523b3ef",
            "0x0000000000000000000000000000000000000000000000000000000000000000",
            "0x000000000000000000000000a1e9b79405959e03a0de8b92f325cb7dfc6c1959"
          ],
          "data": "0x00000000000000000000000000000000000004ee2d6d415b85acef8100000000",
          "blockHash": "0x5ecb254bc6cf95286b22466815ab90017977f1fe029eeea350e21c12f7035b04",
          "blockNumber": "0x23831b6",
          "transactionHash": "0x5d7c60dec14bb518106ac27e470970979b647286c1d25ae037d13577b98dae5f",
          "transactionIndex": "0x6",
          "logIndex": "0xc",
          "removed": false
        },
        {
          "address": "0x0000000000000000000000000000000000001010",
          "topics": [
            "0x4dfe1bbbcf077ddc3e01291eea2d5c70c2b422b415d95645b9adcfd678cb1d63",
            "0x0000000000000000000000000000000000000000000000000000000000001010",
            "0x0000000000000000000000007d6703218ab83d5255e4532101deb294ea1b9d27",
            "0x0000000000000000000000003a22c8bc68e98b0faf40f349dd2b2890fae01484"
          ],
          "data": "0x000000000000000000000000000000000000000000000000000087e9b7a2b6b900000000000000000000000000000000000000000000000006a34a15fec23444000000000000000000000000000000000000000000000baeb58fd0928f36f4ce00000000000000000000000000000000000000000000000006a2c22c471f7d8b000000000000000000000000000000000000000000000baeb590587c46d9ab87",
          "blockHash": "0x5ecb254bc6cf95286b22466815ab90017977f1fe029eeea350e21c12f7035b04",
          "blockNumber": "0x23831b6",
          "transactionHash": "0x5d7c60dec14bb518106ac27e470970979b647286c1d25ae037d13577b98dae5f",
          "transactionIndex": "0x6",
          "logIndex": "0xd",
          "removed": false
        }
      ],
      "status": "0x1",
      "logsBloom": "0x00000000000000000100000000000000000000000000000080000000000000000000000000000000000000000000000000008000000000000000000000008000000080000000000000000008000040800000000005000000000100000000000000000000020000000000000000000800000000000000000080000010000020000000000000000000000000000000000000000000000000000000000000000000200000000000000000080000000000000000000000000000000000000000004000000002000000000001000000000100000002000000000000100000000020000000000000000000080000000000000000000000000000000000000000100000",
      "type": "0x0",
      "effectiveGasPrice": "0xacd4bcf9"
    },
    {
      "transactionHash": "0x4ad3a1c58e946248429e1bbd90409035664c1d722ccc71f0cc5e800a4b7a7b6d",
      "transactionIndex": "0x7",
      "blockHash": "0x5ecb254bc6cf95286b22466815ab90017977f1fe029eeea350e21c12f7035b04",
      "blockNumber": "0x23831b6",
      "from": "0x7d6703218ab83D5255e4532101deB294eA1b9d27",
      "to": "0x74b8693a87d0d739692325A685CD806271487D7D",
      "cumulativeGasUsed": "0xd3dd7",
      "gasUsed": "0xc951",
      "contractAddress": null,
      "logs": [
        {
          "address": "0x74b8693a87d0d739692325A685CD806271487D7D",
          "topics": [
            "0xddf252ad1be2c89b69c2b068fc378daa952ba7f163c4a11628f55a4df523b3ef",
            "0x0000000000000000000000000000000000000000000000000000000000000000",
            "0x000000000000000000000000a1e9b79405959e03a0de8b92f325cb7dfc6c1959"
          ],
          "data": "0x00000000000000000000000000000000000004ee2d6d415b85acef8100000000",
          "blockHash": "0x5ecb254bc6cf95286b22466815ab90017977f1fe029eeea350e21c12f7035b04",
          "blockNumber": "0x23831b6",
          "transactionHash": "0x4ad3a1c58e946248429e1bbd90409035664c1d722ccc71f0cc5e800a4b7a7b6d",
          "transactionIndex": "0x7",
          "logIndex": "0xe",
          "removed": false
        },
        {
          "address": "0x0000000000000000000000000000000000001010",
          "topics": [
            "0x4dfe1bbbcf077ddc3e01291eea2d5c70c2b422b415d95645b9adcfd678cb1d63",
            "0x0000000000000000000000000000000000000000000000000000000000001010",
            "0x0000000000000000000000007d6703218ab83d5255e4532101deb294ea1b9d27",
            "0x0000000000000000000000003a22c8bc68e98b0faf40f349dd2b2890fae01484"
          ],
          "data": "0x000000000000000000000000000000000000000000000000000087e9b7a2b6b900000000000000000000000000000000000000000000000006a2c22c4712e87b000000000000000000000000000000000000000000000baeb590587c46d9ab8700000000000000000000000000000000000000000000000006a23a428f7031c2000000000000000000000000000000000000000000000baeb590e065fe7c6240",
          "blockHash": "0x5ecb254bc6cf95286b22466815ab90017977f1fe029eeea350e21c12f7035b04",
          "blockNumber": "0x23831b6",
          "transactionHash": "0x4ad3a1c58e946248429e1bbd90409035664c1d722ccc71f0cc5e800a4b7a7b6d",
          "transactionIndex": "0x7",
          "logIndex": "0xf",
          "removed": false
        }
      ],
      "status": "0x1",
      "logsBloom": "0x00000000000000000000000000000000004000000000000000000000000000000000000000000000000000000000000000008000000000000000000000008000000080000000000000000008000040800000000005000000000100000000000000000000020000000000000000000800000000000000000080000010000020000000000000000000000000000000000000000000000000008000000000000000200000000000000000080000000000000000000000000000000000000000004000000002000000000001000000000100000002000000000000100000000120000000000000000000000000000000000000000000000000000000000000100000",
      "type": "0x0",
      "effectiveGasPrice": "0xacd4bcf9"
    }
  ],
  "libraries": [],
  "pending": [],
  "path": "C:/Users/cesar/Documents/GitHub/offline-wallet/contracts/broadcast\\Bridge.s.sol\\80001\\run-latest.json",
  "returns": {},
  "timestamp": 1687642131,
  "chain": 80001,
  "multi": false,
  "commit": "cfffa5a"
}