{
  "transactions": [
    {
      "hash": "0x195a51c956babc8f0728fab0e3ad66099bdb439e2dcda6b14a9b41b9c9853a5f",
      "transactionType": "CREATE",
      "contractName": "Bridge",
      "contractAddress": "0x3948Ffc658FD2F7739DbE02afCb7AeD8a10Bfb2b",
      "function": null,
      "arguments": [
        "[0xa909FB9E10A54ABdBA7D8a808E9eDDc6431da5f2, 0x427426A550f0292b1B6D8d506ec62b8E48a6e5F2, 0x74b8693a87d0d739692325A685CD806271487D7D]",
        "[1, 1900, 31000]",
        "0xCC737a94FecaeC165AbCf12dED095BB13F037685"
      ],
      "rpc": "https://polygon-mumbai.g.alchemy.com/v2/fJeVFG02xfcdxGUbOFwXYKPDVGuigwl_",
      "transaction": {
        "type": "0x00",
        "from": "0x7d6703218ab83d5255e4532101deb294ea1b9d27",
        "gas": "0xad0a3",
        "value": "0x0",
        "data": "0x60a0604052600180546001600160a01b031916738f9c3888bfc8a5b25aed115a82ecbb788b196d2a17905534801561003657600080fd5b506040516109633803806109638339810160408190526100559161012b565b828260005b60038110156100c2576100b0838260038110610078576100786101f0565b602002015183836003811061008f5761008f6101f0565b60200201516001600160a01b03909116600090815260208190526040902055565b806100ba81610206565b91505061005a565b5050506001600160a01b03166080525061022d9050565b604051606081016001600160401b038111828210171561010957634e487b7160e01b600052604160045260246000fd5b60405290565b80516001600160a01b038116811461012657600080fd5b919050565b600080600060e0848603121561014057600080fd5b84601f85011261014f57600080fd5b6101576100d9565b80606086018781111561016957600080fd5b865b8181101561018a5761017c8161010f565b84526020938401930161016b565b5081955087607f88011261019d57600080fd5b6101a56100d9565b925082915060c08701888111156101bb57600080fd5b5b808210156101d75781518452602093840193909101906101bc565b8295506101e38161010f565b9450505050509250925092565b634e487b7160e01b600052603260045260246000fd5b60006001820161022657634e487b7160e01b600052601160045260246000fd5b5060010190565b60805161071661024d600039600081816080015260de01526107166000f3fe6080604052600436106100295760003560e01c806356d5d4751461002e5780637c6c461914610050575b600080fd5b34801561003a57600080fd5b5061004e610049366004610471565b610075565b005b61006361005e366004610510565b6100d9565b60405190815260200160405180910390f35b336001600160a01b037f000000000000000000000000000000000000000000000000000000000000000016146100aa57600080fd5b60008080806100bb8587018761059b565b93509350935093506100cf8484848461024e565b5050505050505050565b6000807f00000000000000000000000000000000000000000000000000000000000000006001600160a01b031663fa31de018661011c876001600160a01b031690565b604080516001600160a01b03808f166020830152808e1692820192909252606081018c9052908816608082015260a0016040516020818303038152906040526040518463ffffffff1660e01b8152600401610179939291906105ee565b6020604051808303816000875af1158015610198573d6000803e3d6000fd5b505050506040513d601f19601f820116820180604052508101906101bc9190610651565b600154604051630237e58360e31b81526004810183905263ffffffff88166024820152620186a060448201523360648201529192506001600160a01b0316906311bf2c189034906084016000604051808303818588803b15801561021f57600080fd5b505af1158015610233573d6000803e3d6000fd5b505050505061024289876103d9565b98975050505050505050565b6001600160a01b0384166000908152602081905260409020546102b85760405162461bcd60e51b815260206004820152601960248201527f496e70757420746f6b656e207072696365206e6f74207365740000000000000060448201526064015b60405180910390fd5b6001600160a01b03831660009081526020819052604090205461031d5760405162461bcd60e51b815260206004820152601a60248201527f4f757470757420746f6b656e207072696365206e6f742073657400000000000060448201526064016102af565b6001600160a01b03808516600090815260208190526040808220549286168252812054908161034c848761066a565b6103569190610695565b60405163a9059cbb60e01b81526001600160a01b03868116600483015260248201839052919250879182169063a9059cbb906044016020604051808303816000875af11580156103aa573d6000803e3d6000fd5b505050506040513d601f19601f820116820180604052508101906103ce91906106b7565b505050505050505050565b6040516323b872dd60e01b81523360048201523060248201526044810182905282906001600160a01b038216906323b872dd906064016020604051808303816000875af115801561042e573d6000803e3d6000fd5b505050506040513d601f19601f8201168201806040525081019061045291906106b7565b50505050565b803563ffffffff8116811461046c57600080fd5b919050565b6000806000806060858703121561048757600080fd5b61049085610458565b935060208501359250604085013567ffffffffffffffff808211156104b457600080fd5b818701915087601f8301126104c857600080fd5b8135818111156104d757600080fd5b8860208285010111156104e957600080fd5b95989497505060200194505050565b6001600160a01b038116811461050d57600080fd5b50565b600080600080600080600060e0888a03121561052b57600080fd5b8735610536816104f8565b96506020880135610546816104f8565b95506040880135610556816104f8565b94506060880135935061056b60808901610458565b925060a088013561057b816104f8565b915060c088013561058b816104f8565b8091505092959891949750929550565b600080600080608085870312156105b157600080fd5b84356105bc816104f8565b935060208501356105cc816104f8565b92506040850135915060608501356105e3816104f8565b939692955090935050565b63ffffffff8416815260006020848184015260606040840152835180606085015260005b8181101561062e57858101830151858201608001528201610612565b506000608082860101526080601f19601f83011685010192505050949350505050565b60006020828403121561066357600080fd5b5051919050565b808202811582820484141761068f57634e487b7160e01b600052601160045260246000fd5b92915050565b6000826106b257634e487b7160e01b600052601260045260246000fd5b500490565b6000602082840312156106c957600080fd5b815180151581146106d957600080fd5b939250505056fea26469706673582212205d06869bf5e27f37e779eb4c7167e7b05cd78be5a44a4fc730de2f0e8fa065c464736f6c63430008120033000000000000000000000000a909fb9e10a54abdba7d8a808e9eddc6431da5f2000000000000000000000000427426a550f0292b1b6d8d506ec62b8e48a6e5f200000000000000000000000074b8693a87d0d739692325a685cd806271487d7d0000000000000000000000000000000000000000000000000000000000000001000000000000000000000000000000000000000000000000000000000000076c0000000000000000000000000000000000000000000000000000000000007918000000000000000000000000cc737a94fecaec165abcf12ded095bb13f037685",
        "nonce": "0x27"
      },
      "additionalContracts": []
    },
    {
      "hash": "0x7fa34c0c40fb9c824906f1a430712caa092006276e20f936553c34ac4615a20d",
      "transactionType": "CALL",
      "contractName": "MyToken",
      "contractAddress": "0xa909FB9E10A54ABdBA7D8a808E9eDDc6431da5f2",
      "function": "approve(address,uint256):(bool)",
      "arguments": [
        "0x3948Ffc658FD2F7739DbE02afCb7AeD8a10Bfb2b",
        "100000000000000000000"
      ],
      "rpc": "https://polygon-mumbai.g.alchemy.com/v2/fJeVFG02xfcdxGUbOFwXYKPDVGuigwl_",
      "transaction": {
        "type": "0x00",
        "from": "0x7d6703218ab83d5255e4532101deb294ea1b9d27",
        "to": "0xa909fb9e10a54abdba7d8a808e9eddc6431da5f2",
        "gas": "0xf9a9",
        "value": "0x0",
        "data": "0x095ea7b30000000000000000000000003948ffc658fd2f7739dbe02afcb7aed8a10bfb2b0000000000000000000000000000000000000000000000056bc75e2d63100000",
        "nonce": "0x28"
      },
      "additionalContracts": []
    },
    {
      "hash": "0x7925d2983a1b2a21c84a77d7d2b7f6177bf7f60072a7c09f228bcb7f3d34ba50",
      "transactionType": "CALL",
      "contractName": "MyToken",
      "contractAddress": "0x427426A550f0292b1B6D8d506ec62b8E48a6e5F2",
      "function": "approve(address,uint256):(bool)",
      "arguments": [
        "0x3948Ffc658FD2F7739DbE02afCb7AeD8a10Bfb2b",
        "100000000000000000000"
      ],
      "rpc": "https://polygon-mumbai.g.alchemy.com/v2/fJeVFG02xfcdxGUbOFwXYKPDVGuigwl_",
      "transaction": {
        "type": "0x00",
        "from": "0x7d6703218ab83d5255e4532101deb294ea1b9d27",
        "to": "0x427426a550f0292b1b6d8d506ec62b8e48a6e5f2",
        "gas": "0xf9a9",
        "value": "0x0",
        "data": "0x095ea7b30000000000000000000000003948ffc658fd2f7739dbe02afcb7aed8a10bfb2b0000000000000000000000000000000000000000000000056bc75e2d63100000",
        "nonce": "0x29"
      },
      "additionalContracts": []
    },
    {
      "hash": "0x51ea3c926d94e2af8c812290f813287386222787962927850468ace6abb8b1af",
      "transactionType": "CALL",
      "contractName": "MyToken",
      "contractAddress": "0x74b8693a87d0d739692325A685CD806271487D7D",
      "function": "approve(address,uint256):(bool)",
      "arguments": [
        "0x3948Ffc658FD2F7739DbE02afCb7AeD8a10Bfb2b",
        "100000000000000000000"
      ],
      "rpc": "https://polygon-mumbai.g.alchemy.com/v2/fJeVFG02xfcdxGUbOFwXYKPDVGuigwl_",
      "transaction": {
        "type": "0x00",
        "from": "0x7d6703218ab83d5255e4532101deb294ea1b9d27",
        "to": "0x74b8693a87d0d739692325a685cd806271487d7d",
        "gas": "0xf9a9",
        "value": "0x0",
        "data": "0x095ea7b30000000000000000000000003948ffc658fd2f7739dbe02afcb7aed8a10bfb2b0000000000000000000000000000000000000000000000056bc75e2d63100000",
        "nonce": "0x2a"
      },
      "additionalContracts": []
    },
    {
      "hash": "0x1392cfb7fc98aad109e47bdce9d1ad2af6803af67725a90ec66b9e6dfb74fbec",
      "transactionType": "CALL",
      "contractName": "MyToken",
      "contractAddress": "0xa909FB9E10A54ABdBA7D8a808E9eDDc6431da5f2",
      "function": "mint(address,uint256)",
      "arguments": [
        "0x3948Ffc658FD2F7739DbE02afCb7AeD8a10Bfb2b",
        "100000000000000"
      ],
      "rpc": "https://polygon-mumbai.g.alchemy.com/v2/fJeVFG02xfcdxGUbOFwXYKPDVGuigwl_",
      "transaction": {
        "type": "0x00",
        "from": "0x7d6703218ab83d5255e4532101deb294ea1b9d27",
        "to": "0xa909fb9e10a54abdba7d8a808e9eddc6431da5f2",
        "gas": "0x1266c",
        "value": "0x0",
        "data": "0x40c10f190000000000000000000000003948ffc658fd2f7739dbe02afcb7aed8a10bfb2b00000000000000000000000000000000000000000000000000005af3107a4000",
        "nonce": "0x2b"
      },
      "additionalContracts": []
    },
    {
      "hash": "0xde78d521a4d9da8f3e645ff062a667dbdd031bf57d0fefa1671f405d1bc9c44b",
      "transactionType": "CALL",
      "contractName": "MyToken",
      "contractAddress": "0x427426A550f0292b1B6D8d506ec62b8E48a6e5F2",
      "function": "mint(address,uint256)",
      "arguments": [
        "0x3948Ffc658FD2F7739DbE02afCb7AeD8a10Bfb2b",
        "100000000000000"
      ],
      "rpc": "https://polygon-mumbai.g.alchemy.com/v2/fJeVFG02xfcdxGUbOFwXYKPDVGuigwl_",
      "transaction": {
        "type": "0x00",
        "from": "0x7d6703218ab83d5255e4532101deb294ea1b9d27",
        "to": "0x427426a550f0292b1b6d8d506ec62b8e48a6e5f2",
        "gas": "0x1266c",
        "value": "0x0",
        "data": "0x40c10f190000000000000000000000003948ffc658fd2f7739dbe02afcb7aed8a10bfb2b00000000000000000000000000000000000000000000000000005af3107a4000",
        "nonce": "0x2c"
      },
      "additionalContracts": []
    },
    {
      "hash": "0x7b3eb1f900608bcd87897ac7d786240120801e5eafc6467d8aaccab34c5592c4",
      "transactionType": "CALL",
      "contractName": "MyToken",
      "contractAddress": "0x74b8693a87d0d739692325A685CD806271487D7D",
      "function": "mint(address,uint256)",
      "arguments": [
        "0x3948Ffc658FD2F7739DbE02afCb7AeD8a10Bfb2b",
        "100000000000000"
      ],
      "rpc": "https://polygon-mumbai.g.alchemy.com/v2/fJeVFG02xfcdxGUbOFwXYKPDVGuigwl_",
      "transaction": {
        "type": "0x00",
        "from": "0x7d6703218ab83d5255e4532101deb294ea1b9d27",
        "to": "0x74b8693a87d0d739692325a685cd806271487d7d",
        "gas": "0x1266c",
        "value": "0x0",
        "data": "0x40c10f190000000000000000000000003948ffc658fd2f7739dbe02afcb7aed8a10bfb2b00000000000000000000000000000000000000000000000000005af3107a4000",
        "nonce": "0x2d"
      },
      "additionalContracts": []
    }
  ],
  "receipts": [
    {
      "transactionHash": "0x195a51c956babc8f0728fab0e3ad66099bdb439e2dcda6b14a9b41b9c9853a5f",
      "transactionIndex": "0x3",
      "blockHash": "0x9c299229e5a6316d775b0328681150ddfb4aaad14b9d3c21f29cf8e047f03078",
      "blockNumber": "0x2382c19",
      "from": "0x7d6703218ab83D5255e4532101deB294eA1b9d27",
      "to": null,
      "cumulativeGasUsed": "0xbc282",
      "gasUsed": "0x851b9",
      "contractAddress": "0x3948Ffc658FD2F7739DbE02afCb7AeD8a10Bfb2b",
      "logs": [
        {
          "address": "0x0000000000000000000000000000000000001010",
          "topics": [
            "0x4dfe1bbbcf077ddc3e01291eea2d5c70c2b422b415d95645b9adcfd678cb1d63",
            "0x0000000000000000000000000000000000000000000000000000000000001010",
            "0x0000000000000000000000007d6703218ab83d5255e4532101deb294ea1b9d27",
            "0x000000000000000000000000f903ba9e006193c1527bfbe65fe2123704ea3f99"
          ],
          "data": "0x0000000000000000000000000000000000000000000000000002e7cc0b28f70000000000000000000000000000000000000000000000000006ba4ef7c3c759b3000000000000000000000000000000000000000000000f7749da1d6962a11fff00000000000000000000000000000000000000000000000006b7672bb89e62b3000000000000000000000000000000000000000000000f7749dd05356dca16ff",
          "blockHash": "0x9c299229e5a6316d775b0328681150ddfb4aaad14b9d3c21f29cf8e047f03078",
          "blockNumber": "0x2382c19",
          "transactionHash": "0x195a51c956babc8f0728fab0e3ad66099bdb439e2dcda6b14a9b41b9c9853a5f",
          "transactionIndex": "0x3",
          "logIndex": "0x9",
          "removed": false
        }
      ],
      "status": "0x1",
      "logsBloom": "0x00000000000000000000000000000000000000000000000000000010000000000000000000000020000000000000000000008000000000000000000000000000000080000000000000000000000000800000000004000000000100000000000000000000000000000000000000000000000000000000000080000000000020000000000000000000000000000000000000000000000000000000000000000000200000000000000000000000000000000000000000000000000000000000004000000000000000000001000000000000000000000000000000100000001000000000000000000000000000000000000000000000000000000000000000100000",
      "type": "0x0",
      "effectiveGasPrice": "0x59682f10"
    },
    {
      "transactionHash": "0x7fa34c0c40fb9c824906f1a430712caa092006276e20f936553c34ac4615a20d",
      "transactionIndex": "0x4",
      "blockHash": "0x9c299229e5a6316d775b0328681150ddfb4aaad14b9d3c21f29cf8e047f03078",
      "blockNumber": "0x2382c19",
      "from": "0x7d6703218ab83D5255e4532101deB294eA1b9d27",
      "to": "0xa909FB9E10A54ABdBA7D8a808E9eDDc6431da5f2",
      "cumulativeGasUsed": "0xc7742",
      "gasUsed": "0xb4c0",
      "contractAddress": null,
      "logs": [
        {
          "address": "0xa909FB9E10A54ABdBA7D8a808E9eDDc6431da5f2",
          "topics": [
            "0x8c5be1e5ebec7d5bd14f71427d1e84f3dd0314c0f7b2291e5b200ac8c7c3b925",
            "0x0000000000000000000000007d6703218ab83d5255e4532101deb294ea1b9d27",
            "0x0000000000000000000000003948ffc658fd2f7739dbe02afcb7aed8a10bfb2b"
          ],
          "data": "0x0000000000000000000000000000000000000000000000056bc75e2d63100000",
          "blockHash": "0x9c299229e5a6316d775b0328681150ddfb4aaad14b9d3c21f29cf8e047f03078",
          "blockNumber": "0x2382c19",
          "transactionHash": "0x7fa34c0c40fb9c824906f1a430712caa092006276e20f936553c34ac4615a20d",
          "transactionIndex": "0x4",
          "logIndex": "0xa",
          "removed": false
        },
        {
          "address": "0x0000000000000000000000000000000000001010",
          "topics": [
            "0x4dfe1bbbcf077ddc3e01291eea2d5c70c2b422b415d95645b9adcfd678cb1d63",
            "0x0000000000000000000000000000000000000000000000000000000000001010",
            "0x0000000000000000000000007d6703218ab83d5255e4532101deb294ea1b9d27",
            "0x000000000000000000000000f903ba9e006193c1527bfbe65fe2123704ea3f99"
          ],
          "data": "0x00000000000000000000000000000000000000000000000000003f204f2f400000000000000000000000000000000000000000000000000006b7672bb8194723000000000000000000000000000000000000000000000f7749dd05356dca16ff00000000000000000000000000000000000000000000000006b7280b68ea0723000000000000000000000000000000000000000000000f7749dd4455bcf956ff",
          "blockHash": "0x9c299229e5a6316d775b0328681150ddfb4aaad14b9d3c21f29cf8e047f03078",
          "blockNumber": "0x2382c19",
          "transactionHash": "0x7fa34c0c40fb9c824906f1a430712caa092006276e20f936553c34ac4615a20d",
          "transactionIndex": "0x4",
          "logIndex": "0xb",
          "removed": false
        }
      ],
      "status": "0x1",
      "logsBloom": "0x00000000000000000000000000000000000000000000000000000110000000000000000000000020000000000000080000008000040000000000000000200000000080040000000000000000000000800000000004000000000100000800000000000000000000000000000000000000000000000000000080000000000020000000000000000000000000000000000000000000000000040000000000000000220000000000000000000000000000000000000000000000000000000000004000000000000000000001000000000000000000000000000000100000001000000010000000000000000000000000000000000000000000000000000000100000",
      "type": "0x0",
      "effectiveGasPrice": "0x59682f10"
    },
    {
      "transactionHash": "0x7925d2983a1b2a21c84a77d7d2b7f6177bf7f60072a7c09f228bcb7f3d34ba50",
      "transactionIndex": "0x5",
      "blockHash": "0x9c299229e5a6316d775b0328681150ddfb4aaad14b9d3c21f29cf8e047f03078",
      "blockNumber": "0x2382c19",
      "from": "0x7d6703218ab83D5255e4532101deB294eA1b9d27",
      "to": "0x427426A550f0292b1B6D8d506ec62b8E48a6e5F2",
      "cumulativeGasUsed": "0xd2c02",
      "gasUsed": "0xb4c0",
      "contractAddress": null,
      "logs": [
        {
          "address": "0x427426A550f0292b1B6D8d506ec62b8E48a6e5F2",
          "topics": [
            "0x8c5be1e5ebec7d5bd14f71427d1e84f3dd0314c0f7b2291e5b200ac8c7c3b925",
            "0x0000000000000000000000007d6703218ab83d5255e4532101deb294ea1b9d27",
            "0x0000000000000000000000003948ffc658fd2f7739dbe02afcb7aed8a10bfb2b"
          ],
          "data": "0x0000000000000000000000000000000000000000000000056bc75e2d63100000",
          "blockHash": "0x9c299229e5a6316d775b0328681150ddfb4aaad14b9d3c21f29cf8e047f03078",
          "blockNumber": "0x2382c19",
          "transactionHash": "0x7925d2983a1b2a21c84a77d7d2b7f6177bf7f60072a7c09f228bcb7f3d34ba50",
          "transactionIndex": "0x5",
          "logIndex": "0xc",
          "removed": false
        },
        {
          "address": "0x0000000000000000000000000000000000001010",
          "topics": [
            "0x4dfe1bbbcf077ddc3e01291eea2d5c70c2b422b415d95645b9adcfd678cb1d63",
            "0x0000000000000000000000000000000000000000000000000000000000001010",
            "0x0000000000000000000000007d6703218ab83d5255e4532101deb294ea1b9d27",
            "0x000000000000000000000000f903ba9e006193c1527bfbe65fe2123704ea3f99"
          ],
          "data": "0x00000000000000000000000000000000000000000000000000003f204f2f400000000000000000000000000000000000000000000000000006b7280b68debb23000000000000000000000000000000000000000000000f7749dd4455bcf956ff00000000000000000000000000000000000000000000000006b6e8eb19af7b23000000000000000000000000000000000000000000000f7749dd83760c2896ff",
          "blockHash": "0x9c299229e5a6316d775b0328681150ddfb4aaad14b9d3c21f29cf8e047f03078",
          "blockNumber": "0x2382c19",
          "transactionHash": "0x7925d2983a1b2a21c84a77d7d2b7f6177bf7f60072a7c09f228bcb7f3d34ba50",
          "transactionIndex": "0x5",
          "logIndex": "0xd",
          "removed": false
        }
      ],
      "status": "0x1",
      "logsBloom": "0x00000000000000000100000000000000000000000000000080000010000000000000000000000020000000000000080000008000040000000000000000200000000080000000000000000000000000800000000004000000000100000800000000000000000000000000000000000000000000000000000080000000000020000000000000000000000000000000000000000000000000000000000000000000220000000000000000000000000000000000000000000000000000000000004000000000000000000001000000000000000000000000000000100000001000000010000000000000080000000000000000000000000000000000000000100000",
      "type": "0x0",
      "effectiveGasPrice": "0x59682f10"
    },
    {
      "transactionHash": "0x51ea3c926d94e2af8c812290f813287386222787962927850468ace6abb8b1af",
      "transactionIndex": "0x6",
      "blockHash": "0x9c299229e5a6316d775b0328681150ddfb4aaad14b9d3c21f29cf8e047f03078",
      "blockNumber": "0x2382c19",
      "from": "0x7d6703218ab83D5255e4532101deB294eA1b9d27",
      "to": "0x74b8693a87d0d739692325A685CD806271487D7D",
      "cumulativeGasUsed": "0xde0c2",
      "gasUsed": "0xb4c0",
      "contractAddress": null,
      "logs": [
        {
          "address": "0x74b8693a87d0d739692325A685CD806271487D7D",
          "topics": [
            "0x8c5be1e5ebec7d5bd14f71427d1e84f3dd0314c0f7b2291e5b200ac8c7c3b925",
            "0x0000000000000000000000007d6703218ab83d5255e4532101deb294ea1b9d27",
            "0x0000000000000000000000003948ffc658fd2f7739dbe02afcb7aed8a10bfb2b"
          ],
          "data": "0x0000000000000000000000000000000000000000000000056bc75e2d63100000",
          "blockHash": "0x9c299229e5a6316d775b0328681150ddfb4aaad14b9d3c21f29cf8e047f03078",
          "blockNumber": "0x2382c19",
          "transactionHash": "0x51ea3c926d94e2af8c812290f813287386222787962927850468ace6abb8b1af",
          "transactionIndex": "0x6",
          "logIndex": "0xe",
          "removed": false
        },
        {
          "address": "0x0000000000000000000000000000000000001010",
          "topics": [
            "0x4dfe1bbbcf077ddc3e01291eea2d5c70c2b422b415d95645b9adcfd678cb1d63",
            "0x0000000000000000000000000000000000000000000000000000000000001010",
            "0x0000000000000000000000007d6703218ab83d5255e4532101deb294ea1b9d27",
            "0x000000000000000000000000f903ba9e006193c1527bfbe65fe2123704ea3f99"
          ],
          "data": "0x00000000000000000000000000000000000000000000000000003f204f2f400000000000000000000000000000000000000000000000000006b6e8eb19a42f23000000000000000000000000000000000000000000000f7749dd83760c2896ff00000000000000000000000000000000000000000000000006b6a9caca74ef23000000000000000000000000000000000000000000000f7749ddc2965b57d6ff",
          "blockHash": "0x9c299229e5a6316d775b0328681150ddfb4aaad14b9d3c21f29cf8e047f03078",
          "blockNumber": "0x2382c19",
          "transactionHash": "0x51ea3c926d94e2af8c812290f813287386222787962927850468ace6abb8b1af",
          "transactionIndex": "0x6",
          "logIndex": "0xf",
          "removed": false
        }
      ],
      "status": "0x1",
      "logsBloom": "0x00000000000000000000000000000000004000000000000000000010000000000000000000000020000000000000080000008000040000000000000000200000000080000000000000000000000000800000000004000000000100000800000000000000000000000000000000000000000000000000000080000000000020000000000000000000000000000000000000000000000000008000000000000000220000000000000000000000000000000000000000000000000000000000004000000000000000000001000000000000000000000000000000100000001100000010000000000000000000000000000000000000000000000000000000100000",
      "type": "0x0",
      "effectiveGasPrice": "0x59682f10"
    },
    {
      "transactionHash": "0x1392cfb7fc98aad109e47bdce9d1ad2af6803af67725a90ec66b9e6dfb74fbec",
      "transactionIndex": "0x7",
      "blockHash": "0x9c299229e5a6316d775b0328681150ddfb4aaad14b9d3c21f29cf8e047f03078",
      "blockNumber": "0x2382c19",
      "from": "0x7d6703218ab83D5255e4532101deB294eA1b9d27",
      "to": "0xa909FB9E10A54ABdBA7D8a808E9eDDc6431da5f2",
      "cumulativeGasUsed": "0xeaa13",
      "gasUsed": "0xc951",
      "contractAddress": null,
      "logs": [
        {
          "address": "0xa909FB9E10A54ABdBA7D8a808E9eDDc6431da5f2",
          "topics": [
            "0xddf252ad1be2c89b69c2b068fc378daa952ba7f163c4a11628f55a4df523b3ef",
            "0x0000000000000000000000000000000000000000000000000000000000000000",
            "0x0000000000000000000000003948ffc658fd2f7739dbe02afcb7aed8a10bfb2b"
          ],
          "data": "0x00000000000000000000000000000000000004ee2d6d415b85acef8100000000",
          "blockHash": "0x9c299229e5a6316d775b0328681150ddfb4aaad14b9d3c21f29cf8e047f03078",
          "blockNumber": "0x2382c19",
          "transactionHash": "0x1392cfb7fc98aad109e47bdce9d1ad2af6803af67725a90ec66b9e6dfb74fbec",
          "transactionIndex": "0x7",
          "logIndex": "0x10",
          "removed": false
        },
        {
          "address": "0x0000000000000000000000000000000000001010",
          "topics": [
            "0x4dfe1bbbcf077ddc3e01291eea2d5c70c2b422b415d95645b9adcfd678cb1d63",
            "0x0000000000000000000000000000000000000000000000000000000000001010",
            "0x0000000000000000000000007d6703218ab83d5255e4532101deb294ea1b9d27",
            "0x000000000000000000000000f903ba9e006193c1527bfbe65fe2123704ea3f99"
          ],
          "data": "0x0000000000000000000000000000000000000000000000000000464f16dddf0000000000000000000000000000000000000000000000000006b6a9caca69a323000000000000000000000000000000000000000000000f7749ddc2965b57d6ff00000000000000000000000000000000000000000000000006b6637bb38bc423000000000000000000000000000000000000000000000f7749de08e57235b5ff",
          "blockHash": "0x9c299229e5a6316d775b0328681150ddfb4aaad14b9d3c21f29cf8e047f03078",
          "blockNumber": "0x2382c19",
          "transactionHash": "0x1392cfb7fc98aad109e47bdce9d1ad2af6803af67725a90ec66b9e6dfb74fbec",
          "transactionIndex": "0x7",
          "logIndex": "0x11",
          "removed": false
        }
      ],
      "status": "0x1",
      "logsBloom": "0x00000000000000000000000000000000000000000000000000000110000000000000000000000020000000000000080000008000040000000000000000000000000080040000000000000008000000800000000004000000000100000800000000000000020000000000000000000800000000000000000080000010000020000000000000000000000000000000000000000000000000040000000000000000200000000000000000000000000000000000000000000000000000000000004000000002000000000001000000000000000000000000000000100000001020000000000000000000000000000000000000000000000000000000000000100000",
      "type": "0x0",
      "effectiveGasPrice": "0x59682f10"
    },
    {
      "transactionHash": "0xde78d521a4d9da8f3e645ff062a667dbdd031bf57d0fefa1671f405d1bc9c44b",
      "transactionIndex": "0x8",
      "blockHash": "0x9c299229e5a6316d775b0328681150ddfb4aaad14b9d3c21f29cf8e047f03078",
      "blockNumber": "0x2382c19",
      "from": "0x7d6703218ab83D5255e4532101deB294eA1b9d27",
      "to": "0x427426A550f0292b1B6D8d506ec62b8E48a6e5F2",
      "cumulativeGasUsed": "0xf7364",
      "gasUsed": "0xc951",
      "contractAddress": null,
      "logs": [
        {
          "address": "0x427426A550f0292b1B6D8d506ec62b8E48a6e5F2",
          "topics": [
            "0xddf252ad1be2c89b69c2b068fc378daa952ba7f163c4a11628f55a4df523b3ef",
            "0x0000000000000000000000000000000000000000000000000000000000000000",
            "0x0000000000000000000000003948ffc658fd2f7739dbe02afcb7aed8a10bfb2b"
          ],
          "data": "0x00000000000000000000000000000000000004ee2d6d415b85acef8100000000",
          "blockHash": "0x9c299229e5a6316d775b0328681150ddfb4aaad14b9d3c21f29cf8e047f03078",
          "blockNumber": "0x2382c19",
          "transactionHash": "0xde78d521a4d9da8f3e645ff062a667dbdd031bf57d0fefa1671f405d1bc9c44b",
          "transactionIndex": "0x8",
          "logIndex": "0x12",
          "removed": false
        },
        {
          "address": "0x0000000000000000000000000000000000001010",
          "topics": [
            "0x4dfe1bbbcf077ddc3e01291eea2d5c70c2b422b415d95645b9adcfd678cb1d63",
            "0x0000000000000000000000000000000000000000000000000000000000001010",
            "0x0000000000000000000000007d6703218ab83d5255e4532101deb294ea1b9d27",
            "0x000000000000000000000000f903ba9e006193c1527bfbe65fe2123704ea3f99"
          ],
          "data": "0x0000000000000000000000000000000000000000000000000000464f16dddf0000000000000000000000000000000000000000000000000006b6637bb37f2f13000000000000000000000000000000000000000000000f7749de08e57235b5ff00000000000000000000000000000000000000000000000006b61d2c9ca15013000000000000000000000000000000000000000000000f7749de4f34891394ff",
          "blockHash": "0x9c299229e5a6316d775b0328681150ddfb4aaad14b9d3c21f29cf8e047f03078",
          "blockNumber": "0x2382c19",
          "transactionHash": "0xde78d521a4d9da8f3e645ff062a667dbdd031bf57d0fefa1671f405d1bc9c44b",
          "transactionIndex": "0x8",
          "logIndex": "0x13",
          "removed": false
        }
      ],
      "status": "0x1",
      "logsBloom": "0x00000000000000000100000000000000000000000000000080000010000000000000000000000020000000000000080000008000040000000000000000000000000080000000000000000008000000800000000004000000000100000800000000000000020000000000000000000800000000000000000080000010000020000000000000000000000000000000000000000000000000000000000000000000200000000000000000000000000000000000000000000000000000000000004000000002000000000001000000000000000000000000000000100000001020000000000000000000080000000000000000000000000000000000000000100000",
      "type": "0x0",
      "effectiveGasPrice": "0x59682f10"
    },
    {
      "transactionHash": "0x7b3eb1f900608bcd87897ac7d786240120801e5eafc6467d8aaccab34c5592c4",
      "transactionIndex": "0x9",
      "blockHash": "0x9c299229e5a6316d775b0328681150ddfb4aaad14b9d3c21f29cf8e047f03078",
      "blockNumber": "0x2382c19",
      "from": "0x7d6703218ab83D5255e4532101deB294eA1b9d27",
      "to": "0x74b8693a87d0d739692325A685CD806271487D7D",
      "cumulativeGasUsed": "0x103cb5",
      "gasUsed": "0xc951",
      "contractAddress": null,
      "logs": [
        {
          "address": "0x74b8693a87d0d739692325A685CD806271487D7D",
          "topics": [
            "0xddf252ad1be2c89b69c2b068fc378daa952ba7f163c4a11628f55a4df523b3ef",
            "0x0000000000000000000000000000000000000000000000000000000000000000",
            "0x0000000000000000000000003948ffc658fd2f7739dbe02afcb7aed8a10bfb2b"
          ],
          "data": "0x00000000000000000000000000000000000004ee2d6d415b85acef8100000000",
          "blockHash": "0x9c299229e5a6316d775b0328681150ddfb4aaad14b9d3c21f29cf8e047f03078",
          "blockNumber": "0x2382c19",
          "transactionHash": "0x7b3eb1f900608bcd87897ac7d786240120801e5eafc6467d8aaccab34c5592c4",
          "transactionIndex": "0x9",
          "logIndex": "0x14",
          "removed": false
        },
        {
          "address": "0x0000000000000000000000000000000000001010",
          "topics": [
            "0x4dfe1bbbcf077ddc3e01291eea2d5c70c2b422b415d95645b9adcfd678cb1d63",
            "0x0000000000000000000000000000000000000000000000000000000000001010",
            "0x0000000000000000000000007d6703218ab83d5255e4532101deb294ea1b9d27",
            "0x000000000000000000000000f903ba9e006193c1527bfbe65fe2123704ea3f99"
          ],
          "data": "0x0000000000000000000000000000000000000000000000000000464f16dddf0000000000000000000000000000000000000000000000000006b61d2c9c94bb03000000000000000000000000000000000000000000000f7749de4f34891394ff00000000000000000000000000000000000000000000000006b5d6dd85b6dc03000000000000000000000000000000000000000000000f7749de95839ff173ff",
          "blockHash": "0x9c299229e5a6316d775b0328681150ddfb4aaad14b9d3c21f29cf8e047f03078",
          "blockNumber": "0x2382c19",
          "transactionHash": "0x7b3eb1f900608bcd87897ac7d786240120801e5eafc6467d8aaccab34c5592c4",
          "transactionIndex": "0x9",
          "logIndex": "0x15",
          "removed": false
        }
      ],
      "status": "0x1",
      "logsBloom": "0x00000000000000000000000000000000004000000000000000000010000000000000000000000020000000000000080000008000040000000000000000000000000080000000000000000008000000800000000004000000000100000800000000000000020000000000000000000800000000000000000080000010000020000000000000000000000000000000000000000000000000008000000000000000200000000000000000000000000000000000000000000000000000000000004000000002000000000001000000000000000000000000000000100000001120000000000000000000000000000000000000000000000000000000000000100000",
      "type": "0x0",
      "effectiveGasPrice": "0x59682f10"
    }
  ],
  "libraries": [],
  "pending": [],
  "path": "C:/Users/cesar/Documents/GitHub/offline-wallet/contracts/broadcast\\Bridge.s.sol\\80001\\run-latest.json",
  "returns": {},
  "timestamp": 1687638507,
  "chain": 80001,
  "multi": false,
  "commit": "b1ceca8"
}