{
  "transactions": [
    {
      "hash": "0x7c9ffaa48acbb49b11c87e51725fafd339eb1bc9fbab56fe4c3a92139735d2da",
      "transactionType": "CREATE",
      "contractName": "Bridge",
      "contractAddress": "0xf3679DBeb5954a39a0a2dddb715A4409A4bD81ee",
      "function": null,
      "arguments": [
        "[0x8ACFC9D02FB13d83eE4Cfa9102d50f7abD0C3656, 0x83EbCEF22bD896e522d27AF442Bf7F3f1efB52Eb, 0xad7204FEF049294eEeD3046Cbc5995C123D83eE0]",
        "[1, 1900, 31000]",
        "0xCC737a94FecaeC165AbCf12dED095BB13F037685"
      ],
      "rpc": "https://eth-goerli.g.alchemy.com/v2/75qiyn1_EpxCn93X5tD7yEtmcXUM_Udw",
      "transaction": {
        "type": "0x02",
        "from": "0x7d6703218ab83d5255e4532101deb294ea1b9d27",
        "gas": "0x9da8d",
        "value": "0x0",
        "data": "0x60a0604052600180546001600160a01b031916738f9c3888bfc8a5b25aed115a82ecbb788b196d2a17905534801561003657600080fd5b506040516108833803806108838339810160408190526100559161012b565b828260005b60038110156100c2576100b0838260038110610078576100786101f0565b602002015183836003811061008f5761008f6101f0565b60200201516001600160a01b03909116600090815260208190526040902055565b806100ba81610206565b91505061005a565b5050506001600160a01b03166080525061022d9050565b604051606081016001600160401b038111828210171561010957634e487b7160e01b600052604160045260246000fd5b60405290565b80516001600160a01b038116811461012657600080fd5b919050565b600080600060e0848603121561014057600080fd5b84601f85011261014f57600080fd5b6101576100d9565b80606086018781111561016957600080fd5b865b8181101561018a5761017c8161010f565b84526020938401930161016b565b5081955087607f88011261019d57600080fd5b6101a56100d9565b925082915060c08701888111156101bb57600080fd5b5b808210156101d75781518452602093840193909101906101bc565b8295506101e38161010f565b9450505050509250925092565b634e487b7160e01b600052603260045260246000fd5b60006001820161022657634e487b7160e01b600052601160045260246000fd5b5060010190565b60805161063561024e600039600081816080015261011601526106356000f3fe6080604052600436106100295760003560e01c806356d5d4751461002e5780637c6c461914610050575b600080fd5b34801561003a57600080fd5b5061004e6100493660046103a1565b610075565b005b61006361005e366004610440565b6100d4565b60405190815260200160405180910390f35b336001600160a01b037f000000000000000000000000000000000000000000000000000000000000000016146100aa57600080fd5b600080806100ba848601866104cb565b9250925092506100cb83838361028c565b50505050505050565b6001600160a01b038088166000908152602081905260408082205492891682528120549091908282610106838a61050d565b6101109190610538565b905060007f00000000000000000000000000000000000000000000000000000000000000006001600160a01b031663fa31de01896101548a6001600160a01b031690565b8d8d8b604051602001610187939291906001600160a01b0393841681526020810192909252909116604082015260600190565b6040516020818303038152906040526040518463ffffffff1660e01b81526004016101b49392919061055a565b6020604051808303816000875af11580156101d3573d6000803e3d6000fd5b505050506040513d601f19601f820116820180604052508101906101f791906105bd565b600154604051630237e58360e31b81526004810183905263ffffffff8b1660248201526207a12060448201523360648201529192506001600160a01b0316906311bf2c189034906084016000604051808303818588803b15801561025a57600080fd5b505af115801561026e573d6000803e3d6000fd5b505050505061027d8c83610309565b9b9a5050505050505050505050565b60405163a9059cbb60e01b81526001600160a01b0382811660048301526024820184905284919082169063a9059cbb906044016020604051808303816000875af11580156102de573d6000803e3d6000fd5b505050506040513d601f19601f8201168201806040525081019061030291906105d6565b5050505050565b6040516323b872dd60e01b81523360048201523060248201526044810182905282906001600160a01b038216906323b872dd906064016020604051808303816000875af115801561035e573d6000803e3d6000fd5b505050506040513d601f19601f8201168201806040525081019061038291906105d6565b50505050565b803563ffffffff8116811461039c57600080fd5b919050565b600080600080606085870312156103b757600080fd5b6103c085610388565b935060208501359250604085013567ffffffffffffffff808211156103e457600080fd5b818701915087601f8301126103f857600080fd5b81358181111561040757600080fd5b88602082850101111561041957600080fd5b95989497505060200194505050565b6001600160a01b038116811461043d57600080fd5b50565b600080600080600080600060e0888a03121561045b57600080fd5b873561046681610428565b9650602088013561047681610428565b9550604088013561048681610428565b94506060880135935061049b60808901610388565b925060a08801356104ab81610428565b915060c08801356104bb81610428565b8091505092959891949750929550565b6000806000606084860312156104e057600080fd5b83356104eb81610428565b925060208401359150604084013561050281610428565b809150509250925092565b808202811582820484141761053257634e487b7160e01b600052601160045260246000fd5b92915050565b60008261055557634e487b7160e01b600052601260045260246000fd5b500490565b63ffffffff8416815260006020848184015260606040840152835180606085015260005b8181101561059a5785810183015185820160800152820161057e565b506000608082860101526080601f19601f83011685010192505050949350505050565b6000602082840312156105cf57600080fd5b5051919050565b6000602082840312156105e857600080fd5b815180151581146105f857600080fd5b939250505056fea2646970667358221220cb3c3d6f3eba19e8d715c79835dd280eb16f37b6d5c900b736d4a72ba320f51264736f6c634300081200330000000000000000000000008acfc9d02fb13d83ee4cfa9102d50f7abd0c365600000000000000000000000083ebcef22bd896e522d27af442bf7f3f1efb52eb000000000000000000000000ad7204fef049294eeed3046cbc5995c123d83ee00000000000000000000000000000000000000000000000000000000000000001000000000000000000000000000000000000000000000000000000000000076c0000000000000000000000000000000000000000000000000000000000007918000000000000000000000000cc737a94fecaec165abcf12ded095bb13f037685",
        "nonce": "0xcc",
        "accessList": []
      },
      "additionalContracts": []
    },
    {
      "hash": "0xc3c43c465008407da23c709a6dea19c01cc1134d501fb70ef0d0d9086a7b3731",
      "transactionType": "CALL",
      "contractName": "MyToken",
      "contractAddress": "0x8ACFC9D02FB13d83eE4Cfa9102d50f7abD0C3656",
      "function": "approve(address,uint256):(bool)",
      "arguments": [
        "0xf3679DBeb5954a39a0a2dddb715A4409A4bD81ee",
        "100000000000000000000"
      ],
      "rpc": "https://eth-goerli.g.alchemy.com/v2/75qiyn1_EpxCn93X5tD7yEtmcXUM_Udw",
      "transaction": {
        "type": "0x02",
        "from": "0x7d6703218ab83d5255e4532101deb294ea1b9d27",
        "to": "0x8acfc9d02fb13d83ee4cfa9102d50f7abd0c3656",
        "gas": "0xf9a9",
        "value": "0x0",
        "data": "0x095ea7b3000000000000000000000000f3679dbeb5954a39a0a2dddb715a4409a4bd81ee0000000000000000000000000000000000000000000000056bc75e2d63100000",
        "nonce": "0xcd",
        "accessList": []
      },
      "additionalContracts": []
    },
    {
      "hash": "0xfb3a17775b04ba692bf83a910e9f04b0dea7b32316d807a9aeb395eb25e334a9",
      "transactionType": "CALL",
      "contractName": "MyToken",
      "contractAddress": "0x83EbCEF22bD896e522d27AF442Bf7F3f1efB52Eb",
      "function": "approve(address,uint256):(bool)",
      "arguments": [
        "0xf3679DBeb5954a39a0a2dddb715A4409A4bD81ee",
        "100000000000000000000"
      ],
      "rpc": "https://eth-goerli.g.alchemy.com/v2/75qiyn1_EpxCn93X5tD7yEtmcXUM_Udw",
      "transaction": {
        "type": "0x02",
        "from": "0x7d6703218ab83d5255e4532101deb294ea1b9d27",
        "to": "0x83ebcef22bd896e522d27af442bf7f3f1efb52eb",
        "gas": "0xf9a9",
        "value": "0x0",
        "data": "0x095ea7b3000000000000000000000000f3679dbeb5954a39a0a2dddb715a4409a4bd81ee0000000000000000000000000000000000000000000000056bc75e2d63100000",
        "nonce": "0xce",
        "accessList": []
      },
      "additionalContracts": []
    },
    {
      "hash": "0xa6285e30c9f1407e240f6ea7ad12f2181f7deeba24b08ea4e9a7f6273b9f2b51",
      "transactionType": "CALL",
      "contractName": "MyToken",
      "contractAddress": "0xad7204FEF049294eEeD3046Cbc5995C123D83eE0",
      "function": "approve(address,uint256):(bool)",
      "arguments": [
        "0xf3679DBeb5954a39a0a2dddb715A4409A4bD81ee",
        "100000000000000000000"
      ],
      "rpc": "https://eth-goerli.g.alchemy.com/v2/75qiyn1_EpxCn93X5tD7yEtmcXUM_Udw",
      "transaction": {
        "type": "0x02",
        "from": "0x7d6703218ab83d5255e4532101deb294ea1b9d27",
        "to": "0xad7204fef049294eeed3046cbc5995c123d83ee0",
        "gas": "0xf9a9",
        "value": "0x0",
        "data": "0x095ea7b3000000000000000000000000f3679dbeb5954a39a0a2dddb715a4409a4bd81ee0000000000000000000000000000000000000000000000056bc75e2d63100000",
        "nonce": "0xcf",
        "accessList": []
      },
      "additionalContracts": []
    },
    {
      "hash": "0xd850b79c6e0b07b67a16d9131e15a3a0bd9d662a5bab48659a1a03b8297c100b",
      "transactionType": "CALL",
      "contractName": "MyToken",
      "contractAddress": "0x8ACFC9D02FB13d83eE4Cfa9102d50f7abD0C3656",
      "function": "mint(address,uint256)",
      "arguments": [
        "0xf3679DBeb5954a39a0a2dddb715A4409A4bD81ee",
        "100000000000000"
      ],
      "rpc": "https://eth-goerli.g.alchemy.com/v2/75qiyn1_EpxCn93X5tD7yEtmcXUM_Udw",
      "transaction": {
        "type": "0x02",
        "from": "0x7d6703218ab83d5255e4532101deb294ea1b9d27",
        "to": "0x8acfc9d02fb13d83ee4cfa9102d50f7abd0c3656",
        "gas": "0x1266c",
        "value": "0x0",
        "data": "0x40c10f19000000000000000000000000f3679dbeb5954a39a0a2dddb715a4409a4bd81ee00000000000000000000000000000000000000000000000000005af3107a4000",
        "nonce": "0xd0",
        "accessList": []
      },
      "additionalContracts": []
    },
    {
      "hash": "0x91d2e58da8d86cd7bd83956de0752e773643af977f6ce605e79fbb04fc3c8542",
      "transactionType": "CALL",
      "contractName": "MyToken",
      "contractAddress": "0x83EbCEF22bD896e522d27AF442Bf7F3f1efB52Eb",
      "function": "mint(address,uint256)",
      "arguments": [
        "0xf3679DBeb5954a39a0a2dddb715A4409A4bD81ee",
        "100000000000000"
      ],
      "rpc": "https://eth-goerli.g.alchemy.com/v2/75qiyn1_EpxCn93X5tD7yEtmcXUM_Udw",
      "transaction": {
        "type": "0x02",
        "from": "0x7d6703218ab83d5255e4532101deb294ea1b9d27",
        "to": "0x83ebcef22bd896e522d27af442bf7f3f1efb52eb",
        "gas": "0x1266c",
        "value": "0x0",
        "data": "0x40c10f19000000000000000000000000f3679dbeb5954a39a0a2dddb715a4409a4bd81ee00000000000000000000000000000000000000000000000000005af3107a4000",
        "nonce": "0xd1",
        "accessList": []
      },
      "additionalContracts": []
    },
    {
      "hash": "0xc37905134bb224bffc34ee8714afdd2479be3789f1d4475376baf9314bc0261c",
      "transactionType": "CALL",
      "contractName": "MyToken",
      "contractAddress": "0xad7204FEF049294eEeD3046Cbc5995C123D83eE0",
      "function": "mint(address,uint256)",
      "arguments": [
        "0xf3679DBeb5954a39a0a2dddb715A4409A4bD81ee",
        "100000000000000"
      ],
      "rpc": "https://eth-goerli.g.alchemy.com/v2/75qiyn1_EpxCn93X5tD7yEtmcXUM_Udw",
      "transaction": {
        "type": "0x02",
        "from": "0x7d6703218ab83d5255e4532101deb294ea1b9d27",
        "to": "0xad7204fef049294eeed3046cbc5995c123d83ee0",
        "gas": "0x1266c",
        "value": "0x0",
        "data": "0x40c10f19000000000000000000000000f3679dbeb5954a39a0a2dddb715a4409a4bd81ee00000000000000000000000000000000000000000000000000005af3107a4000",
        "nonce": "0xd2",
        "accessList": []
      },
      "additionalContracts": []
    }
  ],
  "receipts": [
    {
      "transactionHash": "0x7c9ffaa48acbb49b11c87e51725fafd339eb1bc9fbab56fe4c3a92139735d2da",
      "transactionIndex": "0x1",
      "blockHash": "0x953ef93e835246b1d8c71e7fde98757daf8863137f6a0452e0cf78bca8f6e2b8",
      "blockNumber": "0x8ce8a9",
      "from": "0x7d6703218ab83D5255e4532101deB294eA1b9d27",
      "to": null,
      "cumulativeGasUsed": "0x98f2f",
      "gasUsed": "0x79505",
      "contractAddress": "0xf3679DBeb5954a39a0a2dddb715A4409A4bD81ee",
      "logs": [],
      "status": "0x1",
      "logsBloom": "0x00000000000000000000000000000000000000000000000000000000000000000000000000000000000000000000000000000000000000000000000000000000000000000000000000000000000000000000000000000000000000000000000000000000000000000000000000000000000000000000000000000000000000000000000000000000000000000000000000000000000000000000000000000000000000000000000000000000000000000000000000000000000000000000000000000000000000000000000000000000000000000000000000000000000000000000000000000000000000000000000000000000000000000000000000000000",
      "type": "0x2",
      "effectiveGasPrice": "0xb2dd8a0c"
    },
    {
      "transactionHash": "0xc3c43c465008407da23c709a6dea19c01cc1134d501fb70ef0d0d9086a7b3731",
      "transactionIndex": "0x2",
      "blockHash": "0x953ef93e835246b1d8c71e7fde98757daf8863137f6a0452e0cf78bca8f6e2b8",
      "blockNumber": "0x8ce8a9",
      "from": "0x7d6703218ab83D5255e4532101deB294eA1b9d27",
      "to": "0x8ACFC9D02FB13d83eE4Cfa9102d50f7abD0C3656",
      "cumulativeGasUsed": "0xa43ef",
      "gasUsed": "0xb4c0",
      "contractAddress": null,
      "logs": [
        {
          "address": "0x8ACFC9D02FB13d83eE4Cfa9102d50f7abD0C3656",
          "topics": [
            "0x8c5be1e5ebec7d5bd14f71427d1e84f3dd0314c0f7b2291e5b200ac8c7c3b925",
            "0x0000000000000000000000007d6703218ab83d5255e4532101deb294ea1b9d27",
            "0x000000000000000000000000f3679dbeb5954a39a0a2dddb715a4409a4bd81ee"
          ],
          "data": "0x0000000000000000000000000000000000000000000000056bc75e2d63100000",
          "blockHash": "0x953ef93e835246b1d8c71e7fde98757daf8863137f6a0452e0cf78bca8f6e2b8",
          "blockNumber": "0x8ce8a9",
          "transactionHash": "0xc3c43c465008407da23c709a6dea19c01cc1134d501fb70ef0d0d9086a7b3731",
          "transactionIndex": "0x2",
          "logIndex": "0x0",
          "removed": false
        }
      ],
      "status": "0x1",
      "logsBloom": "0x00000000000000000000000000000000000000000000000000008000000000000000000000000000000000000000001000000000000000000000000000200000000080000000000000000000000000000000000004000000000000000000000000000000000000000000000000000000000000000000000000000000000020000000000000000000000000400000000000000040000000000000000000000000020000000000000000000000000000000000000000000000000000000000000000000000000000000000400000000000000000000000000000000000000000000010000000000000400000000000000000000000000000000000000000000000",
      "type": "0x2",
      "effectiveGasPrice": "0xb2dd8a0c"
    },
    {
      "transactionHash": "0xfb3a17775b04ba692bf83a910e9f04b0dea7b32316d807a9aeb395eb25e334a9",
      "transactionIndex": "0x3",
      "blockHash": "0x953ef93e835246b1d8c71e7fde98757daf8863137f6a0452e0cf78bca8f6e2b8",
      "blockNumber": "0x8ce8a9",
      "from": "0x7d6703218ab83D5255e4532101deB294eA1b9d27",
      "to": "0x83EbCEF22bD896e522d27AF442Bf7F3f1efB52Eb",
      "cumulativeGasUsed": "0xaf8af",
      "gasUsed": "0xb4c0",
      "contractAddress": null,
      "logs": [
        {
          "address": "0x83EbCEF22bD896e522d27AF442Bf7F3f1efB52Eb",
          "topics": [
            "0x8c5be1e5ebec7d5bd14f71427d1e84f3dd0314c0f7b2291e5b200ac8c7c3b925",
            "0x0000000000000000000000007d6703218ab83d5255e4532101deb294ea1b9d27",
            "0x000000000000000000000000f3679dbeb5954a39a0a2dddb715a4409a4bd81ee"
          ],
          "data": "0x0000000000000000000000000000000000000000000000056bc75e2d63100000",
          "blockHash": "0x953ef93e835246b1d8c71e7fde98757daf8863137f6a0452e0cf78bca8f6e2b8",
          "blockNumber": "0x8ce8a9",
          "transactionHash": "0xfb3a17775b04ba692bf83a910e9f04b0dea7b32316d807a9aeb395eb25e334a9",
          "transactionIndex": "0x3",
          "logIndex": "0x1",
          "removed": false
        }
      ],
      "status": "0x1",
      "logsBloom": "0x00000000000000000000000000000000000000000000000000008000000000000000000000800000000000000000000000000000000000000000000000200000002080000000000000000000000000000000000004000000000000000000000000000000000000000000000400000000000000000000000000000000000020000000000000000000000000400000000000000000000000000000000000000000020000000000000000000000000000000000000000000000000000000000000000000000000000000000000000000000000000000000000000000000000000000010000000000000400000000000000000000000000000000000000000000000",
      "type": "0x2",
      "effectiveGasPrice": "0xb2dd8a0c"
    },
    {
      "transactionHash": "0xa6285e30c9f1407e240f6ea7ad12f2181f7deeba24b08ea4e9a7f6273b9f2b51",
      "transactionIndex": "0x4",
      "blockHash": "0x953ef93e835246b1d8c71e7fde98757daf8863137f6a0452e0cf78bca8f6e2b8",
      "blockNumber": "0x8ce8a9",
      "from": "0x7d6703218ab83D5255e4532101deB294eA1b9d27",
      "to": "0xad7204FEF049294eEeD3046Cbc5995C123D83eE0",
      "cumulativeGasUsed": "0xbad6f",
      "gasUsed": "0xb4c0",
      "contractAddress": null,
      "logs": [
        {
          "address": "0xad7204FEF049294eEeD3046Cbc5995C123D83eE0",
          "topics": [
            "0x8c5be1e5ebec7d5bd14f71427d1e84f3dd0314c0f7b2291e5b200ac8c7c3b925",
            "0x0000000000000000000000007d6703218ab83d5255e4532101deb294ea1b9d27",
            "0x000000000000000000000000f3679dbeb5954a39a0a2dddb715a4409a4bd81ee"
          ],
          "data": "0x0000000000000000000000000000000000000000000000056bc75e2d63100000",
          "blockHash": "0x953ef93e835246b1d8c71e7fde98757daf8863137f6a0452e0cf78bca8f6e2b8",
          "blockNumber": "0x8ce8a9",
          "transactionHash": "0xa6285e30c9f1407e240f6ea7ad12f2181f7deeba24b08ea4e9a7f6273b9f2b51",
          "transactionIndex": "0x4",
          "logIndex": "0x2",
          "removed": false
        }
      ],
      "status": "0x1",
      "logsBloom": "0x10000000000000000000000000000000000000000000000000008000000000000000000000000000000001000000000000000000000000000000000000200000000080000000000000000000000000000000000004000000000000000000000000000000000000000000000100000000000000000000000000000000000020000000000000000000000000400000000000000000000000000000000000000000020000000000000000000000000000000000000000000000000000000000000000000000000000000000000000000000000000000000000000000000000000000010000000000000400000000000000000000000000000000000000000000000",
      "type": "0x2",
      "effectiveGasPrice": "0xb2dd8a0c"
    },
    {
      "transactionHash": "0xd850b79c6e0b07b67a16d9131e15a3a0bd9d662a5bab48659a1a03b8297c100b",
      "transactionIndex": "0x5",
      "blockHash": "0x953ef93e835246b1d8c71e7fde98757daf8863137f6a0452e0cf78bca8f6e2b8",
      "blockNumber": "0x8ce8a9",
      "from": "0x7d6703218ab83D5255e4532101deB294eA1b9d27",
      "to": "0x8ACFC9D02FB13d83eE4Cfa9102d50f7abD0C3656",
      "cumulativeGasUsed": "0xc76c0",
      "gasUsed": "0xc951",
      "contractAddress": null,
      "logs": [
        {
          "address": "0x8ACFC9D02FB13d83eE4Cfa9102d50f7abD0C3656",
          "topics": [
            "0xddf252ad1be2c89b69c2b068fc378daa952ba7f163c4a11628f55a4df523b3ef",
            "0x0000000000000000000000000000000000000000000000000000000000000000",
            "0x000000000000000000000000f3679dbeb5954a39a0a2dddb715a4409a4bd81ee"
          ],
          "data": "0x00000000000000000000000000000000000004ee2d6d415b85acef8100000000",
          "blockHash": "0x953ef93e835246b1d8c71e7fde98757daf8863137f6a0452e0cf78bca8f6e2b8",
          "blockNumber": "0x8ce8a9",
          "transactionHash": "0xd850b79c6e0b07b67a16d9131e15a3a0bd9d662a5bab48659a1a03b8297c100b",
          "transactionIndex": "0x5",
          "logIndex": "0x3",
          "removed": false
        }
      ],
      "status": "0x1",
      "logsBloom": "0x00000000000000000000000000000000000000000000000000008000000000000000000000000000000000000000001000000000000000000000000000000000000000000000000000000008000000000000000000000000000000000000000000000000020000000000000000000800000000000000000000000010000000000000000000000000000000400000000000000040000000000000000000000000000000000000000000000000000000000000000000000000000000000000000000000002000000000000400000000000000000000000000000000000000020000000000000000000400000000000000000000000000000000000000000000000",
      "type": "0x2",
      "effectiveGasPrice": "0xb2dd8a0c"
    },
    {
      "transactionHash": "0x91d2e58da8d86cd7bd83956de0752e773643af977f6ce605e79fbb04fc3c8542",
      "transactionIndex": "0x6",
      "blockHash": "0x953ef93e835246b1d8c71e7fde98757daf8863137f6a0452e0cf78bca8f6e2b8",
      "blockNumber": "0x8ce8a9",
      "from": "0x7d6703218ab83D5255e4532101deB294eA1b9d27",
      "to": "0x83EbCEF22bD896e522d27AF442Bf7F3f1efB52Eb",
      "cumulativeGasUsed": "0xd4011",
      "gasUsed": "0xc951",
      "contractAddress": null,
      "logs": [
        {
          "address": "0x83EbCEF22bD896e522d27AF442Bf7F3f1efB52Eb",
          "topics": [
            "0xddf252ad1be2c89b69c2b068fc378daa952ba7f163c4a11628f55a4df523b3ef",
            "0x0000000000000000000000000000000000000000000000000000000000000000",
            "0x000000000000000000000000f3679dbeb5954a39a0a2dddb715a4409a4bd81ee"
          ],
          "data": "0x00000000000000000000000000000000000004ee2d6d415b85acef8100000000",
          "blockHash": "0x953ef93e835246b1d8c71e7fde98757daf8863137f6a0452e0cf78bca8f6e2b8",
          "blockNumber": "0x8ce8a9",
          "transactionHash": "0x91d2e58da8d86cd7bd83956de0752e773643af977f6ce605e79fbb04fc3c8542",
          "transactionIndex": "0x6",
          "logIndex": "0x4",
          "removed": false
        }
      ],
      "status": "0x1",
      "logsBloom": "0x00000000000000000000000000000000000000000000000000008000000000000000000000800000000000000000000000000000000000000000000000000000002000000000000000000008000000000000000000000000000000000000000000000000020000000000000400000800000000000000000000000010000000000000000000000000000000400000000000000000000000000000000000000000000000000000000000000000000000000000000000000000000000000000000000000002000000000000000000000000000000000000000000000000000020000000000000000000400000000000000000000000000000000000000000000000",
      "type": "0x2",
      "effectiveGasPrice": "0xb2dd8a0c"
    },
    {
      "transactionHash": "0xc37905134bb224bffc34ee8714afdd2479be3789f1d4475376baf9314bc0261c",
      "transactionIndex": "0x7",
      "blockHash": "0x953ef93e835246b1d8c71e7fde98757daf8863137f6a0452e0cf78bca8f6e2b8",
      "blockNumber": "0x8ce8a9",
      "from": "0x7d6703218ab83D5255e4532101deB294eA1b9d27",
      "to": "0xad7204FEF049294eEeD3046Cbc5995C123D83eE0",
      "cumulativeGasUsed": "0xe0962",
      "gasUsed": "0xc951",
      "contractAddress": null,
      "logs": [
        {
          "address": "0xad7204FEF049294eEeD3046Cbc5995C123D83eE0",
          "topics": [
            "0xddf252ad1be2c89b69c2b068fc378daa952ba7f163c4a11628f55a4df523b3ef",
            "0x0000000000000000000000000000000000000000000000000000000000000000",
            "0x000000000000000000000000f3679dbeb5954a39a0a2dddb715a4409a4bd81ee"
          ],
          "data": "0x00000000000000000000000000000000000004ee2d6d415b85acef8100000000",
          "blockHash": "0x953ef93e835246b1d8c71e7fde98757daf8863137f6a0452e0cf78bca8f6e2b8",
          "blockNumber": "0x8ce8a9",
          "transactionHash": "0xc37905134bb224bffc34ee8714afdd2479be3789f1d4475376baf9314bc0261c",
          "transactionIndex": "0x7",
          "logIndex": "0x5",
          "removed": false
        }
      ],
      "status": "0x1",
      "logsBloom": "0x10000000000000000000000000000000000000000000000000008000000000000000000000000000000001000000000000000000000000000000000000000000000000000000000000000008000000000000000000000000000000000000000000000000020000000000000100000800000000000000000000000010000000000000000000000000000000400000000000000000000000000000000000000000000000000000000000000000000000000000000000000000000000000000000000000002000000000000000000000000000000000000000000000000000020000000000000000000400000000000000000000000000000000000000000000000",
      "type": "0x2",
      "effectiveGasPrice": "0xb2dd8a0c"
    }
  ],
  "libraries": [],
  "pending": [],
  "path": "C:/Users/cesar/Documents/GitHub/offline-wallet/contracts/broadcast\\Bridge.s.sol\\5\\run-latest.json",
  "returns": {},
  "timestamp": 1687642228,
  "chain": 5,
  "multi": false,
  "commit": "cfffa5a"
}