{
  "transactions": [
    {
      "hash": "0xfc716c3634ce89e949a21d050bfbc0c88c86b1625d7cf86305c0733b4c38cb87",
      "transactionType": "CREATE",
      "contractName": "Bridge",
      "contractAddress": "0xF8A32534C9f1cdf405172778DB0F0BB2F573B101",
      "function": null,
      "arguments": [
        "[0x8ACFC9D02FB13d83eE4Cfa9102d50f7abD0C3656, 0x83EbCEF22bD896e522d27AF442Bf7F3f1efB52Eb, 0xad7204FEF049294eEeD3046Cbc5995C123D83eE0]",
        "[1, 1900, 31000]",
        "0xCC737a94FecaeC165AbCf12dED095BB13F037685"
      ],
      "rpc": "https://eth-goerli.g.alchemy.com/v2/75qiyn1_EpxCn93X5tD7yEtmcXUM_Udw",
      "transaction": {
        "type": "0x02",
        "from": "0x7d6703218ab83d5255e4532101deb294ea1b9d27",
        "gas": "0xad0a3",
        "value": "0x0",
        "data": "0x60a0604052600180546001600160a01b031916738f9c3888bfc8a5b25aed115a82ecbb788b196d2a17905534801561003657600080fd5b506040516109633803806109638339810160408190526100559161012b565b828260005b60038110156100c2576100b0838260038110610078576100786101f0565b602002015183836003811061008f5761008f6101f0565b60200201516001600160a01b03909116600090815260208190526040902055565b806100ba81610206565b91505061005a565b5050506001600160a01b03166080525061022d9050565b604051606081016001600160401b038111828210171561010957634e487b7160e01b600052604160045260246000fd5b60405290565b80516001600160a01b038116811461012657600080fd5b919050565b600080600060e0848603121561014057600080fd5b84601f85011261014f57600080fd5b6101576100d9565b80606086018781111561016957600080fd5b865b8181101561018a5761017c8161010f565b84526020938401930161016b565b5081955087607f88011261019d57600080fd5b6101a56100d9565b925082915060c08701888111156101bb57600080fd5b5b808210156101d75781518452602093840193909101906101bc565b8295506101e38161010f565b9450505050509250925092565b634e487b7160e01b600052603260045260246000fd5b60006001820161022657634e487b7160e01b600052601160045260246000fd5b5060010190565b60805161071661024d600039600081816080015260de01526107166000f3fe6080604052600436106100295760003560e01c806356d5d4751461002e5780637c6c461914610050575b600080fd5b34801561003a57600080fd5b5061004e610049366004610471565b610075565b005b61006361005e366004610510565b6100d9565b60405190815260200160405180910390f35b336001600160a01b037f000000000000000000000000000000000000000000000000000000000000000016146100aa57600080fd5b60008080806100bb8587018761059b565b93509350935093506100cf8484848461024e565b5050505050505050565b6000807f00000000000000000000000000000000000000000000000000000000000000006001600160a01b031663fa31de018661011c876001600160a01b031690565b604080516001600160a01b03808f166020830152808e1692820192909252606081018c9052908816608082015260a0016040516020818303038152906040526040518463ffffffff1660e01b8152600401610179939291906105ee565b6020604051808303816000875af1158015610198573d6000803e3d6000fd5b505050506040513d601f19601f820116820180604052508101906101bc9190610651565b600154604051630237e58360e31b81526004810183905263ffffffff88166024820152620186a060448201523360648201529192506001600160a01b0316906311bf2c189034906084016000604051808303818588803b15801561021f57600080fd5b505af1158015610233573d6000803e3d6000fd5b505050505061024289876103d9565b98975050505050505050565b6001600160a01b0384166000908152602081905260409020546102b85760405162461bcd60e51b815260206004820152601960248201527f496e70757420746f6b656e207072696365206e6f74207365740000000000000060448201526064015b60405180910390fd5b6001600160a01b03831660009081526020819052604090205461031d5760405162461bcd60e51b815260206004820152601a60248201527f4f757470757420746f6b656e207072696365206e6f742073657400000000000060448201526064016102af565b6001600160a01b03808516600090815260208190526040808220549286168252812054908161034c848761066a565b6103569190610695565b60405163a9059cbb60e01b81526001600160a01b03868116600483015260248201839052919250879182169063a9059cbb906044016020604051808303816000875af11580156103aa573d6000803e3d6000fd5b505050506040513d601f19601f820116820180604052508101906103ce91906106b7565b505050505050505050565b6040516323b872dd60e01b81523360048201523060248201526044810182905282906001600160a01b038216906323b872dd906064016020604051808303816000875af115801561042e573d6000803e3d6000fd5b505050506040513d601f19601f8201168201806040525081019061045291906106b7565b50505050565b803563ffffffff8116811461046c57600080fd5b919050565b6000806000806060858703121561048757600080fd5b61049085610458565b935060208501359250604085013567ffffffffffffffff808211156104b457600080fd5b818701915087601f8301126104c857600080fd5b8135818111156104d757600080fd5b8860208285010111156104e957600080fd5b95989497505060200194505050565b6001600160a01b038116811461050d57600080fd5b50565b600080600080600080600060e0888a03121561052b57600080fd5b8735610536816104f8565b96506020880135610546816104f8565b95506040880135610556816104f8565b94506060880135935061056b60808901610458565b925060a088013561057b816104f8565b915060c088013561058b816104f8565b8091505092959891949750929550565b600080600080608085870312156105b157600080fd5b84356105bc816104f8565b935060208501356105cc816104f8565b92506040850135915060608501356105e3816104f8565b939692955090935050565b63ffffffff8416815260006020848184015260606040840152835180606085015260005b8181101561062e57858101830151858201608001528201610612565b506000608082860101526080601f19601f83011685010192505050949350505050565b60006020828403121561066357600080fd5b5051919050565b808202811582820484141761068f57634e487b7160e01b600052601160045260246000fd5b92915050565b6000826106b257634e487b7160e01b600052601260045260246000fd5b500490565b6000602082840312156106c957600080fd5b815180151581146106d957600080fd5b939250505056fea26469706673582212205d06869bf5e27f37e779eb4c7167e7b05cd78be5a44a4fc730de2f0e8fa065c464736f6c634300081200330000000000000000000000008acfc9d02fb13d83ee4cfa9102d50f7abd0c365600000000000000000000000083ebcef22bd896e522d27af442bf7f3f1efb52eb000000000000000000000000ad7204fef049294eeed3046cbc5995c123d83ee00000000000000000000000000000000000000000000000000000000000000001000000000000000000000000000000000000000000000000000000000000076c0000000000000000000000000000000000000000000000000000000000007918000000000000000000000000cc737a94fecaec165abcf12ded095bb13f037685",
        "nonce": "0xaf",
        "accessList": []
      },
      "additionalContracts": []
    },
    {
      "hash": "0xa206946cdcd978898fddff62302b25985ad59aa434cc49be135981d10d46ee0d",
      "transactionType": "CALL",
      "contractName": "MyToken",
      "contractAddress": "0x8ACFC9D02FB13d83eE4Cfa9102d50f7abD0C3656",
      "function": "approve(address,uint256):(bool)",
      "arguments": [
        "0xF8A32534C9f1cdf405172778DB0F0BB2F573B101",
        "100000000000000000000"
      ],
      "rpc": "https://eth-goerli.g.alchemy.com/v2/75qiyn1_EpxCn93X5tD7yEtmcXUM_Udw",
      "transaction": {
        "type": "0x02",
        "from": "0x7d6703218ab83d5255e4532101deb294ea1b9d27",
        "to": "0x8acfc9d02fb13d83ee4cfa9102d50f7abd0c3656",
        "gas": "0xf9a9",
        "value": "0x0",
        "data": "0x095ea7b3000000000000000000000000f8a32534c9f1cdf405172778db0f0bb2f573b1010000000000000000000000000000000000000000000000056bc75e2d63100000",
        "nonce": "0xb0",
        "accessList": []
      },
      "additionalContracts": []
    },
    {
      "hash": "0x07753b10586ddc094e1d7f35cb41c663ea6606556c6b11ed1273518b00486a6c",
      "transactionType": "CALL",
      "contractName": "MyToken",
      "contractAddress": "0x83EbCEF22bD896e522d27AF442Bf7F3f1efB52Eb",
      "function": "approve(address,uint256):(bool)",
      "arguments": [
        "0xF8A32534C9f1cdf405172778DB0F0BB2F573B101",
        "100000000000000000000"
      ],
      "rpc": "https://eth-goerli.g.alchemy.com/v2/75qiyn1_EpxCn93X5tD7yEtmcXUM_Udw",
      "transaction": {
        "type": "0x02",
        "from": "0x7d6703218ab83d5255e4532101deb294ea1b9d27",
        "to": "0x83ebcef22bd896e522d27af442bf7f3f1efb52eb",
        "gas": "0xf9a9",
        "value": "0x0",
        "data": "0x095ea7b3000000000000000000000000f8a32534c9f1cdf405172778db0f0bb2f573b1010000000000000000000000000000000000000000000000056bc75e2d63100000",
        "nonce": "0xb1",
        "accessList": []
      },
      "additionalContracts": []
    },
    {
      "hash": "0xd1881ae8cc01bf4c0fea2ea42d64439d2e4e8cb10a89856633c57f9fd9abd40c",
      "transactionType": "CALL",
      "contractName": "MyToken",
      "contractAddress": "0xad7204FEF049294eEeD3046Cbc5995C123D83eE0",
      "function": "approve(address,uint256):(bool)",
      "arguments": [
        "0xF8A32534C9f1cdf405172778DB0F0BB2F573B101",
        "100000000000000000000"
      ],
      "rpc": "https://eth-goerli.g.alchemy.com/v2/75qiyn1_EpxCn93X5tD7yEtmcXUM_Udw",
      "transaction": {
        "type": "0x02",
        "from": "0x7d6703218ab83d5255e4532101deb294ea1b9d27",
        "to": "0xad7204fef049294eeed3046cbc5995c123d83ee0",
        "gas": "0xf9a9",
        "value": "0x0",
        "data": "0x095ea7b3000000000000000000000000f8a32534c9f1cdf405172778db0f0bb2f573b1010000000000000000000000000000000000000000000000056bc75e2d63100000",
        "nonce": "0xb2",
        "accessList": []
      },
      "additionalContracts": []
    },
    {
      "hash": "0x98bba0d6c3fc9a98760bfae99d89574fb21ebb9df833ce9c463d89bc22f04a93",
      "transactionType": "CALL",
      "contractName": "MyToken",
      "contractAddress": "0x8ACFC9D02FB13d83eE4Cfa9102d50f7abD0C3656",
      "function": "mint(address,uint256)",
      "arguments": [
        "0xF8A32534C9f1cdf405172778DB0F0BB2F573B101",
        "100000000000000"
      ],
      "rpc": "https://eth-goerli.g.alchemy.com/v2/75qiyn1_EpxCn93X5tD7yEtmcXUM_Udw",
      "transaction": {
        "type": "0x02",
        "from": "0x7d6703218ab83d5255e4532101deb294ea1b9d27",
        "to": "0x8acfc9d02fb13d83ee4cfa9102d50f7abd0c3656",
        "gas": "0x1266c",
        "value": "0x0",
        "data": "0x40c10f19000000000000000000000000f8a32534c9f1cdf405172778db0f0bb2f573b10100000000000000000000000000000000000000000000000000005af3107a4000",
        "nonce": "0xb3",
        "accessList": []
      },
      "additionalContracts": []
    },
    {
      "hash": "0x0dea51e1dfee6152bd4720dc570e79782788f68ac67f06438982d0e0eb175ad2",
      "transactionType": "CALL",
      "contractName": "MyToken",
      "contractAddress": "0x83EbCEF22bD896e522d27AF442Bf7F3f1efB52Eb",
      "function": "mint(address,uint256)",
      "arguments": [
        "0xF8A32534C9f1cdf405172778DB0F0BB2F573B101",
        "100000000000000"
      ],
      "rpc": "https://eth-goerli.g.alchemy.com/v2/75qiyn1_EpxCn93X5tD7yEtmcXUM_Udw",
      "transaction": {
        "type": "0x02",
        "from": "0x7d6703218ab83d5255e4532101deb294ea1b9d27",
        "to": "0x83ebcef22bd896e522d27af442bf7f3f1efb52eb",
        "gas": "0x1266c",
        "value": "0x0",
        "data": "0x40c10f19000000000000000000000000f8a32534c9f1cdf405172778db0f0bb2f573b10100000000000000000000000000000000000000000000000000005af3107a4000",
        "nonce": "0xb4",
        "accessList": []
      },
      "additionalContracts": []
    },
    {
      "hash": "0xb45a42283acb6f32ffed50be625cb78e4832bf83f7b6da96019dab3aa04ef484",
      "transactionType": "CALL",
      "contractName": "MyToken",
      "contractAddress": "0xad7204FEF049294eEeD3046Cbc5995C123D83eE0",
      "function": "mint(address,uint256)",
      "arguments": [
        "0xF8A32534C9f1cdf405172778DB0F0BB2F573B101",
        "100000000000000"
      ],
      "rpc": "https://eth-goerli.g.alchemy.com/v2/75qiyn1_EpxCn93X5tD7yEtmcXUM_Udw",
      "transaction": {
        "type": "0x02",
        "from": "0x7d6703218ab83d5255e4532101deb294ea1b9d27",
        "to": "0xad7204fef049294eeed3046cbc5995c123d83ee0",
        "gas": "0x1266c",
        "value": "0x0",
        "data": "0x40c10f19000000000000000000000000f8a32534c9f1cdf405172778db0f0bb2f573b10100000000000000000000000000000000000000000000000000005af3107a4000",
        "nonce": "0xb5",
        "accessList": []
      },
      "additionalContracts": []
    }
  ],
  "receipts": [],
  "libraries": [],
  "pending": [
    "0xfc716c3634ce89e949a21d050bfbc0c88c86b1625d7cf86305c0733b4c38cb87",
    "0xa206946cdcd978898fddff62302b25985ad59aa434cc49be135981d10d46ee0d",
    "0x07753b10586ddc094e1d7f35cb41c663ea6606556c6b11ed1273518b00486a6c",
    "0xd1881ae8cc01bf4c0fea2ea42d64439d2e4e8cb10a89856633c57f9fd9abd40c",
    "0x98bba0d6c3fc9a98760bfae99d89574fb21ebb9df833ce9c463d89bc22f04a93",
    "0x0dea51e1dfee6152bd4720dc570e79782788f68ac67f06438982d0e0eb175ad2",
    "0xb45a42283acb6f32ffed50be625cb78e4832bf83f7b6da96019dab3aa04ef484"
  ],
  "path": "C:/Users/cesar/Documents/GitHub/offline-wallet/contracts/broadcast\\Bridge.s.sol\\5\\run-latest.json",
  "returns": {},
  "timestamp": 1687638268,
  "chain": 5,
  "multi": false,
  "commit": "b1ceca8"
}