{
  "transactions": [
    {
      "hash": "0x7181930d436f5ef66bccdf91643d2b5ea9b7df178fb94c4798ee333541f1cada",
      "transactionType": "CREATE",
      "contractName": "Bridge",
      "contractAddress": "0xd5C8290B258ed9510a9C4aA9e41f4cD0c0f6104B",
      "function": null,
      "arguments": [
        "[0x8ACFC9D02FB13d83eE4Cfa9102d50f7abD0C3656, 0x83EbCEF22bD896e522d27AF442Bf7F3f1efB52Eb, 0xad7204FEF049294eEeD3046Cbc5995C123D83eE0]",
        "[1, 1900, 31000]",
        "0xCC737a94FecaeC165AbCf12dED095BB13F037685"
      ],
      "rpc": "https://eth-goerli.g.alchemy.com/v2/75qiyn1_EpxCn93X5tD7yEtmcXUM_Udw",
      "transaction": {
        "type": "0x02",
        "from": "0x7d6703218ab83d5255e4532101deb294ea1b9d27",
        "gas": "0x9c01a",
        "value": "0x0",
        "data": "0x60a060405234801561001057600080fd5b506040516108ae3803806108ae83398101604081905261002f91610105565b828260005b600381101561009c5761008a838260038110610052576100526101ca565b6020020151838360038110610069576100696101ca565b60200201516001600160a01b03909116600090815260208190526040902055565b80610094816101e0565b915050610034565b5050506001600160a01b0316608052506102079050565b604051606081016001600160401b03811182821017156100e357634e487b7160e01b600052604160045260246000fd5b60405290565b80516001600160a01b038116811461010057600080fd5b919050565b600080600060e0848603121561011a57600080fd5b84601f85011261012957600080fd5b6101316100b3565b80606086018781111561014357600080fd5b865b8181101561016457610156816100e9565b845260209384019301610145565b5081955087607f88011261017757600080fd5b61017f6100b3565b925082915060c087018881111561019557600080fd5b5b808210156101b1578151845260209384019390910190610196565b8295506101bd816100e9565b9450505050509250925092565b634e487b7160e01b600052603260045260246000fd5b60006001820161020057634e487b7160e01b600052601160045260246000fd5b5060010190565b608051610687610227600039600081816080015260de01526106876000f3fe608060405234801561001057600080fd5b50600436106100365760003560e01c806356d5d4751461003b578063c10e565d14610050575b600080fd5b61004e6100493660046103f6565b610075565b005b61006361005e366004610495565b6100d9565b60405190815260200160405180910390f35b336001600160a01b037f000000000000000000000000000000000000000000000000000000000000000016146100aa57600080fd5b60008080806100bb8587018761050c565b93509350935093506100cf848484846101d3565b5050505050505050565b6000807f00000000000000000000000000000000000000000000000000000000000000006001600160a01b031663fa31de018661011c876001600160a01b031690565b604080516001600160a01b03808f166020830152808e1692820192909252606081018c9052908816608082015260a0016040516020818303038152906040526040518463ffffffff1660e01b81526004016101799392919061055f565b6020604051808303816000875af1158015610198573d6000803e3d6000fd5b505050506040513d601f19601f820116820180604052508101906101bc91906105c2565b90506101c8888761035e565b979650505050505050565b6001600160a01b03841660009081526020819052604090205461023d5760405162461bcd60e51b815260206004820152601960248201527f496e70757420746f6b656e207072696365206e6f74207365740000000000000060448201526064015b60405180910390fd5b6001600160a01b0383166000908152602081905260409020546102a25760405162461bcd60e51b815260206004820152601a60248201527f4f757470757420746f6b656e207072696365206e6f74207365740000000000006044820152606401610234565b6001600160a01b0380851660009081526020819052604080822054928616825281205490816102d184876105db565b6102db9190610606565b60405163a9059cbb60e01b81526001600160a01b03868116600483015260248201839052919250879182169063a9059cbb906044016020604051808303816000875af115801561032f573d6000803e3d6000fd5b505050506040513d601f19601f820116820180604052508101906103539190610628565b505050505050505050565b6040516323b872dd60e01b81523360048201523060248201526044810182905282906001600160a01b038216906323b872dd906064016020604051808303816000875af11580156103b3573d6000803e3d6000fd5b505050506040513d601f19601f820116820180604052508101906103d79190610628565b50505050565b803563ffffffff811681146103f157600080fd5b919050565b6000806000806060858703121561040c57600080fd5b610415856103dd565b935060208501359250604085013567ffffffffffffffff8082111561043957600080fd5b818701915087601f83011261044d57600080fd5b81358181111561045c57600080fd5b88602082850101111561046e57600080fd5b95989497505060200194505050565b6001600160a01b038116811461049257600080fd5b50565b60008060008060008060c087890312156104ae57600080fd5b86356104b98161047d565b955060208701356104c98161047d565b9450604087013593506104de606088016103dd565b925060808701356104ee8161047d565b915060a08701356104fe8161047d565b809150509295509295509295565b6000806000806080858703121561052257600080fd5b843561052d8161047d565b9350602085013561053d8161047d565b92506040850135915060608501356105548161047d565b939692955090935050565b63ffffffff8416815260006020848184015260606040840152835180606085015260005b8181101561059f57858101830151858201608001528201610583565b506000608082860101526080601f19601f83011685010192505050949350505050565b6000602082840312156105d457600080fd5b5051919050565b808202811582820484141761060057634e487b7160e01b600052601160045260246000fd5b92915050565b60008261062357634e487b7160e01b600052601260045260246000fd5b500490565b60006020828403121561063a57600080fd5b8151801515811461064a57600080fd5b939250505056fea264697066735822122016bc86a597e52850d75eb7655d777340eb37c2035af82bf1cab709a1d41a3c1064736f6c634300081200330000000000000000000000008acfc9d02fb13d83ee4cfa9102d50f7abd0c365600000000000000000000000083ebcef22bd896e522d27af442bf7f3f1efb52eb000000000000000000000000ad7204fef049294eeed3046cbc5995c123d83ee00000000000000000000000000000000000000000000000000000000000000001000000000000000000000000000000000000000000000000000000000000076c0000000000000000000000000000000000000000000000000000000000007918000000000000000000000000cc737a94fecaec165abcf12ded095bb13f037685",
        "nonce": "0x95",
        "accessList": []
      },
      "additionalContracts": []
    },
    {
      "hash": "0x4a02d41a1a9c8ebd4c1ca5b99b8f8e77373d44321bacc04cb9e106e64f59b7f7",
      "transactionType": "CALL",
      "contractName": "MyToken",
      "contractAddress": "0x8ACFC9D02FB13d83eE4Cfa9102d50f7abD0C3656",
      "function": "approve(address,uint256):(bool)",
      "arguments": [
        "0xd5C8290B258ed9510a9C4aA9e41f4cD0c0f6104B",
        "100000000000000"
      ],
      "rpc": "https://eth-goerli.g.alchemy.com/v2/75qiyn1_EpxCn93X5tD7yEtmcXUM_Udw",
      "transaction": {
        "type": "0x02",
        "from": "0x7d6703218ab83d5255e4532101deb294ea1b9d27",
        "to": "0x8acfc9d02fb13d83ee4cfa9102d50f7abd0c3656",
        "gas": "0xf987",
        "value": "0x0",
        "data": "0x095ea7b3000000000000000000000000d5c8290b258ed9510a9c4aa9e41f4cd0c0f6104b00000000000000000000000000000000000000000000000000005af3107a4000",
        "nonce": "0x96",
        "accessList": []
      },
      "additionalContracts": []
    },
    {
      "hash": "0x38f831bc4f8b53b309ead8b34d9b55659d973efc2c5532001d770e566a751ab5",
      "transactionType": "CALL",
      "contractName": "MyToken",
      "contractAddress": "0x83EbCEF22bD896e522d27AF442Bf7F3f1efB52Eb",
      "function": "approve(address,uint256):(bool)",
      "arguments": [
        "0xd5C8290B258ed9510a9C4aA9e41f4cD0c0f6104B",
        "100000000000000"
      ],
      "rpc": "https://eth-goerli.g.alchemy.com/v2/75qiyn1_EpxCn93X5tD7yEtmcXUM_Udw",
      "transaction": {
        "type": "0x02",
        "from": "0x7d6703218ab83d5255e4532101deb294ea1b9d27",
        "to": "0x83ebcef22bd896e522d27af442bf7f3f1efb52eb",
        "gas": "0xf987",
        "value": "0x0",
        "data": "0x095ea7b3000000000000000000000000d5c8290b258ed9510a9c4aa9e41f4cd0c0f6104b00000000000000000000000000000000000000000000000000005af3107a4000",
        "nonce": "0x97",
        "accessList": []
      },
      "additionalContracts": []
    },
    {
      "hash": "0x8eaf6a047dbb16eb91cfe99638aaf8ff01e0544611cb9397df29250e6d814fad",
      "transactionType": "CALL",
      "contractName": "MyToken",
      "contractAddress": "0xad7204FEF049294eEeD3046Cbc5995C123D83eE0",
      "function": "approve(address,uint256):(bool)",
      "arguments": [
        "0xd5C8290B258ed9510a9C4aA9e41f4cD0c0f6104B",
        "100000000000000"
      ],
      "rpc": "https://eth-goerli.g.alchemy.com/v2/75qiyn1_EpxCn93X5tD7yEtmcXUM_Udw",
      "transaction": {
        "type": "0x02",
        "from": "0x7d6703218ab83d5255e4532101deb294ea1b9d27",
        "to": "0xad7204fef049294eeed3046cbc5995c123d83ee0",
        "gas": "0xf987",
        "value": "0x0",
        "data": "0x095ea7b3000000000000000000000000d5c8290b258ed9510a9c4aa9e41f4cd0c0f6104b00000000000000000000000000000000000000000000000000005af3107a4000",
        "nonce": "0x98",
        "accessList": []
      },
      "additionalContracts": []
    },
    {
      "hash": "0x103c12fd8fba11aabc61b26f41267d27825f625e702e7091a34138c3a3690762",
      "transactionType": "CALL",
      "contractName": "MyToken",
      "contractAddress": "0x8ACFC9D02FB13d83eE4Cfa9102d50f7abD0C3656",
      "function": "mint(address,uint256)",
      "arguments": [
        "0xd5C8290B258ed9510a9C4aA9e41f4cD0c0f6104B",
        "100000000000000"
      ],
      "rpc": "https://eth-goerli.g.alchemy.com/v2/75qiyn1_EpxCn93X5tD7yEtmcXUM_Udw",
      "transaction": {
        "type": "0x02",
        "from": "0x7d6703218ab83d5255e4532101deb294ea1b9d27",
        "to": "0x8acfc9d02fb13d83ee4cfa9102d50f7abd0c3656",
        "gas": "0x1266c",
        "value": "0x0",
        "data": "0x40c10f19000000000000000000000000d5c8290b258ed9510a9c4aa9e41f4cd0c0f6104b00000000000000000000000000000000000000000000000000005af3107a4000",
        "nonce": "0x99",
        "accessList": []
      },
      "additionalContracts": []
    },
    {
      "hash": "0x6a33f2f660a29f4ca30d9a49666a9ba5bbe4a006fb7667912907ac675fa80199",
      "transactionType": "CALL",
      "contractName": "MyToken",
      "contractAddress": "0x83EbCEF22bD896e522d27AF442Bf7F3f1efB52Eb",
      "function": "mint(address,uint256)",
      "arguments": [
        "0xd5C8290B258ed9510a9C4aA9e41f4cD0c0f6104B",
        "100000000000000"
      ],
      "rpc": "https://eth-goerli.g.alchemy.com/v2/75qiyn1_EpxCn93X5tD7yEtmcXUM_Udw",
      "transaction": {
        "type": "0x02",
        "from": "0x7d6703218ab83d5255e4532101deb294ea1b9d27",
        "to": "0x83ebcef22bd896e522d27af442bf7f3f1efb52eb",
        "gas": "0x1266c",
        "value": "0x0",
        "data": "0x40c10f19000000000000000000000000d5c8290b258ed9510a9c4aa9e41f4cd0c0f6104b00000000000000000000000000000000000000000000000000005af3107a4000",
        "nonce": "0x9a",
        "accessList": []
      },
      "additionalContracts": []
    },
    {
      "hash": "0x33524e5f53d9984d1dbb3f56b4064d2542403f19f56e1aecc59222ce8e326fc0",
      "transactionType": "CALL",
      "contractName": "MyToken",
      "contractAddress": "0xad7204FEF049294eEeD3046Cbc5995C123D83eE0",
      "function": "mint(address,uint256)",
      "arguments": [
        "0xd5C8290B258ed9510a9C4aA9e41f4cD0c0f6104B",
        "100000000000000"
      ],
      "rpc": "https://eth-goerli.g.alchemy.com/v2/75qiyn1_EpxCn93X5tD7yEtmcXUM_Udw",
      "transaction": {
        "type": "0x02",
        "from": "0x7d6703218ab83d5255e4532101deb294ea1b9d27",
        "to": "0xad7204fef049294eeed3046cbc5995c123d83ee0",
        "gas": "0x1266c",
        "value": "0x0",
        "data": "0x40c10f19000000000000000000000000d5c8290b258ed9510a9c4aa9e41f4cd0c0f6104b00000000000000000000000000000000000000000000000000005af3107a4000",
        "nonce": "0x9b",
        "accessList": []
      },
      "additionalContracts": []
    }
  ],
  "receipts": [],
  "libraries": [],
  "pending": [
    "0x7181930d436f5ef66bccdf91643d2b5ea9b7df178fb94c4798ee333541f1cada",
    "0x4a02d41a1a9c8ebd4c1ca5b99b8f8e77373d44321bacc04cb9e106e64f59b7f7",
    "0x38f831bc4f8b53b309ead8b34d9b55659d973efc2c5532001d770e566a751ab5",
    "0x8eaf6a047dbb16eb91cfe99638aaf8ff01e0544611cb9397df29250e6d814fad",
    "0x103c12fd8fba11aabc61b26f41267d27825f625e702e7091a34138c3a3690762",
    "0x6a33f2f660a29f4ca30d9a49666a9ba5bbe4a006fb7667912907ac675fa80199",
    "0x33524e5f53d9984d1dbb3f56b4064d2542403f19f56e1aecc59222ce8e326fc0"
  ],
  "path": "C:/Users/cesar/Documents/GitHub/offline-wallet/contracts/broadcast\\Bridge.s.sol\\5\\run-latest.json",
  "returns": {},
  "timestamp": 1687635962,
  "chain": 5,
  "multi": false,
  "commit": "b1ceca8"
}