{
  "transactions": [
    {
      "hash": "0x9912d90c383b2238aaa177512878702e2901d65b6c6afd459af8b4d9342ddd63",
      "transactionType": "CREATE",
      "contractName": "Bridge",
      "contractAddress": "0x44945779A7a73b08C51512FE73625F2A9a39198C",
      "function": null,
      "arguments": [
        "[0x8ACFC9D02FB13d83eE4Cfa9102d50f7abD0C3656, 0x83EbCEF22bD896e522d27AF442Bf7F3f1efB52Eb, 0xad7204FEF049294eEeD3046Cbc5995C123D83eE0]",
        "[1, 1900, 31000]",
        "0xCC737a94FecaeC165AbCf12dED095BB13F037685"
      ],
      "rpc": "https://eth-goerli.g.alchemy.com/v2/75qiyn1_EpxCn93X5tD7yEtmcXUM_Udw",
      "transaction": {
        "type": "0x02",
        "from": "0x7d6703218ab83d5255e4532101deb294ea1b9d27",
        "gas": "0xa4d74",
        "value": "0x0",
        "data": "0x60a0604052600180546001600160a01b031916738f9c3888bfc8a5b25aed115a82ecbb788b196d2a17905534801561003657600080fd5b506040516108ec3803806108ec8339810160408190526100559161012b565b828260005b60038110156100c2576100b0838260038110610078576100786101f0565b602002015183836003811061008f5761008f6101f0565b60200201516001600160a01b03909116600090815260208190526040902055565b806100ba81610206565b91505061005a565b5050506001600160a01b03166080525061022d9050565b604051606081016001600160401b038111828210171561010957634e487b7160e01b600052604160045260246000fd5b60405290565b80516001600160a01b038116811461012657600080fd5b919050565b600080600060e0848603121561014057600080fd5b84601f85011261014f57600080fd5b6101576100d9565b80606086018781111561016957600080fd5b865b8181101561018a5761017c8161010f565b84526020938401930161016b565b5081955087607f88011261019d57600080fd5b6101a56100d9565b925082915060c08701888111156101bb57600080fd5b5b808210156101d75781518452602093840193909101906101bc565b8295506101e38161010f565b9450505050509250925092565b634e487b7160e01b600052603260045260246000fd5b60006001820161022657634e487b7160e01b600052601160045260246000fd5b5060010190565b60805161069e61024e6000396000818160800152610116015261069e6000f3fe6080604052600436106100295760003560e01c806356d5d4751461002e5780637c6c461914610050575b600080fd5b34801561003a57600080fd5b5061004e61004936600461040a565b610075565b005b61006361005e3660046104a9565b6100d4565b60405190815260200160405180910390f35b336001600160a01b037f000000000000000000000000000000000000000000000000000000000000000016146100aa57600080fd5b600080806100ba84860186610534565b9250925092506100cb83838361028c565b50505050505050565b6001600160a01b038088166000908152602081905260408082205492891682528120549091908282610106838a610576565b61011091906105a1565b905060007f00000000000000000000000000000000000000000000000000000000000000006001600160a01b031663fa31de01896101548a6001600160a01b031690565b8d8d8b604051602001610187939291906001600160a01b0393841681526020810192909252909116604082015260600190565b6040516020818303038152906040526040518463ffffffff1660e01b81526004016101b4939291906105c3565b6020604051808303816000875af11580156101d3573d6000803e3d6000fd5b505050506040513d601f19601f820116820180604052508101906101f79190610626565b600154604051630237e58360e31b81526004810183905263ffffffff8b1660248201526207a12060448201523360648201529192506001600160a01b0316906311bf2c189034906084016000604051808303818588803b15801561025a57600080fd5b505af115801561026e573d6000803e3d6000fd5b505050505061027d8c83610372565b9b9a5050505050505050505050565b6001600160a01b0383166000908152602081905260409020546102f55760405162461bcd60e51b815260206004820152601a60248201527f4f757470757420746f6b656e207072696365206e6f7420736574000000000000604482015260640160405180910390fd5b60405163a9059cbb60e01b81526001600160a01b0382811660048301526024820184905284919082169063a9059cbb906044016020604051808303816000875af1158015610347573d6000803e3d6000fd5b505050506040513d601f19601f8201168201806040525081019061036b919061063f565b5050505050565b6040516323b872dd60e01b81523360048201523060248201526044810182905282906001600160a01b038216906323b872dd906064016020604051808303816000875af11580156103c7573d6000803e3d6000fd5b505050506040513d601f19601f820116820180604052508101906103eb919061063f565b50505050565b803563ffffffff8116811461040557600080fd5b919050565b6000806000806060858703121561042057600080fd5b610429856103f1565b935060208501359250604085013567ffffffffffffffff8082111561044d57600080fd5b818701915087601f83011261046157600080fd5b81358181111561047057600080fd5b88602082850101111561048257600080fd5b95989497505060200194505050565b6001600160a01b03811681146104a657600080fd5b50565b600080600080600080600060e0888a0312156104c457600080fd5b87356104cf81610491565b965060208801356104df81610491565b955060408801356104ef81610491565b945060608801359350610504608089016103f1565b925060a088013561051481610491565b915060c088013561052481610491565b8091505092959891949750929550565b60008060006060848603121561054957600080fd5b833561055481610491565b925060208401359150604084013561056b81610491565b809150509250925092565b808202811582820484141761059b57634e487b7160e01b600052601160045260246000fd5b92915050565b6000826105be57634e487b7160e01b600052601260045260246000fd5b500490565b63ffffffff8416815260006020848184015260606040840152835180606085015260005b81811015610603578581018301518582016080015282016105e7565b506000608082860101526080601f19601f83011685010192505050949350505050565b60006020828403121561063857600080fd5b5051919050565b60006020828403121561065157600080fd5b8151801515811461066157600080fd5b939250505056fea2646970667358221220ff7f3c92b07cba4b3b6c956490302cdc347c28b7bd2ef5a73cfcc4655b1e677d64736f6c634300081200330000000000000000000000008acfc9d02fb13d83ee4cfa9102d50f7abd0c365600000000000000000000000083ebcef22bd896e522d27af442bf7f3f1efb52eb000000000000000000000000ad7204fef049294eeed3046cbc5995c123d83ee00000000000000000000000000000000000000000000000000000000000000001000000000000000000000000000000000000000000000000000000000000076c0000000000000000000000000000000000000000000000000000000000007918000000000000000000000000cc737a94fecaec165abcf12ded095bb13f037685",
        "nonce": "0xbf",
        "accessList": []
      },
      "additionalContracts": []
    },
    {
      "hash": "0x41c45849df4e9f02c91c1faefdbac5478d922ec7118d787dde91a9dc86da4f99",
      "transactionType": "CALL",
      "contractName": "MyToken",
      "contractAddress": "0x8ACFC9D02FB13d83eE4Cfa9102d50f7abD0C3656",
      "function": "approve(address,uint256):(bool)",
      "arguments": [
        "0x44945779A7a73b08C51512FE73625F2A9a39198C",
        "100000000000000000000"
      ],
      "rpc": "https://eth-goerli.g.alchemy.com/v2/75qiyn1_EpxCn93X5tD7yEtmcXUM_Udw",
      "transaction": {
        "type": "0x02",
        "from": "0x7d6703218ab83d5255e4532101deb294ea1b9d27",
        "to": "0x8acfc9d02fb13d83ee4cfa9102d50f7abd0c3656",
        "gas": "0xf9a9",
        "value": "0x0",
        "data": "0x095ea7b300000000000000000000000044945779a7a73b08c51512fe73625f2a9a39198c0000000000000000000000000000000000000000000000056bc75e2d63100000",
        "nonce": "0xc0",
        "accessList": []
      },
      "additionalContracts": []
    },
    {
      "hash": "0x5132dfbe7aca5fe59c1728da3d13e2cffa3c2d338af366602fef093e19d3a8c0",
      "transactionType": "CALL",
      "contractName": "MyToken",
      "contractAddress": "0x83EbCEF22bD896e522d27AF442Bf7F3f1efB52Eb",
      "function": "approve(address,uint256):(bool)",
      "arguments": [
        "0x44945779A7a73b08C51512FE73625F2A9a39198C",
        "100000000000000000000"
      ],
      "rpc": "https://eth-goerli.g.alchemy.com/v2/75qiyn1_EpxCn93X5tD7yEtmcXUM_Udw",
      "transaction": {
        "type": "0x02",
        "from": "0x7d6703218ab83d5255e4532101deb294ea1b9d27",
        "to": "0x83ebcef22bd896e522d27af442bf7f3f1efb52eb",
        "gas": "0xf9a9",
        "value": "0x0",
        "data": "0x095ea7b300000000000000000000000044945779a7a73b08c51512fe73625f2a9a39198c0000000000000000000000000000000000000000000000056bc75e2d63100000",
        "nonce": "0xc1",
        "accessList": []
      },
      "additionalContracts": []
    },
    {
      "hash": "0x94253d286b08d30c565cddc084b687097d440e5da38cb0aa6b06ab5530be322a",
      "transactionType": "CALL",
      "contractName": "MyToken",
      "contractAddress": "0xad7204FEF049294eEeD3046Cbc5995C123D83eE0",
      "function": "approve(address,uint256):(bool)",
      "arguments": [
        "0x44945779A7a73b08C51512FE73625F2A9a39198C",
        "100000000000000000000"
      ],
      "rpc": "https://eth-goerli.g.alchemy.com/v2/75qiyn1_EpxCn93X5tD7yEtmcXUM_Udw",
      "transaction": {
        "type": "0x02",
        "from": "0x7d6703218ab83d5255e4532101deb294ea1b9d27",
        "to": "0xad7204fef049294eeed3046cbc5995c123d83ee0",
        "gas": "0xf9a9",
        "value": "0x0",
        "data": "0x095ea7b300000000000000000000000044945779a7a73b08c51512fe73625f2a9a39198c0000000000000000000000000000000000000000000000056bc75e2d63100000",
        "nonce": "0xc2",
        "accessList": []
      },
      "additionalContracts": []
    },
    {
      "hash": "0x81027c33db40a5b6a237919f843e8cafb921793a31dedf7b3e3d57d4a70f8fac",
      "transactionType": "CALL",
      "contractName": "MyToken",
      "contractAddress": "0x8ACFC9D02FB13d83eE4Cfa9102d50f7abD0C3656",
      "function": "mint(address,uint256)",
      "arguments": [
        "0x44945779A7a73b08C51512FE73625F2A9a39198C",
        "100000000000000"
      ],
      "rpc": "https://eth-goerli.g.alchemy.com/v2/75qiyn1_EpxCn93X5tD7yEtmcXUM_Udw",
      "transaction": {
        "type": "0x02",
        "from": "0x7d6703218ab83d5255e4532101deb294ea1b9d27",
        "to": "0x8acfc9d02fb13d83ee4cfa9102d50f7abd0c3656",
        "gas": "0x1266c",
        "value": "0x0",
        "data": "0x40c10f1900000000000000000000000044945779a7a73b08c51512fe73625f2a9a39198c00000000000000000000000000000000000000000000000000005af3107a4000",
        "nonce": "0xc3",
        "accessList": []
      },
      "additionalContracts": []
    },
    {
      "hash": "0x5024e18b0091d7013a514c05637064ed7d5b200085d05c5b6c841d68622bd96b",
      "transactionType": "CALL",
      "contractName": "MyToken",
      "contractAddress": "0x83EbCEF22bD896e522d27AF442Bf7F3f1efB52Eb",
      "function": "mint(address,uint256)",
      "arguments": [
        "0x44945779A7a73b08C51512FE73625F2A9a39198C",
        "100000000000000"
      ],
      "rpc": "https://eth-goerli.g.alchemy.com/v2/75qiyn1_EpxCn93X5tD7yEtmcXUM_Udw",
      "transaction": {
        "type": "0x02",
        "from": "0x7d6703218ab83d5255e4532101deb294ea1b9d27",
        "to": "0x83ebcef22bd896e522d27af442bf7f3f1efb52eb",
        "gas": "0x1266c",
        "value": "0x0",
        "data": "0x40c10f1900000000000000000000000044945779a7a73b08c51512fe73625f2a9a39198c00000000000000000000000000000000000000000000000000005af3107a4000",
        "nonce": "0xc4",
        "accessList": []
      },
      "additionalContracts": []
    },
    {
      "hash": "0xee4ef2684b0e93affc32b6e223bb9d8478facf3d22140086e16f683c764ea440",
      "transactionType": "CALL",
      "contractName": "MyToken",
      "contractAddress": "0xad7204FEF049294eEeD3046Cbc5995C123D83eE0",
      "function": "mint(address,uint256)",
      "arguments": [
        "0x44945779A7a73b08C51512FE73625F2A9a39198C",
        "100000000000000"
      ],
      "rpc": "https://eth-goerli.g.alchemy.com/v2/75qiyn1_EpxCn93X5tD7yEtmcXUM_Udw",
      "transaction": {
        "type": "0x02",
        "from": "0x7d6703218ab83d5255e4532101deb294ea1b9d27",
        "to": "0xad7204fef049294eeed3046cbc5995c123d83ee0",
        "gas": "0x1266c",
        "value": "0x0",
        "data": "0x40c10f1900000000000000000000000044945779a7a73b08c51512fe73625f2a9a39198c00000000000000000000000000000000000000000000000000005af3107a4000",
        "nonce": "0xc5",
        "accessList": []
      },
      "additionalContracts": []
    }
  ],
  "receipts": [
    {
      "transactionHash": "0x9912d90c383b2238aaa177512878702e2901d65b6c6afd459af8b4d9342ddd63",
      "transactionIndex": "0x4",
      "blockHash": "0x7f0647b0e47d60f64f1f74cc6bf6f3a45150a2bd39fbe35a14310b6a2d8aac1a",
      "blockNumber": "0x8ce860",
      "from": "0x7d6703218ab83D5255e4532101deB294eA1b9d27",
      "to": null,
      "cumulativeGasUsed": "0x11c9ba",
      "gasUsed": "0x7ed6e",
      "contractAddress": "0x44945779A7a73b08C51512FE73625F2A9a39198C",
      "logs": [],
      "status": "0x1",
      "logsBloom": "0x00000000000000000000000000000000000000000000000000000000000000000000000000000000000000000000000000000000000000000000000000000000000000000000000000000000000000000000000000000000000000000000000000000000000000000000000000000000000000000000000000000000000000000000000000000000000000000000000000000000000000000000000000000000000000000000000000000000000000000000000000000000000000000000000000000000000000000000000000000000000000000000000000000000000000000000000000000000000000000000000000000000000000000000000000000000",
      "type": "0x2",
      "effectiveGasPrice": "0xb2daba4d"
    },
    {
      "transactionHash": "0x41c45849df4e9f02c91c1faefdbac5478d922ec7118d787dde91a9dc86da4f99",
      "transactionIndex": "0x5",
      "blockHash": "0x7f0647b0e47d60f64f1f74cc6bf6f3a45150a2bd39fbe35a14310b6a2d8aac1a",
      "blockNumber": "0x8ce860",
      "from": "0x7d6703218ab83D5255e4532101deB294eA1b9d27",
      "to": "0x8ACFC9D02FB13d83eE4Cfa9102d50f7abD0C3656",
      "cumulativeGasUsed": "0x127e7a",
      "gasUsed": "0xb4c0",
      "contractAddress": null,
      "logs": [
        {
          "address": "0x8ACFC9D02FB13d83eE4Cfa9102d50f7abD0C3656",
          "topics": [
            "0x8c5be1e5ebec7d5bd14f71427d1e84f3dd0314c0f7b2291e5b200ac8c7c3b925",
            "0x0000000000000000000000007d6703218ab83d5255e4532101deb294ea1b9d27",
            "0x00000000000000000000000044945779a7a73b08c51512fe73625f2a9a39198c"
          ],
          "data": "0x0000000000000000000000000000000000000000000000056bc75e2d63100000",
          "blockHash": "0x7f0647b0e47d60f64f1f74cc6bf6f3a45150a2bd39fbe35a14310b6a2d8aac1a",
          "blockNumber": "0x8ce860",
          "transactionHash": "0x41c45849df4e9f02c91c1faefdbac5478d922ec7118d787dde91a9dc86da4f99",
          "transactionIndex": "0x5",
          "logIndex": "0xf",
          "removed": false
        }
      ],
      "status": "0x1",
      "logsBloom": "0x00000000000000000000000000000000000000000000000000000000000000000000000000000000000000080000001000000000000000000000000000200000000080000000000000000000000000000000000004000000002000000000000000000000000000000000000000000000000000000000000000000000000020000000000000000000000000000000000000000040000000000000000000000000020000000000000000000000000000000000000000000000000000000000000000000000000000000000420000000000000000000000000000000000000000000010000000000000000000000000000000000000000000000000000000000000",
      "type": "0x2",
      "effectiveGasPrice": "0xb2daba4d"
    },
    {
      "transactionHash": "0x5132dfbe7aca5fe59c1728da3d13e2cffa3c2d338af366602fef093e19d3a8c0",
      "transactionIndex": "0x6",
      "blockHash": "0x7f0647b0e47d60f64f1f74cc6bf6f3a45150a2bd39fbe35a14310b6a2d8aac1a",
      "blockNumber": "0x8ce860",
      "from": "0x7d6703218ab83D5255e4532101deB294eA1b9d27",
      "to": "0x83EbCEF22bD896e522d27AF442Bf7F3f1efB52Eb",
      "cumulativeGasUsed": "0x13333a",
      "gasUsed": "0xb4c0",
      "contractAddress": null,
      "logs": [
        {
          "address": "0x83EbCEF22bD896e522d27AF442Bf7F3f1efB52Eb",
          "topics": [
            "0x8c5be1e5ebec7d5bd14f71427d1e84f3dd0314c0f7b2291e5b200ac8c7c3b925",
            "0x0000000000000000000000007d6703218ab83d5255e4532101deb294ea1b9d27",
            "0x00000000000000000000000044945779a7a73b08c51512fe73625f2a9a39198c"
          ],
          "data": "0x0000000000000000000000000000000000000000000000056bc75e2d63100000",
          "blockHash": "0x7f0647b0e47d60f64f1f74cc6bf6f3a45150a2bd39fbe35a14310b6a2d8aac1a",
          "blockNumber": "0x8ce860",
          "transactionHash": "0x5132dfbe7aca5fe59c1728da3d13e2cffa3c2d338af366602fef093e19d3a8c0",
          "transactionIndex": "0x6",
          "logIndex": "0x10",
          "removed": false
        }
      ],
      "status": "0x1",
      "logsBloom": "0x00000000000000000000000000000000000000000000000000000000000000000000000000800000000000080000000000000000000000000000000000200000002080000000000000000000000000000000000004000000002000000000000000000000000000000000000400000000000000000000000000000000000020000000000000000000000000000000000000000000000000000000000000000000020000000000000000000000000000000000000000000000000000000000000000000000000000000000020000000000000000000000000000000000000000000010000000000000000000000000000000000000000000000000000000000000",
      "type": "0x2",
      "effectiveGasPrice": "0xb2daba4d"
    },
    {
      "transactionHash": "0x94253d286b08d30c565cddc084b687097d440e5da38cb0aa6b06ab5530be322a",
      "transactionIndex": "0x7",
      "blockHash": "0x7f0647b0e47d60f64f1f74cc6bf6f3a45150a2bd39fbe35a14310b6a2d8aac1a",
      "blockNumber": "0x8ce860",
      "from": "0x7d6703218ab83D5255e4532101deB294eA1b9d27",
      "to": "0xad7204FEF049294eEeD3046Cbc5995C123D83eE0",
      "cumulativeGasUsed": "0x13e7fa",
      "gasUsed": "0xb4c0",
      "contractAddress": null,
      "logs": [
        {
          "address": "0xad7204FEF049294eEeD3046Cbc5995C123D83eE0",
          "topics": [
            "0x8c5be1e5ebec7d5bd14f71427d1e84f3dd0314c0f7b2291e5b200ac8c7c3b925",
            "0x0000000000000000000000007d6703218ab83d5255e4532101deb294ea1b9d27",
            "0x00000000000000000000000044945779a7a73b08c51512fe73625f2a9a39198c"
          ],
          "data": "0x0000000000000000000000000000000000000000000000056bc75e2d63100000",
          "blockHash": "0x7f0647b0e47d60f64f1f74cc6bf6f3a45150a2bd39fbe35a14310b6a2d8aac1a",
          "blockNumber": "0x8ce860",
          "transactionHash": "0x94253d286b08d30c565cddc084b687097d440e5da38cb0aa6b06ab5530be322a",
          "transactionIndex": "0x7",
          "logIndex": "0x11",
          "removed": false
        }
      ],
      "status": "0x1",
      "logsBloom": "0x10000000000000000000000000000000000000000000000000000000000000000000000000000000000001080000000000000000000000000000000000200000000080000000000000000000000000000000000004000000002000000000000000000000000000000000000100000000000000000000000000000000000020000000000000000000000000000000000000000000000000000000000000000000020000000000000000000000000000000000000000000000000000000000000000000000000000000000020000000000000000000000000000000000000000000010000000000000000000000000000000000000000000000000000000000000",
      "type": "0x2",
      "effectiveGasPrice": "0xb2daba4d"
    },
    {
      "transactionHash": "0x81027c33db40a5b6a237919f843e8cafb921793a31dedf7b3e3d57d4a70f8fac",
      "transactionIndex": "0x8",
      "blockHash": "0x7f0647b0e47d60f64f1f74cc6bf6f3a45150a2bd39fbe35a14310b6a2d8aac1a",
      "blockNumber": "0x8ce860",
      "from": "0x7d6703218ab83D5255e4532101deB294eA1b9d27",
      "to": "0x8ACFC9D02FB13d83eE4Cfa9102d50f7abD0C3656",
      "cumulativeGasUsed": "0x14b14b",
      "gasUsed": "0xc951",
      "contractAddress": null,
      "logs": [
        {
          "address": "0x8ACFC9D02FB13d83eE4Cfa9102d50f7abD0C3656",
          "topics": [
            "0xddf252ad1be2c89b69c2b068fc378daa952ba7f163c4a11628f55a4df523b3ef",
            "0x0000000000000000000000000000000000000000000000000000000000000000",
            "0x00000000000000000000000044945779a7a73b08c51512fe73625f2a9a39198c"
          ],
          "data": "0x00000000000000000000000000000000000004ee2d6d415b85acef8100000000",
          "blockHash": "0x7f0647b0e47d60f64f1f74cc6bf6f3a45150a2bd39fbe35a14310b6a2d8aac1a",
          "blockNumber": "0x8ce860",
          "transactionHash": "0x81027c33db40a5b6a237919f843e8cafb921793a31dedf7b3e3d57d4a70f8fac",
          "transactionIndex": "0x8",
          "logIndex": "0x12",
          "removed": false
        }
      ],
      "status": "0x1",
      "logsBloom": "0x00000000000000000000000000000000000000000000000000000000000000000000000000000000000000080000001000000000000000000000000000000000000000000000000000000008000000000000000000000000002000000000000000000000020000000000000000000800000000000000000000000010000000000000000000000000000000000000000000000040000000000000000000000000000000000000000000000000000000000000000000000000000000000000000000000002000000000000420000000000000000000000000000000000000020000000000000000000000000000000000000000000000000000000000000000000",
      "type": "0x2",
      "effectiveGasPrice": "0xb2daba4d"
    },
    {
      "transactionHash": "0x5024e18b0091d7013a514c05637064ed7d5b200085d05c5b6c841d68622bd96b",
      "transactionIndex": "0x9",
      "blockHash": "0x7f0647b0e47d60f64f1f74cc6bf6f3a45150a2bd39fbe35a14310b6a2d8aac1a",
      "blockNumber": "0x8ce860",
      "from": "0x7d6703218ab83D5255e4532101deB294eA1b9d27",
      "to": "0x83EbCEF22bD896e522d27AF442Bf7F3f1efB52Eb",
      "cumulativeGasUsed": "0x157a9c",
      "gasUsed": "0xc951",
      "contractAddress": null,
      "logs": [
        {
          "address": "0x83EbCEF22bD896e522d27AF442Bf7F3f1efB52Eb",
          "topics": [
            "0xddf252ad1be2c89b69c2b068fc378daa952ba7f163c4a11628f55a4df523b3ef",
            "0x0000000000000000000000000000000000000000000000000000000000000000",
            "0x00000000000000000000000044945779a7a73b08c51512fe73625f2a9a39198c"
          ],
          "data": "0x00000000000000000000000000000000000004ee2d6d415b85acef8100000000",
          "blockHash": "0x7f0647b0e47d60f64f1f74cc6bf6f3a45150a2bd39fbe35a14310b6a2d8aac1a",
          "blockNumber": "0x8ce860",
          "transactionHash": "0x5024e18b0091d7013a514c05637064ed7d5b200085d05c5b6c841d68622bd96b",
          "transactionIndex": "0x9",
          "logIndex": "0x13",
          "removed": false
        }
      ],
      "status": "0x1",
      "logsBloom": "0x00000000000000000000000000000000000000000000000000000000000000000000000000800000000000080000000000000000000000000000000000000000002000000000000000000008000000000000000000000000002000000000000000000000020000000000000400000800000000000000000000000010000000000000000000000000000000000000000000000000000000000000000000000000000000000000000000000000000000000000000000000000000000000000000000000002000000000000020000000000000000000000000000000000000020000000000000000000000000000000000000000000000000000000000000000000",
      "type": "0x2",
      "effectiveGasPrice": "0xb2daba4d"
    },
    {
      "transactionHash": "0xee4ef2684b0e93affc32b6e223bb9d8478facf3d22140086e16f683c764ea440",
      "transactionIndex": "0xa",
      "blockHash": "0x7f0647b0e47d60f64f1f74cc6bf6f3a45150a2bd39fbe35a14310b6a2d8aac1a",
      "blockNumber": "0x8ce860",
      "from": "0x7d6703218ab83D5255e4532101deB294eA1b9d27",
      "to": "0xad7204FEF049294eEeD3046Cbc5995C123D83eE0",
      "cumulativeGasUsed": "0x1643ed",
      "gasUsed": "0xc951",
      "contractAddress": null,
      "logs": [
        {
          "address": "0xad7204FEF049294eEeD3046Cbc5995C123D83eE0",
          "topics": [
            "0xddf252ad1be2c89b69c2b068fc378daa952ba7f163c4a11628f55a4df523b3ef",
            "0x0000000000000000000000000000000000000000000000000000000000000000",
            "0x00000000000000000000000044945779a7a73b08c51512fe73625f2a9a39198c"
          ],
          "data": "0x00000000000000000000000000000000000004ee2d6d415b85acef8100000000",
          "blockHash": "0x7f0647b0e47d60f64f1f74cc6bf6f3a45150a2bd39fbe35a14310b6a2d8aac1a",
          "blockNumber": "0x8ce860",
          "transactionHash": "0xee4ef2684b0e93affc32b6e223bb9d8478facf3d22140086e16f683c764ea440",
          "transactionIndex": "0xa",
          "logIndex": "0x14",
          "removed": false
        }
      ],
      "status": "0x1",
      "logsBloom": "0x10000000000000000000000000000000000000000000000000000000000000000000000000000000000001080000000000000000000000000000000000000000000000000000000000000008000000000000000000000000002000000000000000000000020000000000000100000800000000000000000000000010000000000000000000000000000000000000000000000000000000000000000000000000000000000000000000000000000000000000000000000000000000000000000000000002000000000000020000000000000000000000000000000000000020000000000000000000000000000000000000000000000000000000000000000000",
      "type": "0x2",
      "effectiveGasPrice": "0xb2daba4d"
    }
  ],
  "libraries": [],
  "pending": [],
  "path": "C:/Users/cesar/Documents/GitHub/offline-wallet/contracts/broadcast\\Bridge.s.sol\\5\\run-latest.json",
  "returns": {},
  "timestamp": 1687640923,
  "chain": 5,
  "multi": false,
  "commit": "cfffa5a"
}