{
  "transactions": [
    {
      "hash": "0xafc39e17329ecdf45339bebb2e86fb856d409015b382340d48751835093fa17a",
      "transactionType": "CREATE",
      "contractName": "Bridge",
      "contractAddress": "0xB98413539a85ca926e8A26a74F40d3EC6924fD26",
      "function": null,
      "arguments": [
        "[0x8ACFC9D02FB13d83eE4Cfa9102d50f7abD0C3656, 0x83EbCEF22bD896e522d27AF442Bf7F3f1efB52Eb, 0xad7204FEF049294eEeD3046Cbc5995C123D83eE0]",
        "[1, 1900, 31000]",
        "0xCC737a94FecaeC165AbCf12dED095BB13F037685"
      ],
      "rpc": "https://eth-goerli.g.alchemy.com/v2/75qiyn1_EpxCn93X5tD7yEtmcXUM_Udw",
      "transaction": {
        "type": "0x02",
        "from": "0x7d6703218ab83d5255e4532101deb294ea1b9d27",
        "gas": "0x9d722",
        "value": "0x0",
        "data": "0x60a060405234801561001057600080fd5b506040516108c33803806108c383398101604081905261002f91610105565b828260005b600381101561009c5761008a838260038110610052576100526101ca565b6020020151838360038110610069576100696101ca565b60200201516001600160a01b03909116600090815260208190526040902055565b80610094816101e0565b915050610034565b5050506001600160a01b0316608052506102079050565b604051606081016001600160401b03811182821017156100e357634e487b7160e01b600052604160045260246000fd5b60405290565b80516001600160a01b038116811461010057600080fd5b919050565b600080600060e0848603121561011a57600080fd5b84601f85011261012957600080fd5b6101316100b3565b80606086018781111561014357600080fd5b865b8181101561016457610156816100e9565b845260209384019301610145565b5081955087607f88011261017757600080fd5b61017f6100b3565b925082915060c087018881111561019557600080fd5b5b808210156101b1578151845260209384019390910190610196565b8295506101bd816100e9565b9450505050509250925092565b634e487b7160e01b600052603260045260246000fd5b60006001820161020057634e487b7160e01b600052601160045260246000fd5b5060010190565b60805161069c610227600039600081816080015260de015261069c6000f3fe608060405234801561001057600080fd5b50600436106100365760003560e01c806356d5d4751461003b5780637c6c461914610050575b600080fd5b61004e6100493660046103f7565b610075565b005b61006361005e366004610496565b6100d9565b60405190815260200160405180910390f35b336001600160a01b037f000000000000000000000000000000000000000000000000000000000000000016146100aa57600080fd5b60008080806100bb85870187610521565b93509350935093506100cf848484846101d4565b5050505050505050565b6000807f00000000000000000000000000000000000000000000000000000000000000006001600160a01b031663fa31de018661011c876001600160a01b031690565b604080516001600160a01b03808f166020830152808e1692820192909252606081018c9052908816608082015260a0016040516020818303038152906040526040518463ffffffff1660e01b815260040161017993929190610574565b6020604051808303816000875af1158015610198573d6000803e3d6000fd5b505050506040513d601f19601f820116820180604052508101906101bc91906105d7565b90506101c8898761035f565b98975050505050505050565b6001600160a01b03841660009081526020819052604090205461023e5760405162461bcd60e51b815260206004820152601960248201527f496e70757420746f6b656e207072696365206e6f74207365740000000000000060448201526064015b60405180910390fd5b6001600160a01b0383166000908152602081905260409020546102a35760405162461bcd60e51b815260206004820152601a60248201527f4f757470757420746f6b656e207072696365206e6f74207365740000000000006044820152606401610235565b6001600160a01b0380851660009081526020819052604080822054928616825281205490816102d284876105f0565b6102dc919061061b565b60405163a9059cbb60e01b81526001600160a01b03868116600483015260248201839052919250879182169063a9059cbb906044016020604051808303816000875af1158015610330573d6000803e3d6000fd5b505050506040513d601f19601f82011682018060405250810190610354919061063d565b505050505050505050565b6040516323b872dd60e01b81523360048201523060248201526044810182905282906001600160a01b038216906323b872dd906064016020604051808303816000875af11580156103b4573d6000803e3d6000fd5b505050506040513d601f19601f820116820180604052508101906103d8919061063d565b50505050565b803563ffffffff811681146103f257600080fd5b919050565b6000806000806060858703121561040d57600080fd5b610416856103de565b935060208501359250604085013567ffffffffffffffff8082111561043a57600080fd5b818701915087601f83011261044e57600080fd5b81358181111561045d57600080fd5b88602082850101111561046f57600080fd5b95989497505060200194505050565b6001600160a01b038116811461049357600080fd5b50565b600080600080600080600060e0888a0312156104b157600080fd5b87356104bc8161047e565b965060208801356104cc8161047e565b955060408801356104dc8161047e565b9450606088013593506104f1608089016103de565b925060a08801356105018161047e565b915060c08801356105118161047e565b8091505092959891949750929550565b6000806000806080858703121561053757600080fd5b84356105428161047e565b935060208501356105528161047e565b92506040850135915060608501356105698161047e565b939692955090935050565b63ffffffff8416815260006020848184015260606040840152835180606085015260005b818110156105b457858101830151858201608001528201610598565b506000608082860101526080601f19601f83011685010192505050949350505050565b6000602082840312156105e957600080fd5b5051919050565b808202811582820484141761061557634e487b7160e01b600052601160045260246000fd5b92915050565b60008261063857634e487b7160e01b600052601260045260246000fd5b500490565b60006020828403121561064f57600080fd5b8151801515811461065f57600080fd5b939250505056fea2646970667358221220d1e32e1cb903d9c83bef6699ac41ceee059e85186db39e8f962fd9ee63abbe9164736f6c634300081200330000000000000000000000008acfc9d02fb13d83ee4cfa9102d50f7abd0c365600000000000000000000000083ebcef22bd896e522d27af442bf7f3f1efb52eb000000000000000000000000ad7204fef049294eeed3046cbc5995c123d83ee00000000000000000000000000000000000000000000000000000000000000001000000000000000000000000000000000000000000000000000000000000076c0000000000000000000000000000000000000000000000000000000000007918000000000000000000000000cc737a94fecaec165abcf12ded095bb13f037685",
        "nonce": "0x9c",
        "accessList": []
      },
      "additionalContracts": []
    },
    {
      "hash": "0x44e1c1cb5dcd51467823cf4e60594ee14d3f74f42c2c69c43005d2eccb6a4005",
      "transactionType": "CALL",
      "contractName": "MyToken",
      "contractAddress": "0x8ACFC9D02FB13d83eE4Cfa9102d50f7abD0C3656",
      "function": "approve(address,uint256):(bool)",
      "arguments": [
        "0xB98413539a85ca926e8A26a74F40d3EC6924fD26",
        "100000000000000"
      ],
      "rpc": "https://eth-goerli.g.alchemy.com/v2/75qiyn1_EpxCn93X5tD7yEtmcXUM_Udw",
      "transaction": {
        "type": "0x02",
        "from": "0x7d6703218ab83d5255e4532101deb294ea1b9d27",
        "to": "0x8acfc9d02fb13d83ee4cfa9102d50f7abd0c3656",
        "gas": "0xf987",
        "value": "0x0",
        "data": "0x095ea7b3000000000000000000000000b98413539a85ca926e8a26a74f40d3ec6924fd2600000000000000000000000000000000000000000000000000005af3107a4000",
        "nonce": "0x9d",
        "accessList": []
      },
      "additionalContracts": []
    },
    {
      "hash": "0xf43bb038229b57016a457ff71ae69a31d078ad4bcfed702e8b341b98777ede75",
      "transactionType": "CALL",
      "contractName": "MyToken",
      "contractAddress": "0x83EbCEF22bD896e522d27AF442Bf7F3f1efB52Eb",
      "function": "approve(address,uint256):(bool)",
      "arguments": [
        "0xB98413539a85ca926e8A26a74F40d3EC6924fD26",
        "100000000000000"
      ],
      "rpc": "https://eth-goerli.g.alchemy.com/v2/75qiyn1_EpxCn93X5tD7yEtmcXUM_Udw",
      "transaction": {
        "type": "0x02",
        "from": "0x7d6703218ab83d5255e4532101deb294ea1b9d27",
        "to": "0x83ebcef22bd896e522d27af442bf7f3f1efb52eb",
        "gas": "0xf987",
        "value": "0x0",
        "data": "0x095ea7b3000000000000000000000000b98413539a85ca926e8a26a74f40d3ec6924fd2600000000000000000000000000000000000000000000000000005af3107a4000",
        "nonce": "0x9e",
        "accessList": []
      },
      "additionalContracts": []
    },
    {
      "hash": "0xb3c6fd5ff1299fa400ab59dc06ee6d27ad227543429910afc55daecae966a672",
      "transactionType": "CALL",
      "contractName": "MyToken",
      "contractAddress": "0xad7204FEF049294eEeD3046Cbc5995C123D83eE0",
      "function": "approve(address,uint256):(bool)",
      "arguments": [
        "0xB98413539a85ca926e8A26a74F40d3EC6924fD26",
        "100000000000000"
      ],
      "rpc": "https://eth-goerli.g.alchemy.com/v2/75qiyn1_EpxCn93X5tD7yEtmcXUM_Udw",
      "transaction": {
        "type": "0x02",
        "from": "0x7d6703218ab83d5255e4532101deb294ea1b9d27",
        "to": "0xad7204fef049294eeed3046cbc5995c123d83ee0",
        "gas": "0xf987",
        "value": "0x0",
        "data": "0x095ea7b3000000000000000000000000b98413539a85ca926e8a26a74f40d3ec6924fd2600000000000000000000000000000000000000000000000000005af3107a4000",
        "nonce": "0x9f",
        "accessList": []
      },
      "additionalContracts": []
    },
    {
      "hash": "0xa09296193f72878ed2c59bc2014f001145d85e9d56f573ed353c0ce66afaaa6f",
      "transactionType": "CALL",
      "contractName": "MyToken",
      "contractAddress": "0x8ACFC9D02FB13d83eE4Cfa9102d50f7abD0C3656",
      "function": "mint(address,uint256)",
      "arguments": [
        "0xB98413539a85ca926e8A26a74F40d3EC6924fD26",
        "100000000000000"
      ],
      "rpc": "https://eth-goerli.g.alchemy.com/v2/75qiyn1_EpxCn93X5tD7yEtmcXUM_Udw",
      "transaction": {
        "type": "0x02",
        "from": "0x7d6703218ab83d5255e4532101deb294ea1b9d27",
        "to": "0x8acfc9d02fb13d83ee4cfa9102d50f7abd0c3656",
        "gas": "0x1266c",
        "value": "0x0",
        "data": "0x40c10f19000000000000000000000000b98413539a85ca926e8a26a74f40d3ec6924fd2600000000000000000000000000000000000000000000000000005af3107a4000",
        "nonce": "0xa0",
        "accessList": []
      },
      "additionalContracts": []
    },
    {
      "hash": "0x3eb1c9b9702a80757db32437583c2d4cd62988bf9da7780f80b054c19e55d31e",
      "transactionType": "CALL",
      "contractName": "MyToken",
      "contractAddress": "0x83EbCEF22bD896e522d27AF442Bf7F3f1efB52Eb",
      "function": "mint(address,uint256)",
      "arguments": [
        "0xB98413539a85ca926e8A26a74F40d3EC6924fD26",
        "100000000000000"
      ],
      "rpc": "https://eth-goerli.g.alchemy.com/v2/75qiyn1_EpxCn93X5tD7yEtmcXUM_Udw",
      "transaction": {
        "type": "0x02",
        "from": "0x7d6703218ab83d5255e4532101deb294ea1b9d27",
        "to": "0x83ebcef22bd896e522d27af442bf7f3f1efb52eb",
        "gas": "0x1266c",
        "value": "0x0",
        "data": "0x40c10f19000000000000000000000000b98413539a85ca926e8a26a74f40d3ec6924fd2600000000000000000000000000000000000000000000000000005af3107a4000",
        "nonce": "0xa1",
        "accessList": []
      },
      "additionalContracts": []
    },
    {
      "hash": "0x001d214e0be3bb5086933892f59e1491fcc3fdd74c9d13a9619fddb99c21036d",
      "transactionType": "CALL",
      "contractName": "MyToken",
      "contractAddress": "0xad7204FEF049294eEeD3046Cbc5995C123D83eE0",
      "function": "mint(address,uint256)",
      "arguments": [
        "0xB98413539a85ca926e8A26a74F40d3EC6924fD26",
        "100000000000000"
      ],
      "rpc": "https://eth-goerli.g.alchemy.com/v2/75qiyn1_EpxCn93X5tD7yEtmcXUM_Udw",
      "transaction": {
        "type": "0x02",
        "from": "0x7d6703218ab83d5255e4532101deb294ea1b9d27",
        "to": "0xad7204fef049294eeed3046cbc5995c123d83ee0",
        "gas": "0x1266c",
        "value": "0x0",
        "data": "0x40c10f19000000000000000000000000b98413539a85ca926e8a26a74f40d3ec6924fd2600000000000000000000000000000000000000000000000000005af3107a4000",
        "nonce": "0xa2",
        "accessList": []
      },
      "additionalContracts": []
    }
  ],
  "receipts": [
    {
      "transactionHash": "0xafc39e17329ecdf45339bebb2e86fb856d409015b382340d48751835093fa17a",
      "transactionIndex": "0x4",
      "blockHash": "0x89665a562d049696e242544b6ad5d11c8f83cf44faac8e7b7ced7fc72178e001",
      "blockNumber": "0x8ce725",
      "from": "0x7d6703218ab83D5255e4532101deB294eA1b9d27",
      "to": null,
      "cumulativeGasUsed": "0xa860f",
      "gasUsed": "0x79268",
      "contractAddress": "0xB98413539a85ca926e8A26a74F40d3EC6924fD26",
      "logs": [],
      "status": "0x1",
      "logsBloom": "0x00000000000000000000000000000000000000000000000000000000000000000000000000000000000000000000000000000000000000000000000000000000000000000000000000000000000000000000000000000000000000000000000000000000000000000000000000000000000000000000000000000000000000000000000000000000000000000000000000000000000000000000000000000000000000000000000000000000000000000000000000000000000000000000000000000000000000000000000000000000000000000000000000000000000000000000000000000000000000000000000000000000000000000000000000000000",
      "type": "0x2",
      "effectiveGasPrice": "0xb2d0b680"
    },
    {
      "transactionHash": "0x44e1c1cb5dcd51467823cf4e60594ee14d3f74f42c2c69c43005d2eccb6a4005",
      "transactionIndex": "0x5",
      "blockHash": "0x89665a562d049696e242544b6ad5d11c8f83cf44faac8e7b7ced7fc72178e001",
      "blockNumber": "0x8ce725",
      "from": "0x7d6703218ab83D5255e4532101deB294eA1b9d27",
      "to": "0x8ACFC9D02FB13d83eE4Cfa9102d50f7abD0C3656",
      "cumulativeGasUsed": "0xb3ab7",
      "gasUsed": "0xb4a8",
      "contractAddress": null,
      "logs": [
        {
          "address": "0x8ACFC9D02FB13d83eE4Cfa9102d50f7abD0C3656",
          "topics": [
            "0x8c5be1e5ebec7d5bd14f71427d1e84f3dd0314c0f7b2291e5b200ac8c7c3b925",
            "0x0000000000000000000000007d6703218ab83d5255e4532101deb294ea1b9d27",
            "0x000000000000000000000000b98413539a85ca926e8a26a74f40d3ec6924fd26"
          ],
          "data": "0x00000000000000000000000000000000000000000000000000005af3107a4000",
          "blockHash": "0x89665a562d049696e242544b6ad5d11c8f83cf44faac8e7b7ced7fc72178e001",
          "blockNumber": "0x8ce725",
          "transactionHash": "0x44e1c1cb5dcd51467823cf4e60594ee14d3f74f42c2c69c43005d2eccb6a4005",
          "transactionIndex": "0x5",
          "logIndex": "0x2",
          "removed": false
        }
      ],
      "status": "0x1",
      "logsBloom": "0x00000000010000000000000000000000000000000000000000000000000000000000000000000000000000000000001000000000000000000000000000200000000080000000000000000000000000000000000004000000000000000000000000000000000000000000100000000000000000000000000000000002000020000000000000000000000000000000000000000040000000000000000000000000020000000000000000000000000000000000000000000000000000000000000000000000000000000000400000000000000000000000000000000000000000000010000000000000000000000000000000000000000000000000000000000000",
      "type": "0x2",
      "effectiveGasPrice": "0xb2d0b680"
    },
    {
      "transactionHash": "0xf43bb038229b57016a457ff71ae69a31d078ad4bcfed702e8b341b98777ede75",
      "transactionIndex": "0x6",
      "blockHash": "0x89665a562d049696e242544b6ad5d11c8f83cf44faac8e7b7ced7fc72178e001",
      "blockNumber": "0x8ce725",
      "from": "0x7d6703218ab83D5255e4532101deB294eA1b9d27",
      "to": "0x83EbCEF22bD896e522d27AF442Bf7F3f1efB52Eb",
      "cumulativeGasUsed": "0xbef5f",
      "gasUsed": "0xb4a8",
      "contractAddress": null,
      "logs": [
        {
          "address": "0x83EbCEF22bD896e522d27AF442Bf7F3f1efB52Eb",
          "topics": [
            "0x8c5be1e5ebec7d5bd14f71427d1e84f3dd0314c0f7b2291e5b200ac8c7c3b925",
            "0x0000000000000000000000007d6703218ab83d5255e4532101deb294ea1b9d27",
            "0x000000000000000000000000b98413539a85ca926e8a26a74f40d3ec6924fd26"
          ],
          "data": "0x00000000000000000000000000000000000000000000000000005af3107a4000",
          "blockHash": "0x89665a562d049696e242544b6ad5d11c8f83cf44faac8e7b7ced7fc72178e001",
          "blockNumber": "0x8ce725",
          "transactionHash": "0xf43bb038229b57016a457ff71ae69a31d078ad4bcfed702e8b341b98777ede75",
          "transactionIndex": "0x6",
          "logIndex": "0x3",
          "removed": false
        }
      ],
      "status": "0x1",
      "logsBloom": "0x00000000010000000000000000000000000000000000000000000000000000000000000000800000000000000000000000000000000000000000000000200000002080000000000000000000000000000000000004000000000000000000000000000000000000000000100400000000000000000000000000000002000020000000000000000000000000000000000000000000000000000000000000000000020000000000000000000000000000000000000000000000000000000000000000000000000000000000000000000000000000000000000000000000000000000010000000000000000000000000000000000000000000000000000000000000",
      "type": "0x2",
      "effectiveGasPrice": "0xb2d0b680"
    },
    {
      "transactionHash": "0xb3c6fd5ff1299fa400ab59dc06ee6d27ad227543429910afc55daecae966a672",
      "transactionIndex": "0x7",
      "blockHash": "0x89665a562d049696e242544b6ad5d11c8f83cf44faac8e7b7ced7fc72178e001",
      "blockNumber": "0x8ce725",
      "from": "0x7d6703218ab83D5255e4532101deB294eA1b9d27",
      "to": "0xad7204FEF049294eEeD3046Cbc5995C123D83eE0",
      "cumulativeGasUsed": "0xca407",
      "gasUsed": "0xb4a8",
      "contractAddress": null,
      "logs": [
        {
          "address": "0xad7204FEF049294eEeD3046Cbc5995C123D83eE0",
          "topics": [
            "0x8c5be1e5ebec7d5bd14f71427d1e84f3dd0314c0f7b2291e5b200ac8c7c3b925",
            "0x0000000000000000000000007d6703218ab83d5255e4532101deb294ea1b9d27",
            "0x000000000000000000000000b98413539a85ca926e8a26a74f40d3ec6924fd26"
          ],
          "data": "0x00000000000000000000000000000000000000000000000000005af3107a4000",
          "blockHash": "0x89665a562d049696e242544b6ad5d11c8f83cf44faac8e7b7ced7fc72178e001",
          "blockNumber": "0x8ce725",
          "transactionHash": "0xb3c6fd5ff1299fa400ab59dc06ee6d27ad227543429910afc55daecae966a672",
          "transactionIndex": "0x7",
          "logIndex": "0x4",
          "removed": false
        }
      ],
      "status": "0x1",
      "logsBloom": "0x10000000010000000000000000000000000000000000000000000000000000000000000000000000000001000000000000000000000000000000000000200000000080000000000000000000000000000000000004000000000000000000000000000000000000000000100100000000000000000000000000000002000020000000000000000000000000000000000000000000000000000000000000000000020000000000000000000000000000000000000000000000000000000000000000000000000000000000000000000000000000000000000000000000000000000010000000000000000000000000000000000000000000000000000000000000",
      "type": "0x2",
      "effectiveGasPrice": "0xb2d0b680"
    },
    {
      "transactionHash": "0xa09296193f72878ed2c59bc2014f001145d85e9d56f573ed353c0ce66afaaa6f",
      "transactionIndex": "0x8",
      "blockHash": "0x89665a562d049696e242544b6ad5d11c8f83cf44faac8e7b7ced7fc72178e001",
      "blockNumber": "0x8ce725",
      "from": "0x7d6703218ab83D5255e4532101deB294eA1b9d27",
      "to": "0x8ACFC9D02FB13d83eE4Cfa9102d50f7abD0C3656",
      "cumulativeGasUsed": "0xd6d58",
      "gasUsed": "0xc951",
      "contractAddress": null,
      "logs": [
        {
          "address": "0x8ACFC9D02FB13d83eE4Cfa9102d50f7abD0C3656",
          "topics": [
            "0xddf252ad1be2c89b69c2b068fc378daa952ba7f163c4a11628f55a4df523b3ef",
            "0x0000000000000000000000000000000000000000000000000000000000000000",
            "0x000000000000000000000000b98413539a85ca926e8a26a74f40d3ec6924fd26"
          ],
          "data": "0x00000000000000000000000000000000000004ee2d6d415b85acef8100000000",
          "blockHash": "0x89665a562d049696e242544b6ad5d11c8f83cf44faac8e7b7ced7fc72178e001",
          "blockNumber": "0x8ce725",
          "transactionHash": "0xa09296193f72878ed2c59bc2014f001145d85e9d56f573ed353c0ce66afaaa6f",
          "transactionIndex": "0x8",
          "logIndex": "0x5",
          "removed": false
        }
      ],
      "status": "0x1",
      "logsBloom": "0x00000000010000000000000000000000000000000000000000000000000000000000000000000000000000000000001000000000000000000000000000000000000000000000000000000008000000000000000000000000000000000000000000000000020000000000100000000800000000000000000000000012000000000000000000000000000000000000000000000040000000000000000000000000000000000000000000000000000000000000000000000000000000000000000000000002000000000000400000000000000000000000000000000000000020000000000000000000000000000000000000000000000000000000000000000000",
      "type": "0x2",
      "effectiveGasPrice": "0xb2d0b680"
    },
    {
      "transactionHash": "0x3eb1c9b9702a80757db32437583c2d4cd62988bf9da7780f80b054c19e55d31e",
      "transactionIndex": "0x9",
      "blockHash": "0x89665a562d049696e242544b6ad5d11c8f83cf44faac8e7b7ced7fc72178e001",
      "blockNumber": "0x8ce725",
      "from": "0x7d6703218ab83D5255e4532101deB294eA1b9d27",
      "to": "0x83EbCEF22bD896e522d27AF442Bf7F3f1efB52Eb",
      "cumulativeGasUsed": "0xe36a9",
      "gasUsed": "0xc951",
      "contractAddress": null,
      "logs": [
        {
          "address": "0x83EbCEF22bD896e522d27AF442Bf7F3f1efB52Eb",
          "topics": [
            "0xddf252ad1be2c89b69c2b068fc378daa952ba7f163c4a11628f55a4df523b3ef",
            "0x0000000000000000000000000000000000000000000000000000000000000000",
            "0x000000000000000000000000b98413539a85ca926e8a26a74f40d3ec6924fd26"
          ],
          "data": "0x00000000000000000000000000000000000004ee2d6d415b85acef8100000000",
          "blockHash": "0x89665a562d049696e242544b6ad5d11c8f83cf44faac8e7b7ced7fc72178e001",
          "blockNumber": "0x8ce725",
          "transactionHash": "0x3eb1c9b9702a80757db32437583c2d4cd62988bf9da7780f80b054c19e55d31e",
          "transactionIndex": "0x9",
          "logIndex": "0x6",
          "removed": false
        }
      ],
      "status": "0x1",
      "logsBloom": "0x00000000010000000000000000000000000000000000000000000000000000000000000000800000000000000000000000000000000000000000000000000000002000000000000000000008000000000000000000000000000000000000000000000000020000000000100400000800000000000000000000000012000000000000000000000000000000000000000000000000000000000000000000000000000000000000000000000000000000000000000000000000000000000000000000000002000000000000000000000000000000000000000000000000000020000000000000000000000000000000000000000000000000000000000000000000",
      "type": "0x2",
      "effectiveGasPrice": "0xb2d0b680"
    },
    {
      "transactionHash": "0x001d214e0be3bb5086933892f59e1491fcc3fdd74c9d13a9619fddb99c21036d",
      "transactionIndex": "0xa",
      "blockHash": "0x89665a562d049696e242544b6ad5d11c8f83cf44faac8e7b7ced7fc72178e001",
      "blockNumber": "0x8ce725",
      "from": "0x7d6703218ab83D5255e4532101deB294eA1b9d27",
      "to": "0xad7204FEF049294eEeD3046Cbc5995C123D83eE0",
      "cumulativeGasUsed": "0xefffa",
      "gasUsed": "0xc951",
      "contractAddress": null,
      "logs": [
        {
          "address": "0xad7204FEF049294eEeD3046Cbc5995C123D83eE0",
          "topics": [
            "0xddf252ad1be2c89b69c2b068fc378daa952ba7f163c4a11628f55a4df523b3ef",
            "0x0000000000000000000000000000000000000000000000000000000000000000",
            "0x000000000000000000000000b98413539a85ca926e8a26a74f40d3ec6924fd26"
          ],
          "data": "0x00000000000000000000000000000000000004ee2d6d415b85acef8100000000",
          "blockHash": "0x89665a562d049696e242544b6ad5d11c8f83cf44faac8e7b7ced7fc72178e001",
          "blockNumber": "0x8ce725",
          "transactionHash": "0x001d214e0be3bb5086933892f59e1491fcc3fdd74c9d13a9619fddb99c21036d",
          "transactionIndex": "0xa",
          "logIndex": "0x7",
          "removed": false
        }
      ],
      "status": "0x1",
      "logsBloom": "0x10000000010000000000000000000000000000000000000000000000000000000000000000000000000001000000000000000000000000000000000000000000000000000000000000000008000000000000000000000000000000000000000000000000020000000000100100000800000000000000000000000012000000000000000000000000000000000000000000000000000000000000000000000000000000000000000000000000000000000000000000000000000000000000000000000002000000000000000000000000000000000000000000000000000020000000000000000000000000000000000000000000000000000000000000000000",
      "type": "0x2",
      "effectiveGasPrice": "0xb2d0b680"
    }
  ],
  "libraries": [],
  "pending": [],
  "path": "C:/Users/cesar/Documents/GitHub/offline-wallet/contracts/broadcast\\Bridge.s.sol\\5\\run-latest.json",
  "returns": {},
  "timestamp": 1687636228,
  "chain": 5,
  "multi": false,
  "commit": "b1ceca8"
}